{
  "_format": "hh-sol-artifact-1",
  "contractName": "SimpleSwap",
  "sourceName": "contracts/SimpleSwap.sol",
  "abi": [
    {
      "inputs": [
        {
          "internalType": "address",
          "name": "_tokenA",
          "type": "address"
        },
        {
          "internalType": "address",
          "name": "_tokenB",
          "type": "address"
        }
      ],
      "stateMutability": "nonpayable",
      "type": "constructor"
    },
    {
      "inputs": [
        {
          "internalType": "address",
          "name": "spender",
          "type": "address"
        },
        {
          "internalType": "uint256",
          "name": "allowance",
          "type": "uint256"
        },
        {
          "internalType": "uint256",
          "name": "needed",
          "type": "uint256"
        }
      ],
      "name": "ERC20InsufficientAllowance",
      "type": "error"
    },
    {
      "inputs": [
        {
          "internalType": "address",
          "name": "sender",
          "type": "address"
        },
        {
          "internalType": "uint256",
          "name": "balance",
          "type": "uint256"
        },
        {
          "internalType": "uint256",
          "name": "needed",
          "type": "uint256"
        }
      ],
      "name": "ERC20InsufficientBalance",
      "type": "error"
    },
    {
      "inputs": [
        {
          "internalType": "address",
          "name": "approver",
          "type": "address"
        }
      ],
      "name": "ERC20InvalidApprover",
      "type": "error"
    },
    {
      "inputs": [
        {
          "internalType": "address",
          "name": "receiver",
          "type": "address"
        }
      ],
      "name": "ERC20InvalidReceiver",
      "type": "error"
    },
    {
      "inputs": [
        {
          "internalType": "address",
          "name": "sender",
          "type": "address"
        }
      ],
      "name": "ERC20InvalidSender",
      "type": "error"
    },
    {
      "inputs": [
        {
          "internalType": "address",
          "name": "spender",
          "type": "address"
        }
      ],
      "name": "ERC20InvalidSpender",
      "type": "error"
    },
    {
      "anonymous": false,
      "inputs": [
        {
          "indexed": true,
          "internalType": "address",
          "name": "owner",
          "type": "address"
        },
        {
          "indexed": true,
          "internalType": "address",
          "name": "spender",
          "type": "address"
        },
        {
          "indexed": false,
          "internalType": "uint256",
          "name": "value",
          "type": "uint256"
        }
      ],
      "name": "Approval",
      "type": "event"
    },
    {
      "anonymous": false,
      "inputs": [
        {
          "indexed": true,
          "internalType": "address",
          "name": "provider",
          "type": "address"
        },
        {
          "indexed": false,
          "internalType": "uint256",
          "name": "amountA",
          "type": "uint256"
        },
        {
          "indexed": false,
          "internalType": "uint256",
          "name": "amountB",
          "type": "uint256"
        },
        {
          "indexed": false,
          "internalType": "uint256",
          "name": "liquidity",
          "type": "uint256"
        }
      ],
      "name": "LiquidityAdded",
      "type": "event"
    },
    {
      "anonymous": false,
      "inputs": [
        {
          "indexed": true,
          "internalType": "address",
          "name": "provider",
          "type": "address"
        },
        {
          "indexed": false,
          "internalType": "uint256",
          "name": "amountA",
          "type": "uint256"
        },
        {
          "indexed": false,
          "internalType": "uint256",
          "name": "amountB",
          "type": "uint256"
        },
        {
          "indexed": false,
          "internalType": "uint256",
          "name": "liquidity",
          "type": "uint256"
        }
      ],
      "name": "LiquidityRemoved",
      "type": "event"
    },
    {
      "anonymous": false,
      "inputs": [
        {
          "indexed": true,
          "internalType": "address",
          "name": "user",
          "type": "address"
        },
        {
          "indexed": true,
          "internalType": "address",
          "name": "tokenIn",
          "type": "address"
        },
        {
          "indexed": true,
          "internalType": "address",
          "name": "tokenOut",
          "type": "address"
        },
        {
          "indexed": false,
          "internalType": "uint256",
          "name": "amountIn",
          "type": "uint256"
        },
        {
          "indexed": false,
          "internalType": "uint256",
          "name": "amountOut",
          "type": "uint256"
        }
      ],
      "name": "TokensSwapped",
      "type": "event"
    },
    {
      "anonymous": false,
      "inputs": [
        {
          "indexed": true,
          "internalType": "address",
          "name": "from",
          "type": "address"
        },
        {
          "indexed": true,
          "internalType": "address",
          "name": "to",
          "type": "address"
        },
        {
          "indexed": false,
          "internalType": "uint256",
          "name": "value",
          "type": "uint256"
        }
      ],
      "name": "Transfer",
      "type": "event"
    },
    {
      "inputs": [
        {
          "internalType": "address",
          "name": "_tokenA",
          "type": "address"
        },
        {
          "internalType": "address",
          "name": "_tokenB",
          "type": "address"
        },
        {
          "internalType": "uint256",
          "name": "amountADesired",
          "type": "uint256"
        },
        {
          "internalType": "uint256",
          "name": "amountBDesired",
          "type": "uint256"
        },
        {
          "internalType": "uint256",
          "name": "amountAMin",
          "type": "uint256"
        },
        {
          "internalType": "uint256",
          "name": "amountBMin",
          "type": "uint256"
        },
        {
          "internalType": "address",
          "name": "to",
          "type": "address"
        },
        {
          "internalType": "uint256",
          "name": "deadline",
          "type": "uint256"
        }
      ],
      "name": "addLiquidity",
      "outputs": [
        {
          "internalType": "uint256",
          "name": "amountA",
          "type": "uint256"
        },
        {
          "internalType": "uint256",
          "name": "amountB",
          "type": "uint256"
        },
        {
          "internalType": "uint256",
          "name": "liquidity",
          "type": "uint256"
        }
      ],
      "stateMutability": "nonpayable",
      "type": "function"
    },
    {
      "inputs": [
        {
          "internalType": "address",
          "name": "owner",
          "type": "address"
        },
        {
          "internalType": "address",
          "name": "spender",
          "type": "address"
        }
      ],
      "name": "allowance",
      "outputs": [
        {
          "internalType": "uint256",
          "name": "",
          "type": "uint256"
        }
      ],
      "stateMutability": "view",
      "type": "function"
    },
    {
      "inputs": [
        {
          "internalType": "address",
          "name": "spender",
          "type": "address"
        },
        {
          "internalType": "uint256",
          "name": "value",
          "type": "uint256"
        }
      ],
      "name": "approve",
      "outputs": [
        {
          "internalType": "bool",
          "name": "",
          "type": "bool"
        }
      ],
      "stateMutability": "nonpayable",
      "type": "function"
    },
    {
      "inputs": [
        {
          "internalType": "address",
          "name": "account",
          "type": "address"
        }
      ],
      "name": "balanceOf",
      "outputs": [
        {
          "internalType": "uint256",
          "name": "",
          "type": "uint256"
        }
      ],
      "stateMutability": "view",
      "type": "function"
    },
    {
      "inputs": [],
      "name": "decimals",
      "outputs": [
        {
          "internalType": "uint8",
          "name": "",
          "type": "uint8"
        }
      ],
      "stateMutability": "view",
      "type": "function"
    },
    {
      "inputs": [
        {
          "internalType": "uint256",
          "name": "amountIn",
          "type": "uint256"
        },
        {
          "internalType": "uint256",
          "name": "reserveIn",
          "type": "uint256"
        },
        {
          "internalType": "uint256",
          "name": "reserveOut",
          "type": "uint256"
        }
      ],
      "name": "getAmountOut",
      "outputs": [
        {
          "internalType": "uint256",
          "name": "amountOut",
          "type": "uint256"
        }
      ],
      "stateMutability": "pure",
      "type": "function"
    },
    {
      "inputs": [
        {
          "internalType": "address",
          "name": "user",
          "type": "address"
        }
      ],
      "name": "getLiquidityShares",
      "outputs": [
        {
          "internalType": "uint256",
          "name": "shares",
          "type": "uint256"
        }
      ],
      "stateMutability": "view",
      "type": "function"
    },
    {
      "inputs": [
        {
          "internalType": "address",
          "name": "_tokenA",
          "type": "address"
        },
        {
          "internalType": "address",
          "name": "_tokenB",
          "type": "address"
        }
      ],
      "name": "getPrice",
      "outputs": [
        {
          "internalType": "uint256",
          "name": "price",
          "type": "uint256"
        }
      ],
      "stateMutability": "view",
      "type": "function"
    },
    {
      "inputs": [],
      "name": "getReserves",
      "outputs": [
        {
          "internalType": "uint256",
          "name": "_reserveA",
          "type": "uint256"
        },
        {
          "internalType": "uint256",
          "name": "_reserveB",
          "type": "uint256"
        }
      ],
      "stateMutability": "view",
      "type": "function"
    },
    {
      "inputs": [],
      "name": "getSupportedTokens",
      "outputs": [
        {
          "internalType": "address",
          "name": "_tokenA",
          "type": "address"
        },
        {
          "internalType": "address",
          "name": "_tokenB",
          "type": "address"
        }
      ],
      "stateMutability": "view",
      "type": "function"
    },
    {
      "inputs": [],
      "name": "getTotalLiquidity",
      "outputs": [
        {
          "internalType": "uint256",
          "name": "total",
          "type": "uint256"
        }
      ],
      "stateMutability": "view",
      "type": "function"
    },
    {
      "inputs": [],
      "name": "name",
      "outputs": [
        {
          "internalType": "string",
          "name": "",
          "type": "string"
        }
      ],
      "stateMutability": "view",
      "type": "function"
    },
    {
      "inputs": [
        {
          "internalType": "address",
          "name": "_tokenA",
          "type": "address"
        },
        {
          "internalType": "address",
          "name": "_tokenB",
          "type": "address"
        },
        {
          "internalType": "uint256",
          "name": "liquidity",
          "type": "uint256"
        },
        {
          "internalType": "uint256",
          "name": "amountAMin",
          "type": "uint256"
        },
        {
          "internalType": "uint256",
          "name": "amountBMin",
          "type": "uint256"
        },
        {
          "internalType": "address",
          "name": "to",
          "type": "address"
        },
        {
          "internalType": "uint256",
          "name": "deadline",
          "type": "uint256"
        }
      ],
      "name": "removeLiquidity",
      "outputs": [
        {
          "internalType": "uint256",
          "name": "amountA",
          "type": "uint256"
        },
        {
          "internalType": "uint256",
          "name": "amountB",
          "type": "uint256"
        }
      ],
      "stateMutability": "nonpayable",
      "type": "function"
    },
    {
      "inputs": [],
      "name": "reserveA",
      "outputs": [
        {
          "internalType": "uint256",
          "name": "",
          "type": "uint256"
        }
      ],
      "stateMutability": "view",
      "type": "function"
    },
    {
      "inputs": [],
      "name": "reserveB",
      "outputs": [
        {
          "internalType": "uint256",
          "name": "",
          "type": "uint256"
        }
      ],
      "stateMutability": "view",
      "type": "function"
    },
    {
      "inputs": [
        {
          "internalType": "uint256",
          "name": "amountIn",
          "type": "uint256"
        },
        {
          "internalType": "uint256",
          "name": "amountOutMin",
          "type": "uint256"
        },
        {
          "internalType": "address[]",
          "name": "path",
          "type": "address[]"
        },
        {
          "internalType": "address",
          "name": "to",
          "type": "address"
        },
        {
          "internalType": "uint256",
          "name": "deadline",
          "type": "uint256"
        }
      ],
      "name": "swapExactTokensForTokens",
      "outputs": [],
      "stateMutability": "nonpayable",
      "type": "function"
    },
    {
      "inputs": [],
      "name": "symbol",
      "outputs": [
        {
          "internalType": "string",
          "name": "",
          "type": "string"
        }
      ],
      "stateMutability": "view",
      "type": "function"
    },
    {
      "inputs": [],
      "name": "tokenA",
      "outputs": [
        {
          "internalType": "address",
          "name": "",
          "type": "address"
        }
      ],
      "stateMutability": "view",
      "type": "function"
    },
    {
      "inputs": [],
      "name": "tokenB",
      "outputs": [
        {
          "internalType": "address",
          "name": "",
          "type": "address"
        }
      ],
      "stateMutability": "view",
      "type": "function"
    },
    {
      "inputs": [],
      "name": "totalSupply",
      "outputs": [
        {
          "internalType": "uint256",
          "name": "",
          "type": "uint256"
        }
      ],
      "stateMutability": "view",
      "type": "function"
    },
    {
      "inputs": [
        {
          "internalType": "address",
          "name": "to",
          "type": "address"
        },
        {
          "internalType": "uint256",
          "name": "value",
          "type": "uint256"
        }
      ],
      "name": "transfer",
      "outputs": [
        {
          "internalType": "bool",
          "name": "",
          "type": "bool"
        }
      ],
      "stateMutability": "nonpayable",
      "type": "function"
    },
    {
      "inputs": [
        {
          "internalType": "address",
          "name": "from",
          "type": "address"
        },
        {
          "internalType": "address",
          "name": "to",
          "type": "address"
        },
        {
          "internalType": "uint256",
          "name": "value",
          "type": "uint256"
        }
      ],
      "name": "transferFrom",
      "outputs": [
        {
          "internalType": "bool",
          "name": "",
          "type": "bool"
        }
      ],
      "stateMutability": "nonpayable",
      "type": "function"
    }
  ],
  "bytecode": "0x60c060405234801561001057600080fd5b50604051615332380380615332833981810160405281019061003291906106bd565b6040518060400160405280601a81526020017f53696d706c6553776170204c697175696469747920546f6b656e0000000000008152506040518060400160405280600481526020017f53534c540000000000000000000000000000000000000000000000000000000081525081600390816100ad919061094d565b5080600490816100bd919061094d565b5050506100da67e238392c10c9bd8960c01b6103aa60201b60201c565b6100f4679c8b673d58d53c9d60c01b6103aa60201b60201c565b61010e674ca4f7cdb3430c5f60c01b6103aa60201b60201c565b610128678aeb89302df144b360c01b6103aa60201b60201c565b600073ffffffffffffffffffffffffffffffffffffffff168273ffffffffffffffffffffffffffffffffffffffff16141580156101925750600073ffffffffffffffffffffffffffffffffffffffff168173ffffffffffffffffffffffffffffffffffffffff1614155b6101d1576040517f08c379a00000000000000000000000000000000000000000000000000000000081526004016101c890610a7c565b60405180910390fd5b6101eb6702c2a442cb71d37360c01b6103aa60201b60201c565b61020567015224490998627d60c01b6103aa60201b60201c565b61021f677ea84308817e403460c01b6103aa60201b60201c565b610239679ca722241e681c5b60c01b6103aa60201b60201c565b8073ffffffffffffffffffffffffffffffffffffffff168273ffffffffffffffffffffffffffffffffffffffff16036102a7576040517f08c379a000000000000000000000000000000000000000000000000000000000815260040161029e90610ae8565b60405180910390fd5b6102c167f06a0eaeef03f48760c01b6103aa60201b60201c565b6102db677de4798ef44f082560c01b6103aa60201b60201c565b8173ffffffffffffffffffffffffffffffffffffffff1660808173ffffffffffffffffffffffffffffffffffffffff1681525050610329676f0d3f5ba5d6fab460c01b6103aa60201b60201c565b8073ffffffffffffffffffffffffffffffffffffffff1660a08173ffffffffffffffffffffffffffffffffffffffff1681525050610377674b20e72ff213bfa360c01b6103aa60201b60201c565b610391674068f18d0be755d160c01b6103aa60201b60201c565b6103a3306103e86103ad60201b60201c565b5050610bf6565b50565b600073ffffffffffffffffffffffffffffffffffffffff168273ffffffffffffffffffffffffffffffffffffffff160361041f5760006040517fec442f050000000000000000000000000000000000000000000000000000000081526004016104169190610b17565b60405180910390fd5b6104316000838361043560201b60201c565b5050565b600073ffffffffffffffffffffffffffffffffffffffff168373ffffffffffffffffffffffffffffffffffffffff160361048757806002600082825461047b9190610b61565b9250508190555061055a565b60008060008573ffffffffffffffffffffffffffffffffffffffff1673ffffffffffffffffffffffffffffffffffffffff16815260200190815260200160002054905081811015610513578381836040517fe450d38c00000000000000000000000000000000000000000000000000000000815260040161050a93929190610ba4565b60405180910390fd5b8181036000808673ffffffffffffffffffffffffffffffffffffffff1673ffffffffffffffffffffffffffffffffffffffff16815260200190815260200160002081905550505b600073ffffffffffffffffffffffffffffffffffffffff168273ffffffffffffffffffffffffffffffffffffffff16036105a357806002600082825403925050819055506105f0565b806000808473ffffffffffffffffffffffffffffffffffffffff1673ffffffffffffffffffffffffffffffffffffffff168152602001908152602001600020600082825401925050819055505b8173ffffffffffffffffffffffffffffffffffffffff168373ffffffffffffffffffffffffffffffffffffffff167fddf252ad1be2c89b69c2b068fc378daa952ba7f163c4a11628f55a4df523b3ef8360405161064d9190610bdb565b60405180910390a3505050565b600080fd5b600073ffffffffffffffffffffffffffffffffffffffff82169050919050565b600061068a8261065f565b9050919050565b61069a8161067f565b81146106a557600080fd5b50565b6000815190506106b781610691565b92915050565b600080604083850312156106d4576106d361065a565b5b60006106e2858286016106a8565b92505060206106f3858286016106a8565b9150509250929050565b600081519050919050565b7f4e487b7100000000000000000000000000000000000000000000000000000000600052604160045260246000fd5b7f4e487b7100000000000000000000000000000000000000000000000000000000600052602260045260246000fd5b6000600282049050600182168061077e57607f821691505b60208210810361079157610790610737565b5b50919050565b60008190508160005260206000209050919050565b60006020601f8301049050919050565b600082821b905092915050565b6000600883026107f97fffffffffffffffffffffffffffffffffffffffffffffffffffffffffffffffff826107bc565b61080386836107bc565b95508019841693508086168417925050509392505050565b6000819050919050565b6000819050919050565b600061084a6108456108408461081b565b610825565b61081b565b9050919050565b6000819050919050565b6108648361082f565b61087861087082610851565b8484546107c9565b825550505050565b600090565b61088d610880565b61089881848461085b565b505050565b5b818110156108bc576108b1600082610885565b60018101905061089e565b5050565b601f821115610901576108d281610797565b6108db846107ac565b810160208510156108ea578190505b6108fe6108f6856107ac565b83018261089d565b50505b505050565b600082821c905092915050565b600061092460001984600802610906565b1980831691505092915050565b600061093d8383610913565b9150826002028217905092915050565b610956826106fd565b67ffffffffffffffff81111561096f5761096e610708565b5b6109798254610766565b6109848282856108c0565b600060209050601f8311600181146109b757600084156109a5578287015190505b6109af8582610931565b865550610a17565b601f1984166109c586610797565b60005b828110156109ed578489015182556001820191506020850194506020810190506109c8565b86831015610a0a5784890151610a06601f891682610913565b8355505b6001600288020188555050505b505050505050565b600082825260208201905092915050565b7f496e76616c696420746f6b656e73000000000000000000000000000000000000600082015250565b6000610a66600e83610a1f565b9150610a7182610a30565b602082019050919050565b60006020820190508181036000830152610a9581610a59565b9050919050565b7f53616d6520746f6b656e73000000000000000000000000000000000000000000600082015250565b6000610ad2600b83610a1f565b9150610add82610a9c565b602082019050919050565b60006020820190508181036000830152610b0181610ac5565b9050919050565b610b118161067f565b82525050565b6000602082019050610b2c6000830184610b08565b92915050565b7f4e487b7100000000000000000000000000000000000000000000000000000000600052601160045260246000fd5b6000610b6c8261081b565b9150610b778361081b565b9250828201905080821115610b8f57610b8e610b32565b5b92915050565b610b9e8161081b565b82525050565b6000606082019050610bb96000830186610b08565b610bc66020830185610b95565b610bd36040830184610b95565b949350505050565b6000602082019050610bf06000830184610b95565b92915050565b60805160a0516146d1610c616000396000818161132f0152818161209001528181612ed30152612f4501526000818161073101528181610be401528181610cca015281816110d2015281816116240152818161205901528181612e7d0152612f9b01526146d16000f3fe608060405234801561001057600080fd5b50600436106101425760003560e01c80635f64b55b116100b8578063baa2abde1161007c578063baa2abde14610392578063c8c0526e146103c3578063d3c7c2c7146103f3578063dc5fa6c514610412578063dd62ed3e14610430578063e8e337001461046057610142565b80635f64b55b146102c657806370a08231146102e457806395d89b4114610314578063a9059cbb14610332578063ac41865a1461036257610142565b806318160ddd1161010a57806318160ddd1461020257806319e36f3b1461022057806323b872dd1461023e578063313ce5671461026e57806335c7e9251461028c57806338ed1739146102aa57610142565b8063054d50d41461014757806306fdde03146101775780630902f1ac14610195578063095ea7b3146101b45780630fc63d10146101e4575b600080fd5b610161600480360381019061015c919061371f565b610492565b60405161016e9190613781565b60405180910390f35b61017f61062d565b60405161018c919061382c565b60405180910390f35b61019d6106bf565b6040516101ab92919061384e565b60405180910390f35b6101ce60048036038101906101c991906138d5565b61070c565b6040516101db9190613930565b60405180910390f35b6101ec61072f565b6040516101f9919061395a565b60405180910390f35b61020a610753565b6040516102179190613781565b60405180910390f35b61022861075d565b6040516102359190613781565b60405180910390f35b61025860048036038101906102539190613975565b610763565b6040516102659190613930565b60405180910390f35b610276610792565b60405161028391906139e4565b60405180910390f35b61029461079b565b6040516102a19190613781565b60405180910390f35b6102c460048036038101906102bf9190613a64565b6107e6565b005b6102ce61132d565b6040516102db919061395a565b60405180910390f35b6102fe60048036038101906102f99190613afe565b611351565b60405161030b9190613781565b60405180910390f35b61031c611399565b604051610329919061382c565b60405180910390f35b61034c600480360381019061034791906138d5565b61142b565b6040516103599190613930565b60405180910390f35b61037c60048036038101906103779190613b2b565b61144e565b6040516103899190613781565b60405180910390f35b6103ac60048036038101906103a79190613b6b565b611715565b6040516103ba92919061384e565b60405180910390f35b6103dd60048036038101906103d89190613afe565b611fde565b6040516103ea9190613781565b60405180910390f35b6103fb61202c565b604051610409929190613c0d565b60405180910390f35b61041a6120b5565b6040516104279190613781565b60405180910390f35b61044a60048036038101906104459190613b2b565b6120bb565b6040516104579190613781565b60405180910390f35b61047a60048036038101906104759190613c36565b612142565b60405161048993929190613cec565b60405180910390f35b60006104a86745885852d40e0dc160c01b612c97565b6104bc67cc406348bd465fac60c01b612c97565b6104d06777dd3bd7d3f6af5860c01b612c97565b6104e4671711d17ae5985f2c60c01b612c97565b60008411610527576040517f08c379a000000000000000000000000000000000000000000000000000000000815260040161051e90613d6f565b60405180910390fd5b61053b67e6749f6a3fbc39f460c01b612c97565b61054f67661748f238fa5dff60c01b612c97565b610563678a7a73713157f36960c01b612c97565b61057767db3f6f027e7a673b60c01b612c97565b6000831180156105875750600082115b6105c6576040517f08c379a00000000000000000000000000000000000000000000000000000000081526004016105bd90613ddb565b60405180910390fd5b6105da677f57c74acfbe6a3660c01b612c97565b6105ee67b787cc43f950d3c760c01b612c97565b6106026709665f6b43620d1360c01b612c97565b838361060e9190613e2a565b828561061a9190613e5e565b6106249190613ecf565b90509392505050565b60606003805461063c90613f2f565b80601f016020809104026020016040519081016040528092919081815260200182805461066890613f2f565b80156106b55780601f1061068a576101008083540402835291602001916106b5565b820191906000526020600020905b81548152906001019060200180831161069857829003601f168201915b5050505050905090565b6000806106d6677ec1b4f51cb127c760c01b612c97565b6106ea671b5ecad937f3498a60c01b612c97565b6005549150610703675047aef63bb3c9b260c01b612c97565b60065490509091565b600080610717612c9a565b9050610724818585612ca2565b600191505092915050565b7f000000000000000000000000000000000000000000000000000000000000000081565b6000600254905090565b60065481565b60008061076e612c9a565b905061077b858285612cb4565b610786858585612d49565b60019150509392505050565b60006012905090565b60006107b167944ce4a2afd85d0a60c01b612c97565b6107c5679635dc225399734a60c01b612c97565b6107d9679ffe2682a19c116160c01b612c97565b6107e1610753565b905090565b6107fa67b8a82ab07722dc7b60c01b612c97565b8061080f670220f51bfdd7378560c01b612c97565b610823671011da974d5ab0b460c01b612c97565b61083767402fb3ccfcd0027b60c01b612c97565b61084b6739328d1521ef77cf60c01b612c97565b4281101561088e576040517f08c379a000000000000000000000000000000000000000000000000000000000815260040161088590613fac565b60405180910390fd5b6108a267d4a7911ac213053260c01b612c97565b6108b667466ebd5660f2e1ed60c01b612c97565b6108ca67d447faafe09cdedd60c01b612c97565b6108de67c48bd5e7ada1af6660c01b612c97565b6108f26752ad19620a8674a760c01b612c97565b61090667833d6125c2f57e8460c01b612c97565b61091a67091a4b3a25f0913b60c01b612c97565b60028585905014610960576040517f08c379a000000000000000000000000000000000000000000000000000000000815260040161095790614018565b60405180910390fd5b610974678c2c2a654258075d60c01b612c97565b6109886773165956ac3ddc4e60c01b612c97565b61099c673113a0fa857e9a9460c01b612c97565b6109b067ce11df74bf55e1fe60c01b612c97565b600073ffffffffffffffffffffffffffffffffffffffff168373ffffffffffffffffffffffffffffffffffffffff1603610a1f576040517f08c379a0000000000000000000000000000000000000000000000000000000008152600401610a1690614084565b60405180910390fd5b610a3367386dc0d66d66e7fd60c01b612c97565b610a47674ba5a10539d7984060c01b612c97565b610a5b67b5ac3ce6e73edb6360c01b612c97565b610a6f67af9d6cd5e74dfd2760c01b612c97565b610ac985856000818110610a8657610a856140a4565b5b9050602002016020810190610a9b9190613afe565b86866001818110610aaf57610aae6140a4565b5b9050602002016020810190610ac49190613afe565b612e3d565b610b08576040517f08c379a0000000000000000000000000000000000000000000000000000000008152600401610aff9061411f565b60405180910390fd5b610b1c670477bb8097d8909560c01b612c97565b610b30671d9b6894edc28e5960c01b612c97565b610b446709dcad50f5bc88db60c01b612c97565b6000610b5a671febc40f1222013360c01b612c97565b610b6e67eccf2e8d6c64c47560c01b612c97565b610b82674512e0f15d61725360c01b612c97565b60006005549050610b9d671b2d97f0f9c35afd60c01b612c97565b610bb1670785e865ec658bb060c01b612c97565b60006006549050610bcc67ce6de89859a8880560c01b612c97565b610be067b7dc9400c6ab881860c01b612c97565b60007f000000000000000000000000000000000000000000000000000000000000000073ffffffffffffffffffffffffffffffffffffffff1689896000818110610c2d57610c2c6140a4565b5b9050602002016020810190610c429190613afe565b73ffffffffffffffffffffffffffffffffffffffff161480610c745750610c736702102ab7f04c9b9d60c01b61300e565b5b8015610c905750610c8f673e390068972bbbb360c01b613015565b5b610c9a5781610c9c565b825b9050610cb26775f6c4eba11ddf9660c01b612c97565b610cc6671b180d3326093a5d60c01b612c97565b60007f000000000000000000000000000000000000000000000000000000000000000073ffffffffffffffffffffffffffffffffffffffff168a8a6001818110610d1357610d126140a4565b5b9050602002016020810190610d289190613afe565b73ffffffffffffffffffffffffffffffffffffffff161480610d5a5750610d596768855d627bc5584160c01b61300e565b5b8015610d765750610d7567246466bd4f96db9060c01b613015565b5b610d805782610d82565b835b9050610d98673a2e3c130bccce4160c01b612c97565b610da38c8383610492565b9450610db967e5cde70bf9f6c46660c01b612c97565b610dcd67b370cf4210ceb4b860c01b612c97565b610de167dd6294429b95179060c01b612c97565b8a851015610e24576040517f08c379a0000000000000000000000000000000000000000000000000000000008152600401610e1b9061418b565b60405180910390fd5b610e386734a1c5f6b98d9c8260c01b612c97565b50505050610e5067d043a90d3a9b116160c01b612c97565b610e64679ea5100889277c3a60c01b612c97565b610e78678063dcec5ab7e34560c01b612c97565b85856000818110610e8c57610e8b6140a4565b5b9050602002016020810190610ea19190613afe565b73ffffffffffffffffffffffffffffffffffffffff166323b872dd33308b6040518463ffffffff1660e01b8152600401610edd939291906141ab565b6020604051808303816000875af1158015610efc573d6000803e3d6000fd5b505050506040513d601f19601f82011682018060405250810190610f20919061420e565b610f5f576040517f08c379a0000000000000000000000000000000000000000000000000000000008152600401610f5690614287565b60405180910390fd5b610f7367ea2da7b59c9a5a3160c01b612c97565b610f87677eca0b5582bc372860c01b612c97565b610f9b6759bcefc16cee280160c01b612c97565b610faf672d0fe6d410b6607460c01b612c97565b85856001818110610fc357610fc26140a4565b5b9050602002016020810190610fd89190613afe565b73ffffffffffffffffffffffffffffffffffffffff1663a9059cbb85836040518363ffffffff1660e01b81526004016110129291906142a7565b6020604051808303816000875af1158015611031573d6000803e3d6000fd5b505050506040513d601f19601f82011682018060405250810190611055919061420e565b611094576040517f08c379a000000000000000000000000000000000000000000000000000000000815260040161108b9061431c565b60405180910390fd5b6110a867d098083f0684762360c01b612c97565b6110bc674f710a8d96994fbe60c01b612c97565b6110d0670ef9c22c6606210060c01b612c97565b7f000000000000000000000000000000000000000000000000000000000000000073ffffffffffffffffffffffffffffffffffffffff168686600081811061111b5761111a6140a4565b5b90506020020160208101906111309190613afe565b73ffffffffffffffffffffffffffffffffffffffff16036111be5761115f679533e1fa37053f5860c01b612c97565b61117367eae41748bb8acc2d60c01b612c97565b87600560008282546111859190613e2a565b925050819055506111a067cfc2b99594a5f67460c01b612c97565b80600660008282546111b2919061433c565b9250508190555061122d565b6111d267fba55ded49e6153760c01b612c97565b6111e667bff23c8781ec5c4f60c01b612c97565b87600660008282546111f89190613e2a565b9250508190555061121367a10ce20c8fb5a1b160c01b612c97565b8060056000828254611225919061433c565b925050819055505b6112416752cc1cd9e179dc0760c01b612c97565b61125567a062e425421b2d2060c01b612c97565b85856001818110611269576112686140a4565b5b905060200201602081019061127e9190613afe565b73ffffffffffffffffffffffffffffffffffffffff16868660008181106112a8576112a76140a4565b5b90506020020160208101906112bd9190613afe565b73ffffffffffffffffffffffffffffffffffffffff163373ffffffffffffffffffffffffffffffffffffffff167fad56699d0f375866eb895ed27203058a36a713382aaded78eb6b67da266d43328b8560405161131b92919061384e565b60405180910390a45050505050505050565b7f000000000000000000000000000000000000000000000000000000000000000081565b60008060008373ffffffffffffffffffffffffffffffffffffffff1673ffffffffffffffffffffffffffffffffffffffff168152602001908152602001600020549050919050565b6060600480546113a890613f2f565b80601f01602080910402602001604051908101604052809291908181526020018280546113d490613f2f565b80156114215780601f106113f657610100808354040283529160200191611421565b820191906000526020600020905b81548152906001019060200180831161140457829003601f168201915b5050505050905090565b600080611436612c9a565b9050611443818585612d49565b600191505092915050565b600061146467b10c68e0852a3fd360c01b612c97565b6114786799c424714941161a60c01b612c97565b61148c67dccc5bed7a6193b660c01b612c97565b6114a0677b9262d0b879a51360c01b612c97565b6114aa8383612e3d565b6114e9576040517f08c379a00000000000000000000000000000000000000000000000000000000081526004016114e09061411f565b60405180910390fd5b6114fd67f6e2dd36a6e0ffe860c01b612c97565b611511670d46c48a4c0eb12b60c01b612c97565b611525676c177992b6fc16cd60c01b612c97565b6000600554905061154067f5fe3fe7d92f870e60c01b612c97565b61155467757677c9c9fde72f60c01b612c97565b6000600654905061156f675252d3ba98b91ff360c01b612c97565b611583673057a5091d54875260c01b612c97565b6115976765b05d161249218660c01b612c97565b6000821180156115a75750600081115b6115e6576040517f08c379a00000000000000000000000000000000000000000000000000000000081526004016115dd90613ddb565b60405180910390fd5b6115fa67c428a865c3a1885e60c01b612c97565b61160e672845e2a7b739293660c01b612c97565b61162267aa7dc71fa7f5df6660c01b612c97565b7f000000000000000000000000000000000000000000000000000000000000000073ffffffffffffffffffffffffffffffffffffffff168573ffffffffffffffffffffffffffffffffffffffff16036116c35761168967808cacdfd21de30160c01b612c97565b61169d6747bbfb5e0bf2dd9c60c01b612c97565b81670de0b6b3a7640000826116b29190613e5e565b6116bc9190613ecf565b925061170d565b6116d7675661fa2b0606971660c01b612c97565b6116eb67d5cf8c555ffe680560c01b612c97565b80670de0b6b3a7640000836117009190613e5e565b61170a9190613ecf565b92505b505092915050565b60008061172c67a04a860517f310d060c01b612c97565b82611741670220f51bfdd7378560c01b612c97565b611755671011da974d5ab0b460c01b612c97565b61176967402fb3ccfcd0027b60c01b612c97565b61177d6739328d1521ef77cf60c01b612c97565b428110156117c0576040517f08c379a00000000000000000000000000000000000000000000000000000000081526004016117b790613fac565b60405180910390fd5b6117d467d4a7911ac213053260c01b612c97565b6117e867466ebd5660f2e1ed60c01b612c97565b6117fc677519de243b02e7ef60c01b612c97565b6118106768e33c7e1998d02b60c01b612c97565b61182467cb7c4c132130228b60c01b612c97565b61183867774b03f489da324960c01b612c97565b61184c67e6c74ac08b1f6c9a60c01b612c97565b6118568a8a612e3d565b611895576040517f08c379a000000000000000000000000000000000000000000000000000000000815260040161188c9061411f565b60405180910390fd5b6118a9678ec81abdf6709dbb60c01b612c97565b6118bd67cf0cbf8bb4d05e2e60c01b612c97565b6118d167f9b30a80a8946b8160c01b612c97565b6118e56759a459448a07d69b60c01b612c97565b600073ffffffffffffffffffffffffffffffffffffffff168573ffffffffffffffffffffffffffffffffffffffff1603611954576040517f08c379a000000000000000000000000000000000000000000000000000000000815260040161194b90614084565b60405180910390fd5b61196867b432826016ce11a360c01b612c97565b61197c6755a22155eb1f59f560c01b612c97565b611990675ea65edf6c1f529560c01b612c97565b6119a467d138957a3f7a167760c01b612c97565b600088116119e7576040517f08c379a00000000000000000000000000000000000000000000000000000000081526004016119de906143bc565b60405180910390fd5b6119fb672c6fb62944d8b7e760c01b612c97565b611a0f670bd455ccbf23af0160c01b612c97565b611a2367bd789ba5334a0d4060c01b612c97565b611a3767b7f7d206dda7c52d60c01b612c97565b87611a4133611351565b1015611a82576040517f08c379a0000000000000000000000000000000000000000000000000000000008152600401611a7990614428565b60405180910390fd5b611a966788f645947e72183160c01b612c97565b611aaa679d3da8bff63aa56960c01b612c97565b611abe674b7c531f0c7bdbf360c01b612c97565b611ad2672c2e8ea30f9f666e60c01b612c97565b60006005549050611aed6731319abbed789a3760c01b612c97565b611b0167bb70bbbb3fbff0fd60c01b612c97565b60006006549050611b1c67cdfa570aabf50bfb60c01b612c97565b611b30677880813bf80ac40360c01b612c97565b6000611b3a610753565b9050611b5067f99ffa6a9872163760c01b612c97565b80838c611b5d9190613e5e565b611b679190613ecf565b9550611b7d67f98c2667f3f5e4bd60c01b612c97565b80828c611b8a9190613e5e565b611b949190613ecf565b9450611baa67740504fc3e6b85c660c01b612c97565b611bbe678fccde43e568664260c01b612c97565b611bd267666088657fb0a85760c01b612c97565b89861015611c15576040517f08c379a0000000000000000000000000000000000000000000000000000000008152600401611c0c90614494565b60405180910390fd5b611c2967d8e96b54023d067760c01b612c97565b611c3d672c700e3595fd00c960c01b612c97565b611c5167fc3f3a0df0cae10460c01b612c97565b611c65673cf71badcf31841b60c01b612c97565b88851015611ca8576040517f08c379a0000000000000000000000000000000000000000000000000000000008152600401611c9f90614500565b60405180910390fd5b611cbc67fd9ee104ba505a4960c01b612c97565b611cd0676957fe42395ed32960c01b612c97565b8583611cdc919061433c565b600581905550611cf6673a584def72b1cda460c01b612c97565b8482611d02919061433c565b600681905550505050611d1f67967d823e8bfbbcf060c01b612c97565b611d33677e6eb017ac67521460c01b612c97565b611d3d3389613020565b611d5167c2af0e3535064c1b60c01b612c97565b611d6567fb8ee484d97d5f8e60c01b612c97565b611d79671dd0ff755bf903c460c01b612c97565b8973ffffffffffffffffffffffffffffffffffffffff1663a9059cbb86856040518363ffffffff1660e01b8152600401611db49291906142a7565b6020604051808303816000875af1158015611dd3573d6000803e3d6000fd5b505050506040513d601f19601f82011682018060405250810190611df7919061420e565b611e36576040517f08c379a0000000000000000000000000000000000000000000000000000000008152600401611e2d9061456c565b60405180910390fd5b611e4a67e59ec579a06cc0af60c01b612c97565b611e5e67717c72804f2c6a0c60c01b612c97565b611e7267a7e415fde6bbd92c60c01b612c97565b611e8667e2807269b011405e60c01b612c97565b8873ffffffffffffffffffffffffffffffffffffffff1663a9059cbb86846040518363ffffffff1660e01b8152600401611ec19291906142a7565b6020604051808303816000875af1158015611ee0573d6000803e3d6000fd5b505050506040513d601f19601f82011682018060405250810190611f04919061420e565b611f43576040517f08c379a0000000000000000000000000000000000000000000000000000000008152600401611f3a906145d8565b60405180910390fd5b611f57672ab96768932bc8b960c01b612c97565b611f6b674ee035db04fd67c760c01b612c97565b611f7f678068d3e84dd1322e60c01b612c97565b8473ffffffffffffffffffffffffffffffffffffffff167f1dc8bb69df2b8e91fbdcbfcf93d951b3f0000f085a95fe3f7946d6161439245d84848b604051611fc993929190613cec565b60405180910390a25097509795505050505050565b6000611ff467195eb83e63f8a14260c01b612c97565b61200867e7d6aa034a56bc3960c01b612c97565b61201c67cd209cbd8438074760c01b612c97565b61202582611351565b9050919050565b600080612043672be227a820db355260c01b612c97565b6120576721157ad44d508b4160c01b612c97565b7f0000000000000000000000000000000000000000000000000000000000000000915061208e67e62017cb3c3bc11660c01b612c97565b7f000000000000000000000000000000000000000000000000000000000000000090509091565b60055481565b6000600160008473ffffffffffffffffffffffffffffffffffffffff1673ffffffffffffffffffffffffffffffffffffffff16815260200190815260200160002060008373ffffffffffffffffffffffffffffffffffffffff1673ffffffffffffffffffffffffffffffffffffffff16815260200190815260200160002054905092915050565b600080600061215b676e70dc1458a36ac060c01b612c97565b83612170670220f51bfdd7378560c01b612c97565b612184671011da974d5ab0b460c01b612c97565b61219867402fb3ccfcd0027b60c01b612c97565b6121ac6739328d1521ef77cf60c01b612c97565b428110156121ef576040517f08c379a00000000000000000000000000000000000000000000000000000000081526004016121e690613fac565b60405180910390fd5b61220367d4a7911ac213053260c01b612c97565b61221767466ebd5660f2e1ed60c01b612c97565b61222b6731f084a9c2c08cad60c01b612c97565b61223f67bab8f747ebf02d8d60c01b612c97565b612253675dfe77311c1e27af60c01b612c97565b61226767d3227ca4ed4766d960c01b612c97565b61227b67417fc2e26c18494f60c01b612c97565b6122858c8c612e3d565b6122c4576040517f08c379a00000000000000000000000000000000000000000000000000000000081526004016122bb9061411f565b60405180910390fd5b6122d867969133c43006b7f860c01b612c97565b6122ec6719b50dfa63a0f85960c01b612c97565b612300670ac07bcbc4be3b0360c01b612c97565b61231467a5a2154ab25b519d60c01b612c97565b600073ffffffffffffffffffffffffffffffffffffffff168673ffffffffffffffffffffffffffffffffffffffff1603612383576040517f08c379a000000000000000000000000000000000000000000000000000000000815260040161237a90614084565b60405180910390fd5b61239767f44392468a0c47ab60c01b612c97565b6123ab676089742ccc82a05760c01b612c97565b6123bf674e06129b230274e860c01b612c97565b6123d367cb9e67667ca1382660c01b612c97565b600060055490506123ee673685fb166a402ca460c01b612c97565b61240267c37495b9844909a360c01b612c97565b6000600654905061241d67d42ce20a96c3344560c01b612c97565b612431674482f72054503d4960c01b612c97565b6000821480156124415750600081145b1561248d5761245a67f591112f3e9e744660c01b612c97565b61246e67a1c5e744d06e96c560c01b612c97565b8b9550612485679d5356600a58d84360c01b612c97565b8a9450612715565b6124a167b6338a865f249bde60c01b612c97565b6124b567b06668e421d093c660c01b612c97565b6124c9678d4c6485e121fa0060c01b612c97565b600082828e6124d89190613e5e565b6124e29190613ecf565b90506124f867ace99ed2cf1bd4c860c01b612c97565b61250c67c9261e2a794ee83360c01b612c97565b8b81116125ed5761252767c2e71713ecb4451260c01b612c97565b61253b6724203bf2c33fc61460c01b612c97565b61254f67cf13b278c1e5da7a60c01b612c97565b61256367a7fb703f6ec4af0060c01b612c97565b898110156125a6576040517f08c379a000000000000000000000000000000000000000000000000000000000815260040161259d90614500565b60405180910390fd5b6125ba67be840b77051d023960c01b612c97565b6125ce67193ec577ed23b45760c01b612c97565b8c96506125e567c8b7cc6d2f38169a60c01b612c97565b809550612713565b612601670a94cdda116e202760c01b612c97565b61261567125f7a0c4b5a4d9460c01b612c97565b612629676ffa628f116103de60c01b612c97565b600082848e6126389190613e5e565b6126429190613ecf565b90506126586734c68b4def34624260c01b612c97565b61266c677b960d7bd833df1860c01b612c97565b61268067a21e2b12754de63c60c01b612c97565b8d811115801561269057508b8110155b6126cf576040517f08c379a00000000000000000000000000000000000000000000000000000000081526004016126c690614494565b60405180910390fd5b6126e3678901b6bd5bd0e95e60c01b612c97565b6126f767503da9e93082100360c01b612c97565b80975061270e67cb4d41bceb38d20560c01b612c97565b8c9650505b505b505061272b67d2329841784deb3560c01b612c97565b61273f677cd2abeaef78017460c01b612c97565b61275367f588d037bcba772460c01b612c97565b8b73ffffffffffffffffffffffffffffffffffffffff166323b872dd3330876040518463ffffffff1660e01b8152600401612790939291906141ab565b6020604051808303816000875af11580156127af573d6000803e3d6000fd5b505050506040513d601f19601f820116820180604052508101906127d3919061420e565b612812576040517f08c379a00000000000000000000000000000000000000000000000000000000081526004016128099061456c565b60405180910390fd5b612826673c7e00c2789cff1460c01b612c97565b61283a6775fbd127c1096c8460c01b612c97565b61284e67148884c54308b4a660c01b612c97565b612862676a25c20b70216d2f60c01b612c97565b8a73ffffffffffffffffffffffffffffffffffffffff166323b872dd3330866040518463ffffffff1660e01b815260040161289f939291906141ab565b6020604051808303816000875af11580156128be573d6000803e3d6000fd5b505050506040513d601f19601f820116820180604052508101906128e2919061420e565b612921576040517f08c379a0000000000000000000000000000000000000000000000000000000008152600401612918906145d8565b60405180910390fd5b612935673862e1463abcd49d60c01b612c97565b612949671211a0d4d1e1b71360c01b612c97565b61295d67abdd48955936c0fd60c01b612c97565b61297167c2a43e7f1833c97160c01b612c97565b600061297b610753565b905061299167d5dcb929b72fd1ec60c01b612c97565b6129a567fe5d8e7cbd534bc660c01b612c97565b6103e881036129f1576129c267582135038681120960c01b612c97565b6129d6673c21dc339e5b9ec360c01b612c97565b6129ea84866129e59190613e5e565b6130a2565b9250612aee565b612a05671e4d3dbb4203356160c01b612c97565b612a196756ce3a10389c336560c01b612c97565b612a2d6760c400b7b4f59f5a60c01b612c97565b60006005548287612a3e9190613e5e565b612a489190613ecf565b9050612a5e67efe18579d31fa55060c01b612c97565b612a72676211a9bba1efc00f60c01b612c97565b60006006548387612a839190613e5e565b612a8d9190613ecf565b9050612aa3676a2afe1f97b2d88660c01b612c97565b80821080612ac15750612ac0672d6623b5c09f278f60c01b61300e565b5b8015612add5750612adc676063cdf9e435e29c60c01b613015565b5b612ae75780612ae9565b815b945050505b612b0267ac8301781e93951e60c01b612c97565b612b166793da23fb8904efdf60c01b612c97565b612b2a67924b26628c5c805d60c01b612c97565b60008311612b6d576040517f08c379a0000000000000000000000000000000000000000000000000000000008152600401612b6490614644565b60405180910390fd5b612b8167c36889d5d462fb2c60c01b612c97565b612b9567953954398b3d9e5060c01b612c97565b612ba967e202445ff43db18d60c01b612c97565b612bb38784613261565b50612bc867289c079335658c6160c01b612c97565b8360056000828254612bda9190613e2a565b92505081905550612bf567ad74ab91970dda9e60c01b612c97565b8260066000828254612c079190613e2a565b92505081905550612c2267e59b9cc3c7be03f460c01b612c97565b612c3667865f6158f7a48f3560c01b612c97565b8573ffffffffffffffffffffffffffffffffffffffff167f64b83944e79c3ce8d4c297411de637c3e102d064677aac0c163976ebdcd6f50e858585604051612c8093929190613cec565b60405180910390a250985098509895505050505050565b50565b600033905090565b612caf83838360016132e3565b505050565b6000612cc084846120bb565b90507fffffffffffffffffffffffffffffffffffffffffffffffffffffffffffffffff811015612d435781811015612d33578281836040517ffb8f41b2000000000000000000000000000000000000000000000000000000008152600401612d2a93929190614664565b60405180910390fd5b612d42848484840360006132e3565b5b50505050565b600073ffffffffffffffffffffffffffffffffffffffff168373ffffffffffffffffffffffffffffffffffffffff1603612dbb5760006040517f96c6fd1e000000000000000000000000000000000000000000000000000000008152600401612db2919061395a565b60405180910390fd5b600073ffffffffffffffffffffffffffffffffffffffff168273ffffffffffffffffffffffffffffffffffffffff1603612e2d5760006040517fec442f05000000000000000000000000000000000000000000000000000000008152600401612e24919061395a565b60405180910390fd5b612e388383836134ba565b505050565b6000612e5367d8314452b734251960c01b612c97565b612e676797b64a95f45b26e060c01b612c97565b612e7b6703e4eb8bee27023860c01b612c97565b7f000000000000000000000000000000000000000000000000000000000000000073ffffffffffffffffffffffffffffffffffffffff168373ffffffffffffffffffffffffffffffffffffffff16148015612f2157507f000000000000000000000000000000000000000000000000000000000000000073ffffffffffffffffffffffffffffffffffffffff168273ffffffffffffffffffffffffffffffffffffffff16145b8015612f3d5750612f3c679ad30747ec106da460c01b613015565b5b8061300657507f000000000000000000000000000000000000000000000000000000000000000073ffffffffffffffffffffffffffffffffffffffff168373ffffffffffffffffffffffffffffffffffffffff16148015612fe957507f000000000000000000000000000000000000000000000000000000000000000073ffffffffffffffffffffffffffffffffffffffff168273ffffffffffffffffffffffffffffffffffffffff16145b8015613005575061300467afef1cdf3e038dd960c01b613015565b5b5b905092915050565b6000919050565b600060019050919050565b600073ffffffffffffffffffffffffffffffffffffffff168273ffffffffffffffffffffffffffffffffffffffff16036130925760006040517f96c6fd1e000000000000000000000000000000000000000000000000000000008152600401613089919061395a565b60405180910390fd5b61309e826000836134ba565b5050565b60006130b867980a00ea996e963b60c01b612c97565b6130cc67298d227097d6decc60c01b612c97565b6130e067d9edba24f1a869f360c01b612c97565b60038211156131e5576130fd672069b6b45d47150560c01b612c97565b6131116736fdf7172c60e29560c01b612c97565b81905061312867db5034d5f4455ab960c01b612c97565b61313c67f055775193ae2b2c60c01b612c97565b6000600160028461314d9190613ecf565b6131579190613e2a565b905061316d6799f75dc6c2b5c0bc60c01b612c97565b61318167e8785de4f5e3075160c01b612c97565b5b818110156131df5761319e67aa763460bf62d43660c01b612c97565b8091506131b5677890bf329b8acc3c60c01b612c97565b60028182856131c49190613ecf565b6131ce9190613e2a565b6131d89190613ecf565b9050613182565b5061325c565b6131f96787198f603f658cd560c01b612c97565b61320d6709658fea25a670d060c01b612c97565b600082146132465761322967f871667a0f19c1f460c01b612c97565b61323d672da86b45e072062960c01b612c97565b6001905061325b565b61325a6777bbb620ffade50a60c01b612c97565b5b5b919050565b600073ffffffffffffffffffffffffffffffffffffffff168273ffffffffffffffffffffffffffffffffffffffff16036132d35760006040517fec442f050000000000000000000000000000000000000000000000000000000081526004016132ca919061395a565b60405180910390fd5b6132df600083836134ba565b5050565b600073ffffffffffffffffffffffffffffffffffffffff168473ffffffffffffffffffffffffffffffffffffffff16036133555760006040517fe602df0500000000000000000000000000000000000000000000000000000000815260040161334c919061395a565b60405180910390fd5b600073ffffffffffffffffffffffffffffffffffffffff168373ffffffffffffffffffffffffffffffffffffffff16036133c75760006040517f94280d620000000000000000000000000000000000000000000000000000000081526004016133be919061395a565b60405180910390fd5b81600160008673ffffffffffffffffffffffffffffffffffffffff1673ffffffffffffffffffffffffffffffffffffffff16815260200190815260200160002060008573ffffffffffffffffffffffffffffffffffffffff1673ffffffffffffffffffffffffffffffffffffffff1681526020019081526020016000208190555080156134b4578273ffffffffffffffffffffffffffffffffffffffff168473ffffffffffffffffffffffffffffffffffffffff167f8c5be1e5ebec7d5bd14f71427d1e84f3dd0314c0f7b2291e5b200ac8c7c3b925846040516134ab9190613781565b60405180910390a35b50505050565b600073ffffffffffffffffffffffffffffffffffffffff168373ffffffffffffffffffffffffffffffffffffffff160361350c5780600260008282546135009190613e2a565b925050819055506135df565b60008060008573ffffffffffffffffffffffffffffffffffffffff1673ffffffffffffffffffffffffffffffffffffffff16815260200190815260200160002054905081811015613598578381836040517fe450d38c00000000000000000000000000000000000000000000000000000000815260040161358f93929190614664565b60405180910390fd5b8181036000808673ffffffffffffffffffffffffffffffffffffffff1673ffffffffffffffffffffffffffffffffffffffff16815260200190815260200160002081905550505b600073ffffffffffffffffffffffffffffffffffffffff168273ffffffffffffffffffffffffffffffffffffffff16036136285780600260008282540392505081905550613675565b806000808473ffffffffffffffffffffffffffffffffffffffff1673ffffffffffffffffffffffffffffffffffffffff168152602001908152602001600020600082825401925050819055505b8173ffffffffffffffffffffffffffffffffffffffff168373ffffffffffffffffffffffffffffffffffffffff167fddf252ad1be2c89b69c2b068fc378daa952ba7f163c4a11628f55a4df523b3ef836040516136d29190613781565b60405180910390a3505050565b600080fd5b600080fd5b6000819050919050565b6136fc816136e9565b811461370757600080fd5b50565b600081359050613719816136f3565b92915050565b600080600060608486031215613738576137376136df565b5b60006137468682870161370a565b93505060206137578682870161370a565b92505060406137688682870161370a565b9150509250925092565b61377b816136e9565b82525050565b60006020820190506137966000830184613772565b92915050565b600081519050919050565b600082825260208201905092915050565b60005b838110156137d65780820151818401526020810190506137bb565b60008484015250505050565b6000601f19601f8301169050919050565b60006137fe8261379c565b61380881856137a7565b93506138188185602086016137b8565b613821816137e2565b840191505092915050565b6000602082019050818103600083015261384681846137f3565b905092915050565b60006040820190506138636000830185613772565b6138706020830184613772565b9392505050565b600073ffffffffffffffffffffffffffffffffffffffff82169050919050565b60006138a282613877565b9050919050565b6138b281613897565b81146138bd57600080fd5b50565b6000813590506138cf816138a9565b92915050565b600080604083850312156138ec576138eb6136df565b5b60006138fa858286016138c0565b925050602061390b8582860161370a565b9150509250929050565b60008115159050919050565b61392a81613915565b82525050565b60006020820190506139456000830184613921565b92915050565b61395481613897565b82525050565b600060208201905061396f600083018461394b565b92915050565b60008060006060848603121561398e5761398d6136df565b5b600061399c868287016138c0565b93505060206139ad868287016138c0565b92505060406139be8682870161370a565b9150509250925092565b600060ff82169050919050565b6139de816139c8565b82525050565b60006020820190506139f960008301846139d5565b92915050565b600080fd5b600080fd5b600080fd5b60008083601f840112613a2457613a236139ff565b5b8235905067ffffffffffffffff811115613a4157613a40613a04565b5b602083019150836020820283011115613a5d57613a5c613a09565b5b9250929050565b60008060008060008060a08789031215613a8157613a806136df565b5b6000613a8f89828a0161370a565b9650506020613aa089828a0161370a565b955050604087013567ffffffffffffffff811115613ac157613ac06136e4565b5b613acd89828a01613a0e565b94509450506060613ae089828a016138c0565b9250506080613af189828a0161370a565b9150509295509295509295565b600060208284031215613b1457613b136136df565b5b6000613b22848285016138c0565b91505092915050565b60008060408385031215613b4257613b416136df565b5b6000613b50858286016138c0565b9250506020613b61858286016138c0565b9150509250929050565b600080600080600080600060e0888a031215613b8a57613b896136df565b5b6000613b988a828b016138c0565b9750506020613ba98a828b016138c0565b9650506040613bba8a828b0161370a565b9550506060613bcb8a828b0161370a565b9450506080613bdc8a828b0161370a565b93505060a0613bed8a828b016138c0565b92505060c0613bfe8a828b0161370a565b91505092959891949750929550565b6000604082019050613c22600083018561394b565b613c2f602083018461394b565b9392505050565b600080600080600080600080610100898b031215613c5757613c566136df565b5b6000613c658b828c016138c0565b9850506020613c768b828c016138c0565b9750506040613c878b828c0161370a565b9650506060613c988b828c0161370a565b9550506080613ca98b828c0161370a565b94505060a0613cba8b828c0161370a565b93505060c0613ccb8b828c016138c0565b92505060e0613cdc8b828c0161370a565b9150509295985092959890939650565b6000606082019050613d016000830186613772565b613d0e6020830185613772565b613d1b6040830184613772565b949350505050565b7f496e73756666696369656e7420696e7075740000000000000000000000000000600082015250565b6000613d596012836137a7565b9150613d6482613d23565b602082019050919050565b60006020820190508181036000830152613d8881613d4c565b9050919050565b7f496e73756666696369656e742072657365727665730000000000000000000000600082015250565b6000613dc56015836137a7565b9150613dd082613d8f565b602082019050919050565b60006020820190508181036000830152613df481613db8565b9050919050565b7f4e487b7100000000000000000000000000000000000000000000000000000000600052601160045260246000fd5b6000613e35826136e9565b9150613e40836136e9565b9250828201905080821115613e5857613e57613dfb565b5b92915050565b6000613e69826136e9565b9150613e74836136e9565b9250828202613e82816136e9565b91508282048414831517613e9957613e98613dfb565b5b5092915050565b7f4e487b7100000000000000000000000000000000000000000000000000000000600052601260045260246000fd5b6000613eda826136e9565b9150613ee5836136e9565b925082613ef557613ef4613ea0565b5b828204905092915050565b7f4e487b7100000000000000000000000000000000000000000000000000000000600052602260045260246000fd5b60006002820490506001821680613f4757607f821691505b602082108103613f5a57613f59613f00565b5b50919050565b7f4578706972656400000000000000000000000000000000000000000000000000600082015250565b6000613f966007836137a7565b9150613fa182613f60565b602082019050919050565b60006020820190508181036000830152613fc581613f89565b9050919050565b7f496e76616c696420706174680000000000000000000000000000000000000000600082015250565b6000614002600c836137a7565b915061400d82613fcc565b602082019050919050565b6000602082019050818103600083015261403181613ff5565b9050919050565b7f496e76616c696420726563697069656e74000000000000000000000000000000600082015250565b600061406e6011836137a7565b915061407982614038565b602082019050919050565b6000602082019050818103600083015261409d81614061565b9050919050565b7f4e487b7100000000000000000000000000000000000000000000000000000000600052603260045260246000fd5b7f496e76616c696420706169720000000000000000000000000000000000000000600082015250565b6000614109600c836137a7565b9150614114826140d3565b602082019050919050565b60006020820190508181036000830152614138816140fc565b9050919050565b7f496e73756666696369656e74206f757470757400000000000000000000000000600082015250565b60006141756013836137a7565b91506141808261413f565b602082019050919050565b600060208201905081810360008301526141a481614168565b9050919050565b60006060820190506141c0600083018661394b565b6141cd602083018561394b565b6141da6040830184613772565b949350505050565b6141eb81613915565b81146141f657600080fd5b50565b600081519050614208816141e2565b92915050565b600060208284031215614224576142236136df565b5b6000614232848285016141f9565b91505092915050565b7f496e707574207472616e73666572206661696c00000000000000000000000000600082015250565b60006142716013836137a7565b915061427c8261423b565b602082019050919050565b600060208201905081810360008301526142a081614264565b9050919050565b60006040820190506142bc600083018561394b565b6142c96020830184613772565b9392505050565b7f4f7574707574207472616e73666572206661696c000000000000000000000000600082015250565b60006143066014836137a7565b9150614311826142d0565b602082019050919050565b60006020820190508181036000830152614335816142f9565b9050919050565b6000614347826136e9565b9150614352836136e9565b925082820390508181111561436a57614369613dfb565b5b92915050565b7f5a65726f206c6971756964697479000000000000000000000000000000000000600082015250565b60006143a6600e836137a7565b91506143b182614370565b602082019050919050565b600060208201905081810360008301526143d581614399565b9050919050565b7f496e73756666696369656e742062616c616e6365000000000000000000000000600082015250565b60006144126014836137a7565b915061441d826143dc565b602082019050919050565b6000602082019050818103600083015261444181614405565b9050919050565b7f496e73756666696369656e742041000000000000000000000000000000000000600082015250565b600061447e600e836137a7565b915061448982614448565b602082019050919050565b600060208201905081810360008301526144ad81614471565b9050919050565b7f496e73756666696369656e742042000000000000000000000000000000000000600082015250565b60006144ea600e836137a7565b91506144f5826144b4565b602082019050919050565b60006020820190508181036000830152614519816144dd565b9050919050565b7f5472616e736665722041206661696c0000000000000000000000000000000000600082015250565b6000614556600f836137a7565b915061456182614520565b602082019050919050565b6000602082019050818103600083015261458581614549565b9050919050565b7f5472616e736665722042206661696c0000000000000000000000000000000000600082015250565b60006145c2600f836137a7565b91506145cd8261458c565b602082019050919050565b600060208201905081810360008301526145f1816145b5565b9050919050565b7f496e73756666696369656e74206c697175696469747900000000000000000000600082015250565b600061462e6016836137a7565b9150614639826145f8565b602082019050919050565b6000602082019050818103600083015261465d81614621565b9050919050565b6000606082019050614679600083018661394b565b6146866020830185613772565b6146936040830184613772565b94935050505056fea2646970667358221220e9cff1c8ce083e5c12118518ca7c7306568299706edc54f7c160e8142248da7064736f6c634300081c0033",
  "linkReferences": {},
  "deployedLinkReferences": {}
}