{"contracts/SimpleSwap.sol":{"SimpleSwap":{"abi":[{"inputs":[{"internalType":"address","name":"_tokenA","type":"address"},{"internalType":"address","name":"_tokenB","type":"address"}],"stateMutability":"nonpayable","type":"constructor"},{"inputs":[{"internalType":"address","name":"spender","type":"address"},{"internalType":"uint256","name":"allowance","type":"uint256"},{"internalType":"uint256","name":"needed","type":"uint256"}],"name":"ERC20InsufficientAllowance","type":"error"},{"inputs":[{"internalType":"address","name":"sender","type":"address"},{"internalType":"uint256","name":"balance","type":"uint256"},{"internalType":"uint256","name":"needed","type":"uint256"}],"name":"ERC20InsufficientBalance","type":"error"},{"inputs":[{"internalType":"address","name":"approver","type":"address"}],"name":"ERC20InvalidApprover","type":"error"},{"inputs":[{"internalType":"address","name":"receiver","type":"address"}],"name":"ERC20InvalidReceiver","type":"error"},{"inputs":[{"internalType":"address","name":"sender","type":"address"}],"name":"ERC20InvalidSender","type":"error"},{"inputs":[{"internalType":"address","name":"spender","type":"address"}],"name":"ERC20InvalidSpender","type":"error"},{"anonymous":false,"inputs":[{"indexed":true,"internalType":"address","name":"owner","type":"address"},{"indexed":true,"internalType":"address","name":"spender","type":"address"},{"indexed":false,"internalType":"uint256","name":"value","type":"uint256"}],"name":"Approval","type":"event"},{"anonymous":false,"inputs":[{"indexed":true,"internalType":"address","name":"provider","type":"address"},{"indexed":false,"internalType":"uint256","name":"amountA","type":"uint256"},{"indexed":false,"internalType":"uint256","name":"amountB","type":"uint256"},{"indexed":false,"internalType":"uint256","name":"liquidity","type":"uint256"}],"name":"LiquidityAdded","type":"event"},{"anonymous":false,"inputs":[{"indexed":true,"internalType":"address","name":"provider","type":"address"},{"indexed":false,"internalType":"uint256","name":"amountA","type":"uint256"},{"indexed":false,"internalType":"uint256","name":"amountB","type":"uint256"},{"indexed":false,"internalType":"uint256","name":"liquidity","type":"uint256"}],"name":"LiquidityRemoved","type":"event"},{"anonymous":false,"inputs":[{"indexed":true,"internalType":"address","name":"user","type":"address"},{"indexed":true,"internalType":"address","name":"tokenIn","type":"address"},{"indexed":true,"internalType":"address","name":"tokenOut","type":"address"},{"indexed":false,"internalType":"uint256","name":"amountIn","type":"uint256"},{"indexed":false,"internalType":"uint256","name":"amountOut","type":"uint256"}],"name":"TokensSwapped","type":"event"},{"anonymous":false,"inputs":[{"indexed":true,"internalType":"address","name":"from","type":"address"},{"indexed":true,"internalType":"address","name":"to","type":"address"},{"indexed":false,"internalType":"uint256","name":"value","type":"uint256"}],"name":"Transfer","type":"event"},{"inputs":[{"internalType":"address","name":"_tokenA","type":"address"},{"internalType":"address","name":"_tokenB","type":"address"},{"internalType":"uint256","name":"amountADesired","type":"uint256"},{"internalType":"uint256","name":"amountBDesired","type":"uint256"},{"internalType":"uint256","name":"amountAMin","type":"uint256"},{"internalType":"uint256","name":"amountBMin","type":"uint256"},{"internalType":"address","name":"to","type":"address"},{"internalType":"uint256","name":"deadline","type":"uint256"}],"name":"addLiquidity","outputs":[{"internalType":"uint256","name":"amountA","type":"uint256"},{"internalType":"uint256","name":"amountB","type":"uint256"},{"internalType":"uint256","name":"liquidity","type":"uint256"}],"stateMutability":"nonpayable","type":"function"},{"inputs":[{"internalType":"address","name":"owner","type":"address"},{"internalType":"address","name":"spender","type":"address"}],"name":"allowance","outputs":[{"internalType":"uint256","name":"","type":"uint256"}],"stateMutability":"view","type":"function"},{"inputs":[{"internalType":"address","name":"spender","type":"address"},{"internalType":"uint256","name":"value","type":"uint256"}],"name":"approve","outputs":[{"internalType":"bool","name":"","type":"bool"}],"stateMutability":"nonpayable","type":"function"},{"inputs":[{"internalType":"address","name":"account","type":"address"}],"name":"balanceOf","outputs":[{"internalType":"uint256","name":"","type":"uint256"}],"stateMutability":"view","type":"function"},{"inputs":[],"name":"decimals","outputs":[{"internalType":"uint8","name":"","type":"uint8"}],"stateMutability":"view","type":"function"},{"inputs":[{"internalType":"uint256","name":"amountIn","type":"uint256"},{"internalType":"uint256","name":"reserveIn","type":"uint256"},{"internalType":"uint256","name":"reserveOut","type":"uint256"}],"name":"getAmountOut","outputs":[{"internalType":"uint256","name":"amountOut","type":"uint256"}],"stateMutability":"pure","type":"function"},{"inputs":[{"internalType":"address","name":"user","type":"address"}],"name":"getLiquidityShares","outputs":[{"internalType":"uint256","name":"shares","type":"uint256"}],"stateMutability":"view","type":"function"},{"inputs":[{"internalType":"address","name":"_tokenA","type":"address"},{"internalType":"address","name":"_tokenB","type":"address"}],"name":"getPrice","outputs":[{"internalType":"uint256","name":"price","type":"uint256"}],"stateMutability":"view","type":"function"},{"inputs":[],"name":"getReserves","outputs":[{"internalType":"uint256","name":"_reserveA","type":"uint256"},{"internalType":"uint256","name":"_reserveB","type":"uint256"}],"stateMutability":"view","type":"function"},{"inputs":[],"name":"getSupportedTokens","outputs":[{"internalType":"address","name":"_tokenA","type":"address"},{"internalType":"address","name":"_tokenB","type":"address"}],"stateMutability":"view","type":"function"},{"inputs":[],"name":"getTotalLiquidity","outputs":[{"internalType":"uint256","name":"total","type":"uint256"}],"stateMutability":"view","type":"function"},{"inputs":[],"name":"name","outputs":[{"internalType":"string","name":"","type":"string"}],"stateMutability":"view","type":"function"},{"inputs":[{"internalType":"address","name":"_tokenA","type":"address"},{"internalType":"address","name":"_tokenB","type":"address"},{"internalType":"uint256","name":"liquidity","type":"uint256"},{"internalType":"uint256","name":"amountAMin","type":"uint256"},{"internalType":"uint256","name":"amountBMin","type":"uint256"},{"internalType":"address","name":"to","type":"address"},{"internalType":"uint256","name":"deadline","type":"uint256"}],"name":"removeLiquidity","outputs":[{"internalType":"uint256","name":"amountA","type":"uint256"},{"internalType":"uint256","name":"amountB","type":"uint256"}],"stateMutability":"nonpayable","type":"function"},{"inputs":[],"name":"reserveA","outputs":[{"internalType":"uint256","name":"","type":"uint256"}],"stateMutability":"view","type":"function"},{"inputs":[],"name":"reserveB","outputs":[{"internalType":"uint256","name":"","type":"uint256"}],"stateMutability":"view","type":"function"},{"inputs":[{"internalType":"uint256","name":"amountIn","type":"uint256"},{"internalType":"uint256","name":"amountOutMin","type":"uint256"},{"internalType":"address[]","name":"path","type":"address[]"},{"internalType":"address","name":"to","type":"address"},{"internalType":"uint256","name":"deadline","type":"uint256"}],"name":"swapExactTokensForTokens","outputs":[],"stateMutability":"nonpayable","type":"function"},{"inputs":[],"name":"symbol","outputs":[{"internalType":"string","name":"","type":"string"}],"stateMutability":"view","type":"function"},{"inputs":[],"name":"tokenA","outputs":[{"internalType":"address","name":"","type":"address"}],"stateMutability":"view","type":"function"},{"inputs":[],"name":"tokenB","outputs":[{"internalType":"address","name":"","type":"address"}],"stateMutability":"view","type":"function"},{"inputs":[],"name":"totalSupply","outputs":[{"internalType":"uint256","name":"","type":"uint256"}],"stateMutability":"view","type":"function"},{"inputs":[{"internalType":"address","name":"to","type":"address"},{"internalType":"uint256","name":"value","type":"uint256"}],"name":"transfer","outputs":[{"internalType":"bool","name":"","type":"bool"}],"stateMutability":"nonpayable","type":"function"},{"inputs":[{"internalType":"address","name":"from","type":"address"},{"internalType":"address","name":"to","type":"address"},{"internalType":"uint256","name":"value","type":"uint256"}],"name":"transferFrom","outputs":[{"internalType":"bool","name":"","type":"bool"}],"stateMutability":"nonpayable","type":"function"}],"evm":{"bytecode":{"linkReferences":{},"object":"60c060405234801561001057600080fd5b50604051615332380380615332833981810160405281019061003291906106bd565b6040518060400160405280601a81526020017f53696d706c6553776170204c697175696469747920546f6b656e0000000000008152506040518060400160405280600481526020017f53534c540000000000000000000000000000000000000000000000000000000081525081600390816100ad919061094d565b5080600490816100bd919061094d565b5050506100da67e238392c10c9bd8960c01b6103aa60201b60201c565b6100f4679c8b673d58d53c9d60c01b6103aa60201b60201c565b61010e674ca4f7cdb3430c5f60c01b6103aa60201b60201c565b610128678aeb89302df144b360c01b6103aa60201b60201c565b600073ffffffffffffffffffffffffffffffffffffffff168273ffffffffffffffffffffffffffffffffffffffff16141580156101925750600073ffffffffffffffffffffffffffffffffffffffff168173ffffffffffffffffffffffffffffffffffffffff1614155b6101d1576040517f08c379a00000000000000000000000000000000000000000000000000000000081526004016101c890610a7c565b60405180910390fd5b6101eb6702c2a442cb71d37360c01b6103aa60201b60201c565b61020567015224490998627d60c01b6103aa60201b60201c565b61021f677ea84308817e403460c01b6103aa60201b60201c565b610239679ca722241e681c5b60c01b6103aa60201b60201c565b8073ffffffffffffffffffffffffffffffffffffffff168273ffffffffffffffffffffffffffffffffffffffff16036102a7576040517f08c379a000000000000000000000000000000000000000000000000000000000815260040161029e90610ae8565b60405180910390fd5b6102c167f06a0eaeef03f48760c01b6103aa60201b60201c565b6102db677de4798ef44f082560c01b6103aa60201b60201c565b8173ffffffffffffffffffffffffffffffffffffffff1660808173ffffffffffffffffffffffffffffffffffffffff1681525050610329676f0d3f5ba5d6fab460c01b6103aa60201b60201c565b8073ffffffffffffffffffffffffffffffffffffffff1660a08173ffffffffffffffffffffffffffffffffffffffff1681525050610377674b20e72ff213bfa360c01b6103aa60201b60201c565b610391674068f18d0be755d160c01b6103aa60201b60201c565b6103a3306103e86103ad60201b60201c565b5050610bf6565b50565b600073ffffffffffffffffffffffffffffffffffffffff168273ffffffffffffffffffffffffffffffffffffffff160361041f5760006040517fec442f050000000000000000000000000000000000000000000000000000000081526004016104169190610b17565b60405180910390fd5b6104316000838361043560201b60201c565b5050565b600073ffffffffffffffffffffffffffffffffffffffff168373ffffffffffffffffffffffffffffffffffffffff160361048757806002600082825461047b9190610b61565b9250508190555061055a565b60008060008573ffffffffffffffffffffffffffffffffffffffff1673ffffffffffffffffffffffffffffffffffffffff16815260200190815260200160002054905081811015610513578381836040517fe450d38c00000000000000000000000000000000000000000000000000000000815260040161050a93929190610ba4565b60405180910390fd5b8181036000808673ffffffffffffffffffffffffffffffffffffffff1673ffffffffffffffffffffffffffffffffffffffff16815260200190815260200160002081905550505b600073ffffffffffffffffffffffffffffffffffffffff168273ffffffffffffffffffffffffffffffffffffffff16036105a357806002600082825403925050819055506105f0565b806000808473ffffffffffffffffffffffffffffffffffffffff1673ffffffffffffffffffffffffffffffffffffffff168152602001908152602001600020600082825401925050819055505b8173ffffffffffffffffffffffffffffffffffffffff168373ffffffffffffffffffffffffffffffffffffffff167fddf252ad1be2c89b69c2b068fc378daa952ba7f163c4a11628f55a4df523b3ef8360405161064d9190610bdb565b60405180910390a3505050565b600080fd5b600073ffffffffffffffffffffffffffffffffffffffff82169050919050565b600061068a8261065f565b9050919050565b61069a8161067f565b81146106a557600080fd5b50565b6000815190506106b781610691565b92915050565b600080604083850312156106d4576106d361065a565b5b60006106e2858286016106a8565b92505060206106f3858286016106a8565b9150509250929050565b600081519050919050565b7f4e487b7100000000000000000000000000000000000000000000000000000000600052604160045260246000fd5b7f4e487b7100000000000000000000000000000000000000000000000000000000600052602260045260246000fd5b6000600282049050600182168061077e57607f821691505b60208210810361079157610790610737565b5b50919050565b60008190508160005260206000209050919050565b60006020601f8301049050919050565b600082821b905092915050565b6000600883026107f97fffffffffffffffffffffffffffffffffffffffffffffffffffffffffffffffff826107bc565b61080386836107bc565b95508019841693508086168417925050509392505050565b6000819050919050565b6000819050919050565b600061084a6108456108408461081b565b610825565b61081b565b9050919050565b6000819050919050565b6108648361082f565b61087861087082610851565b8484546107c9565b825550505050565b600090565b61088d610880565b61089881848461085b565b505050565b5b818110156108bc576108b1600082610885565b60018101905061089e565b5050565b601f821115610901576108d281610797565b6108db846107ac565b810160208510156108ea578190505b6108fe6108f6856107ac565b83018261089d565b50505b505050565b600082821c905092915050565b600061092460001984600802610906565b1980831691505092915050565b600061093d8383610913565b9150826002028217905092915050565b610956826106fd565b67ffffffffffffffff81111561096f5761096e610708565b5b6109798254610766565b6109848282856108c0565b600060209050601f8311600181146109b757600084156109a5578287015190505b6109af8582610931565b865550610a17565b601f1984166109c586610797565b60005b828110156109ed578489015182556001820191506020850194506020810190506109c8565b86831015610a0a5784890151610a06601f891682610913565b8355505b6001600288020188555050505b505050505050565b600082825260208201905092915050565b7f496e76616c696420746f6b656e73000000000000000000000000000000000000600082015250565b6000610a66600e83610a1f565b9150610a7182610a30565b602082019050919050565b60006020820190508181036000830152610a9581610a59565b9050919050565b7f53616d6520746f6b656e73000000000000000000000000000000000000000000600082015250565b6000610ad2600b83610a1f565b9150610add82610a9c565b602082019050919050565b60006020820190508181036000830152610b0181610ac5565b9050919050565b610b118161067f565b82525050565b6000602082019050610b2c6000830184610b08565b92915050565b7f4e487b7100000000000000000000000000000000000000000000000000000000600052601160045260246000fd5b6000610b6c8261081b565b9150610b778361081b565b9250828201905080821115610b8f57610b8e610b32565b5b92915050565b610b9e8161081b565b82525050565b6000606082019050610bb96000830186610b08565b610bc66020830185610b95565b610bd36040830184610b95565b949350505050565b6000602082019050610bf06000830184610b95565b92915050565b60805160a0516146d1610c616000396000818161132f0152818161209001528181612ed30152612f4501526000818161073101528181610be401528181610cca015281816110d2015281816116240152818161205901528181612e7d0152612f9b01526146d16000f3fe608060405234801561001057600080fd5b50600436106101425760003560e01c80635f64b55b116100b8578063baa2abde1161007c578063baa2abde14610392578063c8c0526e146103c3578063d3c7c2c7146103f3578063dc5fa6c514610412578063dd62ed3e14610430578063e8e337001461046057610142565b80635f64b55b146102c657806370a08231146102e457806395d89b4114610314578063a9059cbb14610332578063ac41865a1461036257610142565b806318160ddd1161010a57806318160ddd1461020257806319e36f3b1461022057806323b872dd1461023e578063313ce5671461026e57806335c7e9251461028c57806338ed1739146102aa57610142565b8063054d50d41461014757806306fdde03146101775780630902f1ac14610195578063095ea7b3146101b45780630fc63d10146101e4575b600080fd5b610161600480360381019061015c919061371f565b610492565b60405161016e9190613781565b60405180910390f35b61017f61062d565b60405161018c919061382c565b60405180910390f35b61019d6106bf565b6040516101ab92919061384e565b60405180910390f35b6101ce60048036038101906101c991906138d5565b61070c565b6040516101db9190613930565b60405180910390f35b6101ec61072f565b6040516101f9919061395a565b60405180910390f35b61020a610753565b6040516102179190613781565b60405180910390f35b61022861075d565b6040516102359190613781565b60405180910390f35b61025860048036038101906102539190613975565b610763565b6040516102659190613930565b60405180910390f35b610276610792565b60405161028391906139e4565b60405180910390f35b61029461079b565b6040516102a19190613781565b60405180910390f35b6102c460048036038101906102bf9190613a64565b6107e6565b005b6102ce61132d565b6040516102db919061395a565b60405180910390f35b6102fe60048036038101906102f99190613afe565b611351565b60405161030b9190613781565b60405180910390f35b61031c611399565b604051610329919061382c565b60405180910390f35b61034c600480360381019061034791906138d5565b61142b565b6040516103599190613930565b60405180910390f35b61037c60048036038101906103779190613b2b565b61144e565b6040516103899190613781565b60405180910390f35b6103ac60048036038101906103a79190613b6b565b611715565b6040516103ba92919061384e565b60405180910390f35b6103dd60048036038101906103d89190613afe565b611fde565b6040516103ea9190613781565b60405180910390f35b6103fb61202c565b604051610409929190613c0d565b60405180910390f35b61041a6120b5565b6040516104279190613781565b60405180910390f35b61044a60048036038101906104459190613b2b565b6120bb565b6040516104579190613781565b60405180910390f35b61047a60048036038101906104759190613c36565b612142565b60405161048993929190613cec565b60405180910390f35b60006104a86745885852d40e0dc160c01b612c97565b6104bc67cc406348bd465fac60c01b612c97565b6104d06777dd3bd7d3f6af5860c01b612c97565b6104e4671711d17ae5985f2c60c01b612c97565b60008411610527576040517f08c379a000000000000000000000000000000000000000000000000000000000815260040161051e90613d6f565b60405180910390fd5b61053b67e6749f6a3fbc39f460c01b612c97565b61054f67661748f238fa5dff60c01b612c97565b610563678a7a73713157f36960c01b612c97565b61057767db3f6f027e7a673b60c01b612c97565b6000831180156105875750600082115b6105c6576040517f08c379a00000000000000000000000000000000000000000000000000000000081526004016105bd90613ddb565b60405180910390fd5b6105da677f57c74acfbe6a3660c01b612c97565b6105ee67b787cc43f950d3c760c01b612c97565b6106026709665f6b43620d1360c01b612c97565b838361060e9190613e2a565b828561061a9190613e5e565b6106249190613ecf565b90509392505050565b60606003805461063c90613f2f565b80601f016020809104026020016040519081016040528092919081815260200182805461066890613f2f565b80156106b55780601f1061068a576101008083540402835291602001916106b5565b820191906000526020600020905b81548152906001019060200180831161069857829003601f168201915b5050505050905090565b6000806106d6677ec1b4f51cb127c760c01b612c97565b6106ea671b5ecad937f3498a60c01b612c97565b6005549150610703675047aef63bb3c9b260c01b612c97565b60065490509091565b600080610717612c9a565b9050610724818585612ca2565b600191505092915050565b7f000000000000000000000000000000000000000000000000000000000000000081565b6000600254905090565b60065481565b60008061076e612c9a565b905061077b858285612cb4565b610786858585612d49565b60019150509392505050565b60006012905090565b60006107b167944ce4a2afd85d0a60c01b612c97565b6107c5679635dc225399734a60c01b612c97565b6107d9679ffe2682a19c116160c01b612c97565b6107e1610753565b905090565b6107fa67b8a82ab07722dc7b60c01b612c97565b8061080f670220f51bfdd7378560c01b612c97565b610823671011da974d5ab0b460c01b612c97565b61083767402fb3ccfcd0027b60c01b612c97565b61084b6739328d1521ef77cf60c01b612c97565b4281101561088e576040517f08c379a000000000000000000000000000000000000000000000000000000000815260040161088590613fac565b60405180910390fd5b6108a267d4a7911ac213053260c01b612c97565b6108b667466ebd5660f2e1ed60c01b612c97565b6108ca67d447faafe09cdedd60c01b612c97565b6108de67c48bd5e7ada1af6660c01b612c97565b6108f26752ad19620a8674a760c01b612c97565b61090667833d6125c2f57e8460c01b612c97565b61091a67091a4b3a25f0913b60c01b612c97565b60028585905014610960576040517f08c379a000000000000000000000000000000000000000000000000000000000815260040161095790614018565b60405180910390fd5b610974678c2c2a654258075d60c01b612c97565b6109886773165956ac3ddc4e60c01b612c97565b61099c673113a0fa857e9a9460c01b612c97565b6109b067ce11df74bf55e1fe60c01b612c97565b600073ffffffffffffffffffffffffffffffffffffffff168373ffffffffffffffffffffffffffffffffffffffff1603610a1f576040517f08c379a0000000000000000000000000000000000000000000000000000000008152600401610a1690614084565b60405180910390fd5b610a3367386dc0d66d66e7fd60c01b612c97565b610a47674ba5a10539d7984060c01b612c97565b610a5b67b5ac3ce6e73edb6360c01b612c97565b610a6f67af9d6cd5e74dfd2760c01b612c97565b610ac985856000818110610a8657610a856140a4565b5b9050602002016020810190610a9b9190613afe565b86866001818110610aaf57610aae6140a4565b5b9050602002016020810190610ac49190613afe565b612e3d565b610b08576040517f08c379a0000000000000000000000000000000000000000000000000000000008152600401610aff9061411f565b60405180910390fd5b610b1c670477bb8097d8909560c01b612c97565b610b30671d9b6894edc28e5960c01b612c97565b610b446709dcad50f5bc88db60c01b612c97565b6000610b5a671febc40f1222013360c01b612c97565b610b6e67eccf2e8d6c64c47560c01b612c97565b610b82674512e0f15d61725360c01b612c97565b60006005549050610b9d671b2d97f0f9c35afd60c01b612c97565b610bb1670785e865ec658bb060c01b612c97565b60006006549050610bcc67ce6de89859a8880560c01b612c97565b610be067b7dc9400c6ab881860c01b612c97565b60007f000000000000000000000000000000000000000000000000000000000000000073ffffffffffffffffffffffffffffffffffffffff1689896000818110610c2d57610c2c6140a4565b5b9050602002016020810190610c429190613afe565b73ffffffffffffffffffffffffffffffffffffffff161480610c745750610c736702102ab7f04c9b9d60c01b61300e565b5b8015610c905750610c8f673e390068972bbbb360c01b613015565b5b610c9a5781610c9c565b825b9050610cb26775f6c4eba11ddf9660c01b612c97565b610cc6671b180d3326093a5d60c01b612c97565b60007f000000000000000000000000000000000000000000000000000000000000000073ffffffffffffffffffffffffffffffffffffffff168a8a6001818110610d1357610d126140a4565b5b9050602002016020810190610d289190613afe565b73ffffffffffffffffffffffffffffffffffffffff161480610d5a5750610d596768855d627bc5584160c01b61300e565b5b8015610d765750610d7567246466bd4f96db9060c01b613015565b5b610d805782610d82565b835b9050610d98673a2e3c130bccce4160c01b612c97565b610da38c8383610492565b9450610db967e5cde70bf9f6c46660c01b612c97565b610dcd67b370cf4210ceb4b860c01b612c97565b610de167dd6294429b95179060c01b612c97565b8a851015610e24576040517f08c379a0000000000000000000000000000000000000000000000000000000008152600401610e1b9061418b565b60405180910390fd5b610e386734a1c5f6b98d9c8260c01b612c97565b50505050610e5067d043a90d3a9b116160c01b612c97565b610e64679ea5100889277c3a60c01b612c97565b610e78678063dcec5ab7e34560c01b612c97565b85856000818110610e8c57610e8b6140a4565b5b9050602002016020810190610ea19190613afe565b73ffffffffffffffffffffffffffffffffffffffff166323b872dd33308b6040518463ffffffff1660e01b8152600401610edd939291906141ab565b6020604051808303816000875af1158015610efc573d6000803e3d6000fd5b505050506040513d601f19601f82011682018060405250810190610f20919061420e565b610f5f576040517f08c379a0000000000000000000000000000000000000000000000000000000008152600401610f5690614287565b60405180910390fd5b610f7367ea2da7b59c9a5a3160c01b612c97565b610f87677eca0b5582bc372860c01b612c97565b610f9b6759bcefc16cee280160c01b612c97565b610faf672d0fe6d410b6607460c01b612c97565b85856001818110610fc357610fc26140a4565b5b9050602002016020810190610fd89190613afe565b73ffffffffffffffffffffffffffffffffffffffff1663a9059cbb85836040518363ffffffff1660e01b81526004016110129291906142a7565b6020604051808303816000875af1158015611031573d6000803e3d6000fd5b505050506040513d601f19601f82011682018060405250810190611055919061420e565b611094576040517f08c379a000000000000000000000000000000000000000000000000000000000815260040161108b9061431c565b60405180910390fd5b6110a867d098083f0684762360c01b612c97565b6110bc674f710a8d96994fbe60c01b612c97565b6110d0670ef9c22c6606210060c01b612c97565b7f000000000000000000000000000000000000000000000000000000000000000073ffffffffffffffffffffffffffffffffffffffff168686600081811061111b5761111a6140a4565b5b90506020020160208101906111309190613afe565b73ffffffffffffffffffffffffffffffffffffffff16036111be5761115f679533e1fa37053f5860c01b612c97565b61117367eae41748bb8acc2d60c01b612c97565b87600560008282546111859190613e2a565b925050819055506111a067cfc2b99594a5f67460c01b612c97565b80600660008282546111b2919061433c565b9250508190555061122d565b6111d267fba55ded49e6153760c01b612c97565b6111e667bff23c8781ec5c4f60c01b612c97565b87600660008282546111f89190613e2a565b9250508190555061121367a10ce20c8fb5a1b160c01b612c97565b8060056000828254611225919061433c565b925050819055505b6112416752cc1cd9e179dc0760c01b612c97565b61125567a062e425421b2d2060c01b612c97565b85856001818110611269576112686140a4565b5b905060200201602081019061127e9190613afe565b73ffffffffffffffffffffffffffffffffffffffff16868660008181106112a8576112a76140a4565b5b90506020020160208101906112bd9190613afe565b73ffffffffffffffffffffffffffffffffffffffff163373ffffffffffffffffffffffffffffffffffffffff167fad56699d0f375866eb895ed27203058a36a713382aaded78eb6b67da266d43328b8560405161131b92919061384e565b60405180910390a45050505050505050565b7f000000000000000000000000000000000000000000000000000000000000000081565b60008060008373ffffffffffffffffffffffffffffffffffffffff1673ffffffffffffffffffffffffffffffffffffffff168152602001908152602001600020549050919050565b6060600480546113a890613f2f565b80601f01602080910402602001604051908101604052809291908181526020018280546113d490613f2f565b80156114215780601f106113f657610100808354040283529160200191611421565b820191906000526020600020905b81548152906001019060200180831161140457829003601f168201915b5050505050905090565b600080611436612c9a565b9050611443818585612d49565b600191505092915050565b600061146467b10c68e0852a3fd360c01b612c97565b6114786799c424714941161a60c01b612c97565b61148c67dccc5bed7a6193b660c01b612c97565b6114a0677b9262d0b879a51360c01b612c97565b6114aa8383612e3d565b6114e9576040517f08c379a00000000000000000000000000000000000000000000000000000000081526004016114e09061411f565b60405180910390fd5b6114fd67f6e2dd36a6e0ffe860c01b612c97565b611511670d46c48a4c0eb12b60c01b612c97565b611525676c177992b6fc16cd60c01b612c97565b6000600554905061154067f5fe3fe7d92f870e60c01b612c97565b61155467757677c9c9fde72f60c01b612c97565b6000600654905061156f675252d3ba98b91ff360c01b612c97565b611583673057a5091d54875260c01b612c97565b6115976765b05d161249218660c01b612c97565b6000821180156115a75750600081115b6115e6576040517f08c379a00000000000000000000000000000000000000000000000000000000081526004016115dd90613ddb565b60405180910390fd5b6115fa67c428a865c3a1885e60c01b612c97565b61160e672845e2a7b739293660c01b612c97565b61162267aa7dc71fa7f5df6660c01b612c97565b7f000000000000000000000000000000000000000000000000000000000000000073ffffffffffffffffffffffffffffffffffffffff168573ffffffffffffffffffffffffffffffffffffffff16036116c35761168967808cacdfd21de30160c01b612c97565b61169d6747bbfb5e0bf2dd9c60c01b612c97565b81670de0b6b3a7640000826116b29190613e5e565b6116bc9190613ecf565b925061170d565b6116d7675661fa2b0606971660c01b612c97565b6116eb67d5cf8c555ffe680560c01b612c97565b80670de0b6b3a7640000836117009190613e5e565b61170a9190613ecf565b92505b505092915050565b60008061172c67a04a860517f310d060c01b612c97565b82611741670220f51bfdd7378560c01b612c97565b611755671011da974d5ab0b460c01b612c97565b61176967402fb3ccfcd0027b60c01b612c97565b61177d6739328d1521ef77cf60c01b612c97565b428110156117c0576040517f08c379a00000000000000000000000000000000000000000000000000000000081526004016117b790613fac565b60405180910390fd5b6117d467d4a7911ac213053260c01b612c97565b6117e867466ebd5660f2e1ed60c01b612c97565b6117fc677519de243b02e7ef60c01b612c97565b6118106768e33c7e1998d02b60c01b612c97565b61182467cb7c4c132130228b60c01b612c97565b61183867774b03f489da324960c01b612c97565b61184c67e6c74ac08b1f6c9a60c01b612c97565b6118568a8a612e3d565b611895576040517f08c379a000000000000000000000000000000000000000000000000000000000815260040161188c9061411f565b60405180910390fd5b6118a9678ec81abdf6709dbb60c01b612c97565b6118bd67cf0cbf8bb4d05e2e60c01b612c97565b6118d167f9b30a80a8946b8160c01b612c97565b6118e56759a459448a07d69b60c01b612c97565b600073ffffffffffffffffffffffffffffffffffffffff168573ffffffffffffffffffffffffffffffffffffffff1603611954576040517f08c379a000000000000000000000000000000000000000000000000000000000815260040161194b90614084565b60405180910390fd5b61196867b432826016ce11a360c01b612c97565b61197c6755a22155eb1f59f560c01b612c97565b611990675ea65edf6c1f529560c01b612c97565b6119a467d138957a3f7a167760c01b612c97565b600088116119e7576040517f08c379a00000000000000000000000000000000000000000000000000000000081526004016119de906143bc565b60405180910390fd5b6119fb672c6fb62944d8b7e760c01b612c97565b611a0f670bd455ccbf23af0160c01b612c97565b611a2367bd789ba5334a0d4060c01b612c97565b611a3767b7f7d206dda7c52d60c01b612c97565b87611a4133611351565b1015611a82576040517f08c379a0000000000000000000000000000000000000000000000000000000008152600401611a7990614428565b60405180910390fd5b611a966788f645947e72183160c01b612c97565b611aaa679d3da8bff63aa56960c01b612c97565b611abe674b7c531f0c7bdbf360c01b612c97565b611ad2672c2e8ea30f9f666e60c01b612c97565b60006005549050611aed6731319abbed789a3760c01b612c97565b611b0167bb70bbbb3fbff0fd60c01b612c97565b60006006549050611b1c67cdfa570aabf50bfb60c01b612c97565b611b30677880813bf80ac40360c01b612c97565b6000611b3a610753565b9050611b5067f99ffa6a9872163760c01b612c97565b80838c611b5d9190613e5e565b611b679190613ecf565b9550611b7d67f98c2667f3f5e4bd60c01b612c97565b80828c611b8a9190613e5e565b611b949190613ecf565b9450611baa67740504fc3e6b85c660c01b612c97565b611bbe678fccde43e568664260c01b612c97565b611bd267666088657fb0a85760c01b612c97565b89861015611c15576040517f08c379a0000000000000000000000000000000000000000000000000000000008152600401611c0c90614494565b60405180910390fd5b611c2967d8e96b54023d067760c01b612c97565b611c3d672c700e3595fd00c960c01b612c97565b611c5167fc3f3a0df0cae10460c01b612c97565b611c65673cf71badcf31841b60c01b612c97565b88851015611ca8576040517f08c379a0000000000000000000000000000000000000000000000000000000008152600401611c9f90614500565b60405180910390fd5b611cbc67fd9ee104ba505a4960c01b612c97565b611cd0676957fe42395ed32960c01b612c97565b8583611cdc919061433c565b600581905550611cf6673a584def72b1cda460c01b612c97565b8482611d02919061433c565b600681905550505050611d1f67967d823e8bfbbcf060c01b612c97565b611d33677e6eb017ac67521460c01b612c97565b611d3d3389613020565b611d5167c2af0e3535064c1b60c01b612c97565b611d6567fb8ee484d97d5f8e60c01b612c97565b611d79671dd0ff755bf903c460c01b612c97565b8973ffffffffffffffffffffffffffffffffffffffff1663a9059cbb86856040518363ffffffff1660e01b8152600401611db49291906142a7565b6020604051808303816000875af1158015611dd3573d6000803e3d6000fd5b505050506040513d601f19601f82011682018060405250810190611df7919061420e565b611e36576040517f08c379a0000000000000000000000000000000000000000000000000000000008152600401611e2d9061456c565b60405180910390fd5b611e4a67e59ec579a06cc0af60c01b612c97565b611e5e67717c72804f2c6a0c60c01b612c97565b611e7267a7e415fde6bbd92c60c01b612c97565b611e8667e2807269b011405e60c01b612c97565b8873ffffffffffffffffffffffffffffffffffffffff1663a9059cbb86846040518363ffffffff1660e01b8152600401611ec19291906142a7565b6020604051808303816000875af1158015611ee0573d6000803e3d6000fd5b505050506040513d601f19601f82011682018060405250810190611f04919061420e565b611f43576040517f08c379a0000000000000000000000000000000000000000000000000000000008152600401611f3a906145d8565b60405180910390fd5b611f57672ab96768932bc8b960c01b612c97565b611f6b674ee035db04fd67c760c01b612c97565b611f7f678068d3e84dd1322e60c01b612c97565b8473ffffffffffffffffffffffffffffffffffffffff167f1dc8bb69df2b8e91fbdcbfcf93d951b3f0000f085a95fe3f7946d6161439245d84848b604051611fc993929190613cec565b60405180910390a25097509795505050505050565b6000611ff467195eb83e63f8a14260c01b612c97565b61200867e7d6aa034a56bc3960c01b612c97565b61201c67cd209cbd8438074760c01b612c97565b61202582611351565b9050919050565b600080612043672be227a820db355260c01b612c97565b6120576721157ad44d508b4160c01b612c97565b7f0000000000000000000000000000000000000000000000000000000000000000915061208e67e62017cb3c3bc11660c01b612c97565b7f000000000000000000000000000000000000000000000000000000000000000090509091565b60055481565b6000600160008473ffffffffffffffffffffffffffffffffffffffff1673ffffffffffffffffffffffffffffffffffffffff16815260200190815260200160002060008373ffffffffffffffffffffffffffffffffffffffff1673ffffffffffffffffffffffffffffffffffffffff16815260200190815260200160002054905092915050565b600080600061215b676e70dc1458a36ac060c01b612c97565b83612170670220f51bfdd7378560c01b612c97565b612184671011da974d5ab0b460c01b612c97565b61219867402fb3ccfcd0027b60c01b612c97565b6121ac6739328d1521ef77cf60c01b612c97565b428110156121ef576040517f08c379a00000000000000000000000000000000000000000000000000000000081526004016121e690613fac565b60405180910390fd5b61220367d4a7911ac213053260c01b612c97565b61221767466ebd5660f2e1ed60c01b612c97565b61222b6731f084a9c2c08cad60c01b612c97565b61223f67bab8f747ebf02d8d60c01b612c97565b612253675dfe77311c1e27af60c01b612c97565b61226767d3227ca4ed4766d960c01b612c97565b61227b67417fc2e26c18494f60c01b612c97565b6122858c8c612e3d565b6122c4576040517f08c379a00000000000000000000000000000000000000000000000000000000081526004016122bb9061411f565b60405180910390fd5b6122d867969133c43006b7f860c01b612c97565b6122ec6719b50dfa63a0f85960c01b612c97565b612300670ac07bcbc4be3b0360c01b612c97565b61231467a5a2154ab25b519d60c01b612c97565b600073ffffffffffffffffffffffffffffffffffffffff168673ffffffffffffffffffffffffffffffffffffffff1603612383576040517f08c379a000000000000000000000000000000000000000000000000000000000815260040161237a90614084565b60405180910390fd5b61239767f44392468a0c47ab60c01b612c97565b6123ab676089742ccc82a05760c01b612c97565b6123bf674e06129b230274e860c01b612c97565b6123d367cb9e67667ca1382660c01b612c97565b600060055490506123ee673685fb166a402ca460c01b612c97565b61240267c37495b9844909a360c01b612c97565b6000600654905061241d67d42ce20a96c3344560c01b612c97565b612431674482f72054503d4960c01b612c97565b6000821480156124415750600081145b1561248d5761245a67f591112f3e9e744660c01b612c97565b61246e67a1c5e744d06e96c560c01b612c97565b8b9550612485679d5356600a58d84360c01b612c97565b8a9450612715565b6124a167b6338a865f249bde60c01b612c97565b6124b567b06668e421d093c660c01b612c97565b6124c9678d4c6485e121fa0060c01b612c97565b600082828e6124d89190613e5e565b6124e29190613ecf565b90506124f867ace99ed2cf1bd4c860c01b612c97565b61250c67c9261e2a794ee83360c01b612c97565b8b81116125ed5761252767c2e71713ecb4451260c01b612c97565b61253b6724203bf2c33fc61460c01b612c97565b61254f67cf13b278c1e5da7a60c01b612c97565b61256367a7fb703f6ec4af0060c01b612c97565b898110156125a6576040517f08c379a000000000000000000000000000000000000000000000000000000000815260040161259d90614500565b60405180910390fd5b6125ba67be840b77051d023960c01b612c97565b6125ce67193ec577ed23b45760c01b612c97565b8c96506125e567c8b7cc6d2f38169a60c01b612c97565b809550612713565b612601670a94cdda116e202760c01b612c97565b61261567125f7a0c4b5a4d9460c01b612c97565b612629676ffa628f116103de60c01b612c97565b600082848e6126389190613e5e565b6126429190613ecf565b90506126586734c68b4def34624260c01b612c97565b61266c677b960d7bd833df1860c01b612c97565b61268067a21e2b12754de63c60c01b612c97565b8d811115801561269057508b8110155b6126cf576040517f08c379a00000000000000000000000000000000000000000000000000000000081526004016126c690614494565b60405180910390fd5b6126e3678901b6bd5bd0e95e60c01b612c97565b6126f767503da9e93082100360c01b612c97565b80975061270e67cb4d41bceb38d20560c01b612c97565b8c9650505b505b505061272b67d2329841784deb3560c01b612c97565b61273f677cd2abeaef78017460c01b612c97565b61275367f588d037bcba772460c01b612c97565b8b73ffffffffffffffffffffffffffffffffffffffff166323b872dd3330876040518463ffffffff1660e01b8152600401612790939291906141ab565b6020604051808303816000875af11580156127af573d6000803e3d6000fd5b505050506040513d601f19601f820116820180604052508101906127d3919061420e565b612812576040517f08c379a00000000000000000000000000000000000000000000000000000000081526004016128099061456c565b60405180910390fd5b612826673c7e00c2789cff1460c01b612c97565b61283a6775fbd127c1096c8460c01b612c97565b61284e67148884c54308b4a660c01b612c97565b612862676a25c20b70216d2f60c01b612c97565b8a73ffffffffffffffffffffffffffffffffffffffff166323b872dd3330866040518463ffffffff1660e01b815260040161289f939291906141ab565b6020604051808303816000875af11580156128be573d6000803e3d6000fd5b505050506040513d601f19601f820116820180604052508101906128e2919061420e565b612921576040517f08c379a0000000000000000000000000000000000000000000000000000000008152600401612918906145d8565b60405180910390fd5b612935673862e1463abcd49d60c01b612c97565b612949671211a0d4d1e1b71360c01b612c97565b61295d67abdd48955936c0fd60c01b612c97565b61297167c2a43e7f1833c97160c01b612c97565b600061297b610753565b905061299167d5dcb929b72fd1ec60c01b612c97565b6129a567fe5d8e7cbd534bc660c01b612c97565b6103e881036129f1576129c267582135038681120960c01b612c97565b6129d6673c21dc339e5b9ec360c01b612c97565b6129ea84866129e59190613e5e565b6130a2565b9250612aee565b612a05671e4d3dbb4203356160c01b612c97565b612a196756ce3a10389c336560c01b612c97565b612a2d6760c400b7b4f59f5a60c01b612c97565b60006005548287612a3e9190613e5e565b612a489190613ecf565b9050612a5e67efe18579d31fa55060c01b612c97565b612a72676211a9bba1efc00f60c01b612c97565b60006006548387612a839190613e5e565b612a8d9190613ecf565b9050612aa3676a2afe1f97b2d88660c01b612c97565b80821080612ac15750612ac0672d6623b5c09f278f60c01b61300e565b5b8015612add5750612adc676063cdf9e435e29c60c01b613015565b5b612ae75780612ae9565b815b945050505b612b0267ac8301781e93951e60c01b612c97565b612b166793da23fb8904efdf60c01b612c97565b612b2a67924b26628c5c805d60c01b612c97565b60008311612b6d576040517f08c379a0000000000000000000000000000000000000000000000000000000008152600401612b6490614644565b60405180910390fd5b612b8167c36889d5d462fb2c60c01b612c97565b612b9567953954398b3d9e5060c01b612c97565b612ba967e202445ff43db18d60c01b612c97565b612bb38784613261565b50612bc867289c079335658c6160c01b612c97565b8360056000828254612bda9190613e2a565b92505081905550612bf567ad74ab91970dda9e60c01b612c97565b8260066000828254612c079190613e2a565b92505081905550612c2267e59b9cc3c7be03f460c01b612c97565b612c3667865f6158f7a48f3560c01b612c97565b8573ffffffffffffffffffffffffffffffffffffffff167f64b83944e79c3ce8d4c297411de637c3e102d064677aac0c163976ebdcd6f50e858585604051612c8093929190613cec565b60405180910390a250985098509895505050505050565b50565b600033905090565b612caf83838360016132e3565b505050565b6000612cc084846120bb565b90507fffffffffffffffffffffffffffffffffffffffffffffffffffffffffffffffff811015612d435781811015612d33578281836040517ffb8f41b2000000000000000000000000000000000000000000000000000000008152600401612d2a93929190614664565b60405180910390fd5b612d42848484840360006132e3565b5b50505050565b600073ffffffffffffffffffffffffffffffffffffffff168373ffffffffffffffffffffffffffffffffffffffff1603612dbb5760006040517f96c6fd1e000000000000000000000000000000000000000000000000000000008152600401612db2919061395a565b60405180910390fd5b600073ffffffffffffffffffffffffffffffffffffffff168273ffffffffffffffffffffffffffffffffffffffff1603612e2d5760006040517fec442f05000000000000000000000000000000000000000000000000000000008152600401612e24919061395a565b60405180910390fd5b612e388383836134ba565b505050565b6000612e5367d8314452b734251960c01b612c97565b612e676797b64a95f45b26e060c01b612c97565b612e7b6703e4eb8bee27023860c01b612c97565b7f000000000000000000000000000000000000000000000000000000000000000073ffffffffffffffffffffffffffffffffffffffff168373ffffffffffffffffffffffffffffffffffffffff16148015612f2157507f000000000000000000000000000000000000000000000000000000000000000073ffffffffffffffffffffffffffffffffffffffff168273ffffffffffffffffffffffffffffffffffffffff16145b8015612f3d5750612f3c679ad30747ec106da460c01b613015565b5b8061300657507f000000000000000000000000000000000000000000000000000000000000000073ffffffffffffffffffffffffffffffffffffffff168373ffffffffffffffffffffffffffffffffffffffff16148015612fe957507f000000000000000000000000000000000000000000000000000000000000000073ffffffffffffffffffffffffffffffffffffffff168273ffffffffffffffffffffffffffffffffffffffff16145b8015613005575061300467afef1cdf3e038dd960c01b613015565b5b5b905092915050565b6000919050565b600060019050919050565b600073ffffffffffffffffffffffffffffffffffffffff168273ffffffffffffffffffffffffffffffffffffffff16036130925760006040517f96c6fd1e000000000000000000000000000000000000000000000000000000008152600401613089919061395a565b60405180910390fd5b61309e826000836134ba565b5050565b60006130b867980a00ea996e963b60c01b612c97565b6130cc67298d227097d6decc60c01b612c97565b6130e067d9edba24f1a869f360c01b612c97565b60038211156131e5576130fd672069b6b45d47150560c01b612c97565b6131116736fdf7172c60e29560c01b612c97565b81905061312867db5034d5f4455ab960c01b612c97565b61313c67f055775193ae2b2c60c01b612c97565b6000600160028461314d9190613ecf565b6131579190613e2a565b905061316d6799f75dc6c2b5c0bc60c01b612c97565b61318167e8785de4f5e3075160c01b612c97565b5b818110156131df5761319e67aa763460bf62d43660c01b612c97565b8091506131b5677890bf329b8acc3c60c01b612c97565b60028182856131c49190613ecf565b6131ce9190613e2a565b6131d89190613ecf565b9050613182565b5061325c565b6131f96787198f603f658cd560c01b612c97565b61320d6709658fea25a670d060c01b612c97565b600082146132465761322967f871667a0f19c1f460c01b612c97565b61323d672da86b45e072062960c01b612c97565b6001905061325b565b61325a6777bbb620ffade50a60c01b612c97565b5b5b919050565b600073ffffffffffffffffffffffffffffffffffffffff168273ffffffffffffffffffffffffffffffffffffffff16036132d35760006040517fec442f050000000000000000000000000000000000000000000000000000000081526004016132ca919061395a565b60405180910390fd5b6132df600083836134ba565b5050565b600073ffffffffffffffffffffffffffffffffffffffff168473ffffffffffffffffffffffffffffffffffffffff16036133555760006040517fe602df0500000000000000000000000000000000000000000000000000000000815260040161334c919061395a565b60405180910390fd5b600073ffffffffffffffffffffffffffffffffffffffff168373ffffffffffffffffffffffffffffffffffffffff16036133c75760006040517f94280d620000000000000000000000000000000000000000000000000000000081526004016133be919061395a565b60405180910390fd5b81600160008673ffffffffffffffffffffffffffffffffffffffff1673ffffffffffffffffffffffffffffffffffffffff16815260200190815260200160002060008573ffffffffffffffffffffffffffffffffffffffff1673ffffffffffffffffffffffffffffffffffffffff1681526020019081526020016000208190555080156134b4578273ffffffffffffffffffffffffffffffffffffffff168473ffffffffffffffffffffffffffffffffffffffff167f8c5be1e5ebec7d5bd14f71427d1e84f3dd0314c0f7b2291e5b200ac8c7c3b925846040516134ab9190613781565b60405180910390a35b50505050565b600073ffffffffffffffffffffffffffffffffffffffff168373ffffffffffffffffffffffffffffffffffffffff160361350c5780600260008282546135009190613e2a565b925050819055506135df565b60008060008573ffffffffffffffffffffffffffffffffffffffff1673ffffffffffffffffffffffffffffffffffffffff16815260200190815260200160002054905081811015613598578381836040517fe450d38c00000000000000000000000000000000000000000000000000000000815260040161358f93929190614664565b60405180910390fd5b8181036000808673ffffffffffffffffffffffffffffffffffffffff1673ffffffffffffffffffffffffffffffffffffffff16815260200190815260200160002081905550505b600073ffffffffffffffffffffffffffffffffffffffff168273ffffffffffffffffffffffffffffffffffffffff16036136285780600260008282540392505081905550613675565b806000808473ffffffffffffffffffffffffffffffffffffffff1673ffffffffffffffffffffffffffffffffffffffff168152602001908152602001600020600082825401925050819055505b8173ffffffffffffffffffffffffffffffffffffffff168373ffffffffffffffffffffffffffffffffffffffff167fddf252ad1be2c89b69c2b068fc378daa952ba7f163c4a11628f55a4df523b3ef836040516136d29190613781565b60405180910390a3505050565b600080fd5b600080fd5b6000819050919050565b6136fc816136e9565b811461370757600080fd5b50565b600081359050613719816136f3565b92915050565b600080600060608486031215613738576137376136df565b5b60006137468682870161370a565b93505060206137578682870161370a565b92505060406137688682870161370a565b9150509250925092565b61377b816136e9565b82525050565b60006020820190506137966000830184613772565b92915050565b600081519050919050565b600082825260208201905092915050565b60005b838110156137d65780820151818401526020810190506137bb565b60008484015250505050565b6000601f19601f8301169050919050565b60006137fe8261379c565b61380881856137a7565b93506138188185602086016137b8565b613821816137e2565b840191505092915050565b6000602082019050818103600083015261384681846137f3565b905092915050565b60006040820190506138636000830185613772565b6138706020830184613772565b9392505050565b600073ffffffffffffffffffffffffffffffffffffffff82169050919050565b60006138a282613877565b9050919050565b6138b281613897565b81146138bd57600080fd5b50565b6000813590506138cf816138a9565b92915050565b600080604083850312156138ec576138eb6136df565b5b60006138fa858286016138c0565b925050602061390b8582860161370a565b9150509250929050565b60008115159050919050565b61392a81613915565b82525050565b60006020820190506139456000830184613921565b92915050565b61395481613897565b82525050565b600060208201905061396f600083018461394b565b92915050565b60008060006060848603121561398e5761398d6136df565b5b600061399c868287016138c0565b93505060206139ad868287016138c0565b92505060406139be8682870161370a565b9150509250925092565b600060ff82169050919050565b6139de816139c8565b82525050565b60006020820190506139f960008301846139d5565b92915050565b600080fd5b600080fd5b600080fd5b60008083601f840112613a2457613a236139ff565b5b8235905067ffffffffffffffff811115613a4157613a40613a04565b5b602083019150836020820283011115613a5d57613a5c613a09565b5b9250929050565b60008060008060008060a08789031215613a8157613a806136df565b5b6000613a8f89828a0161370a565b9650506020613aa089828a0161370a565b955050604087013567ffffffffffffffff811115613ac157613ac06136e4565b5b613acd89828a01613a0e565b94509450506060613ae089828a016138c0565b9250506080613af189828a0161370a565b9150509295509295509295565b600060208284031215613b1457613b136136df565b5b6000613b22848285016138c0565b91505092915050565b60008060408385031215613b4257613b416136df565b5b6000613b50858286016138c0565b9250506020613b61858286016138c0565b9150509250929050565b600080600080600080600060e0888a031215613b8a57613b896136df565b5b6000613b988a828b016138c0565b9750506020613ba98a828b016138c0565b9650506040613bba8a828b0161370a565b9550506060613bcb8a828b0161370a565b9450506080613bdc8a828b0161370a565b93505060a0613bed8a828b016138c0565b92505060c0613bfe8a828b0161370a565b91505092959891949750929550565b6000604082019050613c22600083018561394b565b613c2f602083018461394b565b9392505050565b600080600080600080600080610100898b031215613c5757613c566136df565b5b6000613c658b828c016138c0565b9850506020613c768b828c016138c0565b9750506040613c878b828c0161370a565b9650506060613c988b828c0161370a565b9550506080613ca98b828c0161370a565b94505060a0613cba8b828c0161370a565b93505060c0613ccb8b828c016138c0565b92505060e0613cdc8b828c0161370a565b9150509295985092959890939650565b6000606082019050613d016000830186613772565b613d0e6020830185613772565b613d1b6040830184613772565b949350505050565b7f496e73756666696369656e7420696e7075740000000000000000000000000000600082015250565b6000613d596012836137a7565b9150613d6482613d23565b602082019050919050565b60006020820190508181036000830152613d8881613d4c565b9050919050565b7f496e73756666696369656e742072657365727665730000000000000000000000600082015250565b6000613dc56015836137a7565b9150613dd082613d8f565b602082019050919050565b60006020820190508181036000830152613df481613db8565b9050919050565b7f4e487b7100000000000000000000000000000000000000000000000000000000600052601160045260246000fd5b6000613e35826136e9565b9150613e40836136e9565b9250828201905080821115613e5857613e57613dfb565b5b92915050565b6000613e69826136e9565b9150613e74836136e9565b9250828202613e82816136e9565b91508282048414831517613e9957613e98613dfb565b5b5092915050565b7f4e487b7100000000000000000000000000000000000000000000000000000000600052601260045260246000fd5b6000613eda826136e9565b9150613ee5836136e9565b925082613ef557613ef4613ea0565b5b828204905092915050565b7f4e487b7100000000000000000000000000000000000000000000000000000000600052602260045260246000fd5b60006002820490506001821680613f4757607f821691505b602082108103613f5a57613f59613f00565b5b50919050565b7f4578706972656400000000000000000000000000000000000000000000000000600082015250565b6000613f966007836137a7565b9150613fa182613f60565b602082019050919050565b60006020820190508181036000830152613fc581613f89565b9050919050565b7f496e76616c696420706174680000000000000000000000000000000000000000600082015250565b6000614002600c836137a7565b915061400d82613fcc565b602082019050919050565b6000602082019050818103600083015261403181613ff5565b9050919050565b7f496e76616c696420726563697069656e74000000000000000000000000000000600082015250565b600061406e6011836137a7565b915061407982614038565b602082019050919050565b6000602082019050818103600083015261409d81614061565b9050919050565b7f4e487b7100000000000000000000000000000000000000000000000000000000600052603260045260246000fd5b7f496e76616c696420706169720000000000000000000000000000000000000000600082015250565b6000614109600c836137a7565b9150614114826140d3565b602082019050919050565b60006020820190508181036000830152614138816140fc565b9050919050565b7f496e73756666696369656e74206f757470757400000000000000000000000000600082015250565b60006141756013836137a7565b91506141808261413f565b602082019050919050565b600060208201905081810360008301526141a481614168565b9050919050565b60006060820190506141c0600083018661394b565b6141cd602083018561394b565b6141da6040830184613772565b949350505050565b6141eb81613915565b81146141f657600080fd5b50565b600081519050614208816141e2565b92915050565b600060208284031215614224576142236136df565b5b6000614232848285016141f9565b91505092915050565b7f496e707574207472616e73666572206661696c00000000000000000000000000600082015250565b60006142716013836137a7565b915061427c8261423b565b602082019050919050565b600060208201905081810360008301526142a081614264565b9050919050565b60006040820190506142bc600083018561394b565b6142c96020830184613772565b9392505050565b7f4f7574707574207472616e73666572206661696c000000000000000000000000600082015250565b60006143066014836137a7565b9150614311826142d0565b602082019050919050565b60006020820190508181036000830152614335816142f9565b9050919050565b6000614347826136e9565b9150614352836136e9565b925082820390508181111561436a57614369613dfb565b5b92915050565b7f5a65726f206c6971756964697479000000000000000000000000000000000000600082015250565b60006143a6600e836137a7565b91506143b182614370565b602082019050919050565b600060208201905081810360008301526143d581614399565b9050919050565b7f496e73756666696369656e742062616c616e6365000000000000000000000000600082015250565b60006144126014836137a7565b915061441d826143dc565b602082019050919050565b6000602082019050818103600083015261444181614405565b9050919050565b7f496e73756666696369656e742041000000000000000000000000000000000000600082015250565b600061447e600e836137a7565b915061448982614448565b602082019050919050565b600060208201905081810360008301526144ad81614471565b9050919050565b7f496e73756666696369656e742042000000000000000000000000000000000000600082015250565b60006144ea600e836137a7565b91506144f5826144b4565b602082019050919050565b60006020820190508181036000830152614519816144dd565b9050919050565b7f5472616e736665722041206661696c0000000000000000000000000000000000600082015250565b6000614556600f836137a7565b915061456182614520565b602082019050919050565b6000602082019050818103600083015261458581614549565b9050919050565b7f5472616e736665722042206661696c0000000000000000000000000000000000600082015250565b60006145c2600f836137a7565b91506145cd8261458c565b602082019050919050565b600060208201905081810360008301526145f1816145b5565b9050919050565b7f496e73756666696369656e74206c697175696469747900000000000000000000600082015250565b600061462e6016836137a7565b9150614639826145f8565b602082019050919050565b6000602082019050818103600083015261465d81614621565b9050919050565b6000606082019050614679600083018661394b565b6146866020830185613772565b6146936040830184613772565b94935050505056fea2646970667358221220e9cff1c8ce083e5c12118518ca7c7306568299706edc54f7c160e8142248da7064736f6c634300081c0033","opcodes":"PUSH1 0xC0 PUSH1 0x40 MSTORE CALLVALUE DUP1 ISZERO PUSH2 0x10 JUMPI PUSH1 0x0 DUP1 REVERT JUMPDEST POP PUSH1 0x40 MLOAD PUSH2 0x5332 CODESIZE SUB DUP1 PUSH2 0x5332 DUP4 CODECOPY DUP2 DUP2 ADD PUSH1 0x40 MSTORE DUP2 ADD SWAP1 PUSH2 0x32 SWAP2 SWAP1 PUSH2 0x6BD JUMP JUMPDEST PUSH1 0x40 MLOAD DUP1 PUSH1 0x40 ADD PUSH1 0x40 MSTORE DUP1 PUSH1 0x1A DUP2 MSTORE PUSH1 0x20 ADD PUSH32 0x53696D706C6553776170204C697175696469747920546F6B656E000000000000 DUP2 MSTORE POP PUSH1 0x40 MLOAD DUP1 PUSH1 0x40 ADD PUSH1 0x40 MSTORE DUP1 PUSH1 0x4 DUP2 MSTORE PUSH1 0x20 ADD PUSH32 0x53534C5400000000000000000000000000000000000000000000000000000000 DUP2 MSTORE POP DUP2 PUSH1 0x3 SWAP1 DUP2 PUSH2 0xAD SWAP2 SWAP1 PUSH2 0x94D JUMP JUMPDEST POP DUP1 PUSH1 0x4 SWAP1 DUP2 PUSH2 0xBD SWAP2 SWAP1 PUSH2 0x94D JUMP JUMPDEST POP POP POP PUSH2 0xDA PUSH8 0xE238392C10C9BD89 PUSH1 0xC0 SHL PUSH2 0x3AA PUSH1 0x20 SHL PUSH1 0x20 SHR JUMP JUMPDEST PUSH2 0xF4 PUSH8 0x9C8B673D58D53C9D PUSH1 0xC0 SHL PUSH2 0x3AA PUSH1 0x20 SHL PUSH1 0x20 SHR JUMP JUMPDEST PUSH2 0x10E PUSH8 0x4CA4F7CDB3430C5F PUSH1 0xC0 SHL PUSH2 0x3AA PUSH1 0x20 SHL PUSH1 0x20 SHR JUMP JUMPDEST PUSH2 0x128 PUSH8 0x8AEB89302DF144B3 PUSH1 0xC0 SHL PUSH2 0x3AA PUSH1 0x20 SHL PUSH1 0x20 SHR JUMP JUMPDEST PUSH1 0x0 PUSH20 0xFFFFFFFFFFFFFFFFFFFFFFFFFFFFFFFFFFFFFFFF AND DUP3 PUSH20 0xFFFFFFFFFFFFFFFFFFFFFFFFFFFFFFFFFFFFFFFF AND EQ ISZERO DUP1 ISZERO PUSH2 0x192 JUMPI POP PUSH1 0x0 PUSH20 0xFFFFFFFFFFFFFFFFFFFFFFFFFFFFFFFFFFFFFFFF AND DUP2 PUSH20 0xFFFFFFFFFFFFFFFFFFFFFFFFFFFFFFFFFFFFFFFF AND EQ ISZERO JUMPDEST PUSH2 0x1D1 JUMPI PUSH1 0x40 MLOAD PUSH32 0x8C379A000000000000000000000000000000000000000000000000000000000 DUP2 MSTORE PUSH1 0x4 ADD PUSH2 0x1C8 SWAP1 PUSH2 0xA7C JUMP JUMPDEST PUSH1 0x40 MLOAD DUP1 SWAP2 SUB SWAP1 REVERT JUMPDEST PUSH2 0x1EB PUSH8 0x2C2A442CB71D373 PUSH1 0xC0 SHL PUSH2 0x3AA PUSH1 0x20 SHL PUSH1 0x20 SHR JUMP JUMPDEST PUSH2 0x205 PUSH8 0x15224490998627D PUSH1 0xC0 SHL PUSH2 0x3AA PUSH1 0x20 SHL PUSH1 0x20 SHR JUMP JUMPDEST PUSH2 0x21F PUSH8 0x7EA84308817E4034 PUSH1 0xC0 SHL PUSH2 0x3AA PUSH1 0x20 SHL PUSH1 0x20 SHR JUMP JUMPDEST PUSH2 0x239 PUSH8 0x9CA722241E681C5B PUSH1 0xC0 SHL PUSH2 0x3AA PUSH1 0x20 SHL PUSH1 0x20 SHR JUMP JUMPDEST DUP1 PUSH20 0xFFFFFFFFFFFFFFFFFFFFFFFFFFFFFFFFFFFFFFFF AND DUP3 PUSH20 0xFFFFFFFFFFFFFFFFFFFFFFFFFFFFFFFFFFFFFFFF AND SUB PUSH2 0x2A7 JUMPI PUSH1 0x40 MLOAD PUSH32 0x8C379A000000000000000000000000000000000000000000000000000000000 DUP2 MSTORE PUSH1 0x4 ADD PUSH2 0x29E SWAP1 PUSH2 0xAE8 JUMP JUMPDEST PUSH1 0x40 MLOAD DUP1 SWAP2 SUB SWAP1 REVERT JUMPDEST PUSH2 0x2C1 PUSH8 0xF06A0EAEEF03F487 PUSH1 0xC0 SHL PUSH2 0x3AA PUSH1 0x20 SHL PUSH1 0x20 SHR JUMP JUMPDEST PUSH2 0x2DB PUSH8 0x7DE4798EF44F0825 PUSH1 0xC0 SHL PUSH2 0x3AA PUSH1 0x20 SHL PUSH1 0x20 SHR JUMP JUMPDEST DUP2 PUSH20 0xFFFFFFFFFFFFFFFFFFFFFFFFFFFFFFFFFFFFFFFF AND PUSH1 0x80 DUP2 PUSH20 0xFFFFFFFFFFFFFFFFFFFFFFFFFFFFFFFFFFFFFFFF AND DUP2 MSTORE POP POP PUSH2 0x329 PUSH8 0x6F0D3F5BA5D6FAB4 PUSH1 0xC0 SHL PUSH2 0x3AA PUSH1 0x20 SHL PUSH1 0x20 SHR JUMP JUMPDEST DUP1 PUSH20 0xFFFFFFFFFFFFFFFFFFFFFFFFFFFFFFFFFFFFFFFF AND PUSH1 0xA0 DUP2 PUSH20 0xFFFFFFFFFFFFFFFFFFFFFFFFFFFFFFFFFFFFFFFF AND DUP2 MSTORE POP POP PUSH2 0x377 PUSH8 0x4B20E72FF213BFA3 PUSH1 0xC0 SHL PUSH2 0x3AA PUSH1 0x20 SHL PUSH1 0x20 SHR JUMP JUMPDEST PUSH2 0x391 PUSH8 0x4068F18D0BE755D1 PUSH1 0xC0 SHL PUSH2 0x3AA PUSH1 0x20 SHL PUSH1 0x20 SHR JUMP JUMPDEST PUSH2 0x3A3 ADDRESS PUSH2 0x3E8 PUSH2 0x3AD PUSH1 0x20 SHL PUSH1 0x20 SHR JUMP JUMPDEST POP POP PUSH2 0xBF6 JUMP JUMPDEST POP JUMP JUMPDEST PUSH1 0x0 PUSH20 0xFFFFFFFFFFFFFFFFFFFFFFFFFFFFFFFFFFFFFFFF AND DUP3 PUSH20 0xFFFFFFFFFFFFFFFFFFFFFFFFFFFFFFFFFFFFFFFF AND SUB PUSH2 0x41F JUMPI PUSH1 0x0 PUSH1 0x40 MLOAD PUSH32 0xEC442F0500000000000000000000000000000000000000000000000000000000 DUP2 MSTORE PUSH1 0x4 ADD PUSH2 0x416 SWAP2 SWAP1 PUSH2 0xB17 JUMP JUMPDEST PUSH1 0x40 MLOAD DUP1 SWAP2 SUB SWAP1 REVERT JUMPDEST PUSH2 0x431 PUSH1 0x0 DUP4 DUP4 PUSH2 0x435 PUSH1 0x20 SHL PUSH1 0x20 SHR JUMP JUMPDEST POP POP JUMP JUMPDEST PUSH1 0x0 PUSH20 0xFFFFFFFFFFFFFFFFFFFFFFFFFFFFFFFFFFFFFFFF AND DUP4 PUSH20 0xFFFFFFFFFFFFFFFFFFFFFFFFFFFFFFFFFFFFFFFF AND SUB PUSH2 0x487 JUMPI DUP1 PUSH1 0x2 PUSH1 0x0 DUP3 DUP3 SLOAD PUSH2 0x47B SWAP2 SWAP1 PUSH2 0xB61 JUMP JUMPDEST SWAP3 POP POP DUP2 SWAP1 SSTORE POP PUSH2 0x55A JUMP JUMPDEST PUSH1 0x0 DUP1 PUSH1 0x0 DUP6 PUSH20 0xFFFFFFFFFFFFFFFFFFFFFFFFFFFFFFFFFFFFFFFF AND PUSH20 0xFFFFFFFFFFFFFFFFFFFFFFFFFFFFFFFFFFFFFFFF AND DUP2 MSTORE PUSH1 0x20 ADD SWAP1 DUP2 MSTORE PUSH1 0x20 ADD PUSH1 0x0 KECCAK256 SLOAD SWAP1 POP DUP2 DUP2 LT ISZERO PUSH2 0x513 JUMPI DUP4 DUP2 DUP4 PUSH1 0x40 MLOAD PUSH32 0xE450D38C00000000000000000000000000000000000000000000000000000000 DUP2 MSTORE PUSH1 0x4 ADD PUSH2 0x50A SWAP4 SWAP3 SWAP2 SWAP1 PUSH2 0xBA4 JUMP JUMPDEST PUSH1 0x40 MLOAD DUP1 SWAP2 SUB SWAP1 REVERT JUMPDEST DUP2 DUP2 SUB PUSH1 0x0 DUP1 DUP7 PUSH20 0xFFFFFFFFFFFFFFFFFFFFFFFFFFFFFFFFFFFFFFFF AND PUSH20 0xFFFFFFFFFFFFFFFFFFFFFFFFFFFFFFFFFFFFFFFF AND DUP2 MSTORE PUSH1 0x20 ADD SWAP1 DUP2 MSTORE PUSH1 0x20 ADD PUSH1 0x0 KECCAK256 DUP2 SWAP1 SSTORE POP POP JUMPDEST PUSH1 0x0 PUSH20 0xFFFFFFFFFFFFFFFFFFFFFFFFFFFFFFFFFFFFFFFF AND DUP3 PUSH20 0xFFFFFFFFFFFFFFFFFFFFFFFFFFFFFFFFFFFFFFFF AND SUB PUSH2 0x5A3 JUMPI DUP1 PUSH1 0x2 PUSH1 0x0 DUP3 DUP3 SLOAD SUB SWAP3 POP POP DUP2 SWAP1 SSTORE POP PUSH2 0x5F0 JUMP JUMPDEST DUP1 PUSH1 0x0 DUP1 DUP5 PUSH20 0xFFFFFFFFFFFFFFFFFFFFFFFFFFFFFFFFFFFFFFFF AND PUSH20 0xFFFFFFFFFFFFFFFFFFFFFFFFFFFFFFFFFFFFFFFF AND DUP2 MSTORE PUSH1 0x20 ADD SWAP1 DUP2 MSTORE PUSH1 0x20 ADD PUSH1 0x0 KECCAK256 PUSH1 0x0 DUP3 DUP3 SLOAD ADD SWAP3 POP POP DUP2 SWAP1 SSTORE POP JUMPDEST DUP2 PUSH20 0xFFFFFFFFFFFFFFFFFFFFFFFFFFFFFFFFFFFFFFFF AND DUP4 PUSH20 0xFFFFFFFFFFFFFFFFFFFFFFFFFFFFFFFFFFFFFFFF AND PUSH32 0xDDF252AD1BE2C89B69C2B068FC378DAA952BA7F163C4A11628F55A4DF523B3EF DUP4 PUSH1 0x40 MLOAD PUSH2 0x64D SWAP2 SWAP1 PUSH2 0xBDB JUMP JUMPDEST PUSH1 0x40 MLOAD DUP1 SWAP2 SUB SWAP1 LOG3 POP POP POP JUMP JUMPDEST PUSH1 0x0 DUP1 REVERT JUMPDEST PUSH1 0x0 PUSH20 0xFFFFFFFFFFFFFFFFFFFFFFFFFFFFFFFFFFFFFFFF DUP3 AND SWAP1 POP SWAP2 SWAP1 POP JUMP JUMPDEST PUSH1 0x0 PUSH2 0x68A DUP3 PUSH2 0x65F JUMP JUMPDEST SWAP1 POP SWAP2 SWAP1 POP JUMP JUMPDEST PUSH2 0x69A DUP2 PUSH2 0x67F JUMP JUMPDEST DUP2 EQ PUSH2 0x6A5 JUMPI PUSH1 0x0 DUP1 REVERT JUMPDEST POP JUMP JUMPDEST PUSH1 0x0 DUP2 MLOAD SWAP1 POP PUSH2 0x6B7 DUP2 PUSH2 0x691 JUMP JUMPDEST SWAP3 SWAP2 POP POP JUMP JUMPDEST PUSH1 0x0 DUP1 PUSH1 0x40 DUP4 DUP6 SUB SLT ISZERO PUSH2 0x6D4 JUMPI PUSH2 0x6D3 PUSH2 0x65A JUMP JUMPDEST JUMPDEST PUSH1 0x0 PUSH2 0x6E2 DUP6 DUP3 DUP7 ADD PUSH2 0x6A8 JUMP JUMPDEST SWAP3 POP POP PUSH1 0x20 PUSH2 0x6F3 DUP6 DUP3 DUP7 ADD PUSH2 0x6A8 JUMP JUMPDEST SWAP2 POP POP SWAP3 POP SWAP3 SWAP1 POP JUMP JUMPDEST PUSH1 0x0 DUP2 MLOAD SWAP1 POP SWAP2 SWAP1 POP JUMP JUMPDEST PUSH32 0x4E487B7100000000000000000000000000000000000000000000000000000000 PUSH1 0x0 MSTORE PUSH1 0x41 PUSH1 0x4 MSTORE PUSH1 0x24 PUSH1 0x0 REVERT JUMPDEST PUSH32 0x4E487B7100000000000000000000000000000000000000000000000000000000 PUSH1 0x0 MSTORE PUSH1 0x22 PUSH1 0x4 MSTORE PUSH1 0x24 PUSH1 0x0 REVERT JUMPDEST PUSH1 0x0 PUSH1 0x2 DUP3 DIV SWAP1 POP PUSH1 0x1 DUP3 AND DUP1 PUSH2 0x77E JUMPI PUSH1 0x7F DUP3 AND SWAP2 POP JUMPDEST PUSH1 0x20 DUP3 LT DUP2 SUB PUSH2 0x791 JUMPI PUSH2 0x790 PUSH2 0x737 JUMP JUMPDEST JUMPDEST POP SWAP2 SWAP1 POP JUMP JUMPDEST PUSH1 0x0 DUP2 SWAP1 POP DUP2 PUSH1 0x0 MSTORE PUSH1 0x20 PUSH1 0x0 KECCAK256 SWAP1 POP SWAP2 SWAP1 POP JUMP JUMPDEST PUSH1 0x0 PUSH1 0x20 PUSH1 0x1F DUP4 ADD DIV SWAP1 POP SWAP2 SWAP1 POP JUMP JUMPDEST PUSH1 0x0 DUP3 DUP3 SHL SWAP1 POP SWAP3 SWAP2 POP POP JUMP JUMPDEST PUSH1 0x0 PUSH1 0x8 DUP4 MUL PUSH2 0x7F9 PUSH32 0xFFFFFFFFFFFFFFFFFFFFFFFFFFFFFFFFFFFFFFFFFFFFFFFFFFFFFFFFFFFFFFFF DUP3 PUSH2 0x7BC JUMP JUMPDEST PUSH2 0x803 DUP7 DUP4 PUSH2 0x7BC JUMP JUMPDEST SWAP6 POP DUP1 NOT DUP5 AND SWAP4 POP DUP1 DUP7 AND DUP5 OR SWAP3 POP POP POP SWAP4 SWAP3 POP POP POP JUMP JUMPDEST PUSH1 0x0 DUP2 SWAP1 POP SWAP2 SWAP1 POP JUMP JUMPDEST PUSH1 0x0 DUP2 SWAP1 POP SWAP2 SWAP1 POP JUMP JUMPDEST PUSH1 0x0 PUSH2 0x84A PUSH2 0x845 PUSH2 0x840 DUP5 PUSH2 0x81B JUMP JUMPDEST PUSH2 0x825 JUMP JUMPDEST PUSH2 0x81B JUMP JUMPDEST SWAP1 POP SWAP2 SWAP1 POP JUMP JUMPDEST PUSH1 0x0 DUP2 SWAP1 POP SWAP2 SWAP1 POP JUMP JUMPDEST PUSH2 0x864 DUP4 PUSH2 0x82F JUMP JUMPDEST PUSH2 0x878 PUSH2 0x870 DUP3 PUSH2 0x851 JUMP JUMPDEST DUP5 DUP5 SLOAD PUSH2 0x7C9 JUMP JUMPDEST DUP3 SSTORE POP POP POP POP JUMP JUMPDEST PUSH1 0x0 SWAP1 JUMP JUMPDEST PUSH2 0x88D PUSH2 0x880 JUMP JUMPDEST PUSH2 0x898 DUP2 DUP5 DUP5 PUSH2 0x85B JUMP JUMPDEST POP POP POP JUMP JUMPDEST JUMPDEST DUP2 DUP2 LT ISZERO PUSH2 0x8BC JUMPI PUSH2 0x8B1 PUSH1 0x0 DUP3 PUSH2 0x885 JUMP JUMPDEST PUSH1 0x1 DUP2 ADD SWAP1 POP PUSH2 0x89E JUMP JUMPDEST POP POP JUMP JUMPDEST PUSH1 0x1F DUP3 GT ISZERO PUSH2 0x901 JUMPI PUSH2 0x8D2 DUP2 PUSH2 0x797 JUMP JUMPDEST PUSH2 0x8DB DUP5 PUSH2 0x7AC JUMP JUMPDEST DUP2 ADD PUSH1 0x20 DUP6 LT ISZERO PUSH2 0x8EA JUMPI DUP2 SWAP1 POP JUMPDEST PUSH2 0x8FE PUSH2 0x8F6 DUP6 PUSH2 0x7AC JUMP JUMPDEST DUP4 ADD DUP3 PUSH2 0x89D JUMP JUMPDEST POP POP JUMPDEST POP POP POP JUMP JUMPDEST PUSH1 0x0 DUP3 DUP3 SHR SWAP1 POP SWAP3 SWAP2 POP POP JUMP JUMPDEST PUSH1 0x0 PUSH2 0x924 PUSH1 0x0 NOT DUP5 PUSH1 0x8 MUL PUSH2 0x906 JUMP JUMPDEST NOT DUP1 DUP4 AND SWAP2 POP POP SWAP3 SWAP2 POP POP JUMP JUMPDEST PUSH1 0x0 PUSH2 0x93D DUP4 DUP4 PUSH2 0x913 JUMP JUMPDEST SWAP2 POP DUP3 PUSH1 0x2 MUL DUP3 OR SWAP1 POP SWAP3 SWAP2 POP POP JUMP JUMPDEST PUSH2 0x956 DUP3 PUSH2 0x6FD JUMP JUMPDEST PUSH8 0xFFFFFFFFFFFFFFFF DUP2 GT ISZERO PUSH2 0x96F JUMPI PUSH2 0x96E PUSH2 0x708 JUMP JUMPDEST JUMPDEST PUSH2 0x979 DUP3 SLOAD PUSH2 0x766 JUMP JUMPDEST PUSH2 0x984 DUP3 DUP3 DUP6 PUSH2 0x8C0 JUMP JUMPDEST PUSH1 0x0 PUSH1 0x20 SWAP1 POP PUSH1 0x1F DUP4 GT PUSH1 0x1 DUP2 EQ PUSH2 0x9B7 JUMPI PUSH1 0x0 DUP5 ISZERO PUSH2 0x9A5 JUMPI DUP3 DUP8 ADD MLOAD SWAP1 POP JUMPDEST PUSH2 0x9AF DUP6 DUP3 PUSH2 0x931 JUMP JUMPDEST DUP7 SSTORE POP PUSH2 0xA17 JUMP JUMPDEST PUSH1 0x1F NOT DUP5 AND PUSH2 0x9C5 DUP7 PUSH2 0x797 JUMP JUMPDEST PUSH1 0x0 JUMPDEST DUP3 DUP2 LT ISZERO PUSH2 0x9ED JUMPI DUP5 DUP10 ADD MLOAD DUP3 SSTORE PUSH1 0x1 DUP3 ADD SWAP2 POP PUSH1 0x20 DUP6 ADD SWAP5 POP PUSH1 0x20 DUP2 ADD SWAP1 POP PUSH2 0x9C8 JUMP JUMPDEST DUP7 DUP4 LT ISZERO PUSH2 0xA0A JUMPI DUP5 DUP10 ADD MLOAD PUSH2 0xA06 PUSH1 0x1F DUP10 AND DUP3 PUSH2 0x913 JUMP JUMPDEST DUP4 SSTORE POP JUMPDEST PUSH1 0x1 PUSH1 0x2 DUP9 MUL ADD DUP9 SSTORE POP POP POP JUMPDEST POP POP POP POP POP POP JUMP JUMPDEST PUSH1 0x0 DUP3 DUP3 MSTORE PUSH1 0x20 DUP3 ADD SWAP1 POP SWAP3 SWAP2 POP POP JUMP JUMPDEST PUSH32 0x496E76616C696420746F6B656E73000000000000000000000000000000000000 PUSH1 0x0 DUP3 ADD MSTORE POP JUMP JUMPDEST PUSH1 0x0 PUSH2 0xA66 PUSH1 0xE DUP4 PUSH2 0xA1F JUMP JUMPDEST SWAP2 POP PUSH2 0xA71 DUP3 PUSH2 0xA30 JUMP JUMPDEST PUSH1 0x20 DUP3 ADD SWAP1 POP SWAP2 SWAP1 POP JUMP JUMPDEST PUSH1 0x0 PUSH1 0x20 DUP3 ADD SWAP1 POP DUP2 DUP2 SUB PUSH1 0x0 DUP4 ADD MSTORE PUSH2 0xA95 DUP2 PUSH2 0xA59 JUMP JUMPDEST SWAP1 POP SWAP2 SWAP1 POP JUMP JUMPDEST PUSH32 0x53616D6520746F6B656E73000000000000000000000000000000000000000000 PUSH1 0x0 DUP3 ADD MSTORE POP JUMP JUMPDEST PUSH1 0x0 PUSH2 0xAD2 PUSH1 0xB DUP4 PUSH2 0xA1F JUMP JUMPDEST SWAP2 POP PUSH2 0xADD DUP3 PUSH2 0xA9C JUMP JUMPDEST PUSH1 0x20 DUP3 ADD SWAP1 POP SWAP2 SWAP1 POP JUMP JUMPDEST PUSH1 0x0 PUSH1 0x20 DUP3 ADD SWAP1 POP DUP2 DUP2 SUB PUSH1 0x0 DUP4 ADD MSTORE PUSH2 0xB01 DUP2 PUSH2 0xAC5 JUMP JUMPDEST SWAP1 POP SWAP2 SWAP1 POP JUMP JUMPDEST PUSH2 0xB11 DUP2 PUSH2 0x67F JUMP JUMPDEST DUP3 MSTORE POP POP JUMP JUMPDEST PUSH1 0x0 PUSH1 0x20 DUP3 ADD SWAP1 POP PUSH2 0xB2C PUSH1 0x0 DUP4 ADD DUP5 PUSH2 0xB08 JUMP JUMPDEST SWAP3 SWAP2 POP POP JUMP JUMPDEST PUSH32 0x4E487B7100000000000000000000000000000000000000000000000000000000 PUSH1 0x0 MSTORE PUSH1 0x11 PUSH1 0x4 MSTORE PUSH1 0x24 PUSH1 0x0 REVERT JUMPDEST PUSH1 0x0 PUSH2 0xB6C DUP3 PUSH2 0x81B JUMP JUMPDEST SWAP2 POP PUSH2 0xB77 DUP4 PUSH2 0x81B JUMP JUMPDEST SWAP3 POP DUP3 DUP3 ADD SWAP1 POP DUP1 DUP3 GT ISZERO PUSH2 0xB8F JUMPI PUSH2 0xB8E PUSH2 0xB32 JUMP JUMPDEST JUMPDEST SWAP3 SWAP2 POP POP JUMP JUMPDEST PUSH2 0xB9E DUP2 PUSH2 0x81B JUMP JUMPDEST DUP3 MSTORE POP POP JUMP JUMPDEST PUSH1 0x0 PUSH1 0x60 DUP3 ADD SWAP1 POP PUSH2 0xBB9 PUSH1 0x0 DUP4 ADD DUP7 PUSH2 0xB08 JUMP JUMPDEST PUSH2 0xBC6 PUSH1 0x20 DUP4 ADD DUP6 PUSH2 0xB95 JUMP JUMPDEST PUSH2 0xBD3 PUSH1 0x40 DUP4 ADD DUP5 PUSH2 0xB95 JUMP JUMPDEST SWAP5 SWAP4 POP POP POP POP JUMP JUMPDEST PUSH1 0x0 PUSH1 0x20 DUP3 ADD SWAP1 POP PUSH2 0xBF0 PUSH1 0x0 DUP4 ADD DUP5 PUSH2 0xB95 JUMP JUMPDEST SWAP3 SWAP2 POP POP JUMP JUMPDEST PUSH1 0x80 MLOAD PUSH1 0xA0 MLOAD PUSH2 0x46D1 PUSH2 0xC61 PUSH1 0x0 CODECOPY PUSH1 0x0 DUP2 DUP2 PUSH2 0x132F ADD MSTORE DUP2 DUP2 PUSH2 0x2090 ADD MSTORE DUP2 DUP2 PUSH2 0x2ED3 ADD MSTORE PUSH2 0x2F45 ADD MSTORE PUSH1 0x0 DUP2 DUP2 PUSH2 0x731 ADD MSTORE DUP2 DUP2 PUSH2 0xBE4 ADD MSTORE DUP2 DUP2 PUSH2 0xCCA ADD MSTORE DUP2 DUP2 PUSH2 0x10D2 ADD MSTORE DUP2 DUP2 PUSH2 0x1624 ADD MSTORE DUP2 DUP2 PUSH2 0x2059 ADD MSTORE DUP2 DUP2 PUSH2 0x2E7D ADD MSTORE PUSH2 0x2F9B ADD MSTORE PUSH2 0x46D1 PUSH1 0x0 RETURN INVALID PUSH1 0x80 PUSH1 0x40 MSTORE CALLVALUE DUP1 ISZERO PUSH2 0x10 JUMPI PUSH1 0x0 DUP1 REVERT JUMPDEST POP PUSH1 0x4 CALLDATASIZE LT PUSH2 0x142 JUMPI PUSH1 0x0 CALLDATALOAD PUSH1 0xE0 SHR DUP1 PUSH4 0x5F64B55B GT PUSH2 0xB8 JUMPI DUP1 PUSH4 0xBAA2ABDE GT PUSH2 0x7C JUMPI DUP1 PUSH4 0xBAA2ABDE EQ PUSH2 0x392 JUMPI DUP1 PUSH4 0xC8C0526E EQ PUSH2 0x3C3 JUMPI DUP1 PUSH4 0xD3C7C2C7 EQ PUSH2 0x3F3 JUMPI DUP1 PUSH4 0xDC5FA6C5 EQ PUSH2 0x412 JUMPI DUP1 PUSH4 0xDD62ED3E EQ PUSH2 0x430 JUMPI DUP1 PUSH4 0xE8E33700 EQ PUSH2 0x460 JUMPI PUSH2 0x142 JUMP JUMPDEST DUP1 PUSH4 0x5F64B55B EQ PUSH2 0x2C6 JUMPI DUP1 PUSH4 0x70A08231 EQ PUSH2 0x2E4 JUMPI DUP1 PUSH4 0x95D89B41 EQ PUSH2 0x314 JUMPI DUP1 PUSH4 0xA9059CBB EQ PUSH2 0x332 JUMPI DUP1 PUSH4 0xAC41865A EQ PUSH2 0x362 JUMPI PUSH2 0x142 JUMP JUMPDEST DUP1 PUSH4 0x18160DDD GT PUSH2 0x10A JUMPI DUP1 PUSH4 0x18160DDD EQ PUSH2 0x202 JUMPI DUP1 PUSH4 0x19E36F3B EQ PUSH2 0x220 JUMPI DUP1 PUSH4 0x23B872DD EQ PUSH2 0x23E JUMPI DUP1 PUSH4 0x313CE567 EQ PUSH2 0x26E JUMPI DUP1 PUSH4 0x35C7E925 EQ PUSH2 0x28C JUMPI DUP1 PUSH4 0x38ED1739 EQ PUSH2 0x2AA JUMPI PUSH2 0x142 JUMP JUMPDEST DUP1 PUSH4 0x54D50D4 EQ PUSH2 0x147 JUMPI DUP1 PUSH4 0x6FDDE03 EQ PUSH2 0x177 JUMPI DUP1 PUSH4 0x902F1AC EQ PUSH2 0x195 JUMPI DUP1 PUSH4 0x95EA7B3 EQ PUSH2 0x1B4 JUMPI DUP1 PUSH4 0xFC63D10 EQ PUSH2 0x1E4 JUMPI JUMPDEST PUSH1 0x0 DUP1 REVERT JUMPDEST PUSH2 0x161 PUSH1 0x4 DUP1 CALLDATASIZE SUB DUP2 ADD SWAP1 PUSH2 0x15C SWAP2 SWAP1 PUSH2 0x371F JUMP JUMPDEST PUSH2 0x492 JUMP JUMPDEST PUSH1 0x40 MLOAD PUSH2 0x16E SWAP2 SWAP1 PUSH2 0x3781 JUMP JUMPDEST PUSH1 0x40 MLOAD DUP1 SWAP2 SUB SWAP1 RETURN JUMPDEST PUSH2 0x17F PUSH2 0x62D JUMP JUMPDEST PUSH1 0x40 MLOAD PUSH2 0x18C SWAP2 SWAP1 PUSH2 0x382C JUMP JUMPDEST PUSH1 0x40 MLOAD DUP1 SWAP2 SUB SWAP1 RETURN JUMPDEST PUSH2 0x19D PUSH2 0x6BF JUMP JUMPDEST PUSH1 0x40 MLOAD PUSH2 0x1AB SWAP3 SWAP2 SWAP1 PUSH2 0x384E JUMP JUMPDEST PUSH1 0x40 MLOAD DUP1 SWAP2 SUB SWAP1 RETURN JUMPDEST PUSH2 0x1CE PUSH1 0x4 DUP1 CALLDATASIZE SUB DUP2 ADD SWAP1 PUSH2 0x1C9 SWAP2 SWAP1 PUSH2 0x38D5 JUMP JUMPDEST PUSH2 0x70C JUMP JUMPDEST PUSH1 0x40 MLOAD PUSH2 0x1DB SWAP2 SWAP1 PUSH2 0x3930 JUMP JUMPDEST PUSH1 0x40 MLOAD DUP1 SWAP2 SUB SWAP1 RETURN JUMPDEST PUSH2 0x1EC PUSH2 0x72F JUMP JUMPDEST PUSH1 0x40 MLOAD PUSH2 0x1F9 SWAP2 SWAP1 PUSH2 0x395A JUMP JUMPDEST PUSH1 0x40 MLOAD DUP1 SWAP2 SUB SWAP1 RETURN JUMPDEST PUSH2 0x20A PUSH2 0x753 JUMP JUMPDEST PUSH1 0x40 MLOAD PUSH2 0x217 SWAP2 SWAP1 PUSH2 0x3781 JUMP JUMPDEST PUSH1 0x40 MLOAD DUP1 SWAP2 SUB SWAP1 RETURN JUMPDEST PUSH2 0x228 PUSH2 0x75D JUMP JUMPDEST PUSH1 0x40 MLOAD PUSH2 0x235 SWAP2 SWAP1 PUSH2 0x3781 JUMP JUMPDEST PUSH1 0x40 MLOAD DUP1 SWAP2 SUB SWAP1 RETURN JUMPDEST PUSH2 0x258 PUSH1 0x4 DUP1 CALLDATASIZE SUB DUP2 ADD SWAP1 PUSH2 0x253 SWAP2 SWAP1 PUSH2 0x3975 JUMP JUMPDEST PUSH2 0x763 JUMP JUMPDEST PUSH1 0x40 MLOAD PUSH2 0x265 SWAP2 SWAP1 PUSH2 0x3930 JUMP JUMPDEST PUSH1 0x40 MLOAD DUP1 SWAP2 SUB SWAP1 RETURN JUMPDEST PUSH2 0x276 PUSH2 0x792 JUMP JUMPDEST PUSH1 0x40 MLOAD PUSH2 0x283 SWAP2 SWAP1 PUSH2 0x39E4 JUMP JUMPDEST PUSH1 0x40 MLOAD DUP1 SWAP2 SUB SWAP1 RETURN JUMPDEST PUSH2 0x294 PUSH2 0x79B JUMP JUMPDEST PUSH1 0x40 MLOAD PUSH2 0x2A1 SWAP2 SWAP1 PUSH2 0x3781 JUMP JUMPDEST PUSH1 0x40 MLOAD DUP1 SWAP2 SUB SWAP1 RETURN JUMPDEST PUSH2 0x2C4 PUSH1 0x4 DUP1 CALLDATASIZE SUB DUP2 ADD SWAP1 PUSH2 0x2BF SWAP2 SWAP1 PUSH2 0x3A64 JUMP JUMPDEST PUSH2 0x7E6 JUMP JUMPDEST STOP JUMPDEST PUSH2 0x2CE PUSH2 0x132D JUMP JUMPDEST PUSH1 0x40 MLOAD PUSH2 0x2DB SWAP2 SWAP1 PUSH2 0x395A JUMP JUMPDEST PUSH1 0x40 MLOAD DUP1 SWAP2 SUB SWAP1 RETURN JUMPDEST PUSH2 0x2FE PUSH1 0x4 DUP1 CALLDATASIZE SUB DUP2 ADD SWAP1 PUSH2 0x2F9 SWAP2 SWAP1 PUSH2 0x3AFE JUMP JUMPDEST PUSH2 0x1351 JUMP JUMPDEST PUSH1 0x40 MLOAD PUSH2 0x30B SWAP2 SWAP1 PUSH2 0x3781 JUMP JUMPDEST PUSH1 0x40 MLOAD DUP1 SWAP2 SUB SWAP1 RETURN JUMPDEST PUSH2 0x31C PUSH2 0x1399 JUMP JUMPDEST PUSH1 0x40 MLOAD PUSH2 0x329 SWAP2 SWAP1 PUSH2 0x382C JUMP JUMPDEST PUSH1 0x40 MLOAD DUP1 SWAP2 SUB SWAP1 RETURN JUMPDEST PUSH2 0x34C PUSH1 0x4 DUP1 CALLDATASIZE SUB DUP2 ADD SWAP1 PUSH2 0x347 SWAP2 SWAP1 PUSH2 0x38D5 JUMP JUMPDEST PUSH2 0x142B JUMP JUMPDEST PUSH1 0x40 MLOAD PUSH2 0x359 SWAP2 SWAP1 PUSH2 0x3930 JUMP JUMPDEST PUSH1 0x40 MLOAD DUP1 SWAP2 SUB SWAP1 RETURN JUMPDEST PUSH2 0x37C PUSH1 0x4 DUP1 CALLDATASIZE SUB DUP2 ADD SWAP1 PUSH2 0x377 SWAP2 SWAP1 PUSH2 0x3B2B JUMP JUMPDEST PUSH2 0x144E JUMP JUMPDEST PUSH1 0x40 MLOAD PUSH2 0x389 SWAP2 SWAP1 PUSH2 0x3781 JUMP JUMPDEST PUSH1 0x40 MLOAD DUP1 SWAP2 SUB SWAP1 RETURN JUMPDEST PUSH2 0x3AC PUSH1 0x4 DUP1 CALLDATASIZE SUB DUP2 ADD SWAP1 PUSH2 0x3A7 SWAP2 SWAP1 PUSH2 0x3B6B JUMP JUMPDEST PUSH2 0x1715 JUMP JUMPDEST PUSH1 0x40 MLOAD PUSH2 0x3BA SWAP3 SWAP2 SWAP1 PUSH2 0x384E JUMP JUMPDEST PUSH1 0x40 MLOAD DUP1 SWAP2 SUB SWAP1 RETURN JUMPDEST PUSH2 0x3DD PUSH1 0x4 DUP1 CALLDATASIZE SUB DUP2 ADD SWAP1 PUSH2 0x3D8 SWAP2 SWAP1 PUSH2 0x3AFE JUMP JUMPDEST PUSH2 0x1FDE JUMP JUMPDEST PUSH1 0x40 MLOAD PUSH2 0x3EA SWAP2 SWAP1 PUSH2 0x3781 JUMP JUMPDEST PUSH1 0x40 MLOAD DUP1 SWAP2 SUB SWAP1 RETURN JUMPDEST PUSH2 0x3FB PUSH2 0x202C JUMP JUMPDEST PUSH1 0x40 MLOAD PUSH2 0x409 SWAP3 SWAP2 SWAP1 PUSH2 0x3C0D JUMP JUMPDEST PUSH1 0x40 MLOAD DUP1 SWAP2 SUB SWAP1 RETURN JUMPDEST PUSH2 0x41A PUSH2 0x20B5 JUMP JUMPDEST PUSH1 0x40 MLOAD PUSH2 0x427 SWAP2 SWAP1 PUSH2 0x3781 JUMP JUMPDEST PUSH1 0x40 MLOAD DUP1 SWAP2 SUB SWAP1 RETURN JUMPDEST PUSH2 0x44A PUSH1 0x4 DUP1 CALLDATASIZE SUB DUP2 ADD SWAP1 PUSH2 0x445 SWAP2 SWAP1 PUSH2 0x3B2B JUMP JUMPDEST PUSH2 0x20BB JUMP JUMPDEST PUSH1 0x40 MLOAD PUSH2 0x457 SWAP2 SWAP1 PUSH2 0x3781 JUMP JUMPDEST PUSH1 0x40 MLOAD DUP1 SWAP2 SUB SWAP1 RETURN JUMPDEST PUSH2 0x47A PUSH1 0x4 DUP1 CALLDATASIZE SUB DUP2 ADD SWAP1 PUSH2 0x475 SWAP2 SWAP1 PUSH2 0x3C36 JUMP JUMPDEST PUSH2 0x2142 JUMP JUMPDEST PUSH1 0x40 MLOAD PUSH2 0x489 SWAP4 SWAP3 SWAP2 SWAP1 PUSH2 0x3CEC JUMP JUMPDEST PUSH1 0x40 MLOAD DUP1 SWAP2 SUB SWAP1 RETURN JUMPDEST PUSH1 0x0 PUSH2 0x4A8 PUSH8 0x45885852D40E0DC1 PUSH1 0xC0 SHL PUSH2 0x2C97 JUMP JUMPDEST PUSH2 0x4BC PUSH8 0xCC406348BD465FAC PUSH1 0xC0 SHL PUSH2 0x2C97 JUMP JUMPDEST PUSH2 0x4D0 PUSH8 0x77DD3BD7D3F6AF58 PUSH1 0xC0 SHL PUSH2 0x2C97 JUMP JUMPDEST PUSH2 0x4E4 PUSH8 0x1711D17AE5985F2C PUSH1 0xC0 SHL PUSH2 0x2C97 JUMP JUMPDEST PUSH1 0x0 DUP5 GT PUSH2 0x527 JUMPI PUSH1 0x40 MLOAD PUSH32 0x8C379A000000000000000000000000000000000000000000000000000000000 DUP2 MSTORE PUSH1 0x4 ADD PUSH2 0x51E SWAP1 PUSH2 0x3D6F JUMP JUMPDEST PUSH1 0x40 MLOAD DUP1 SWAP2 SUB SWAP1 REVERT JUMPDEST PUSH2 0x53B PUSH8 0xE6749F6A3FBC39F4 PUSH1 0xC0 SHL PUSH2 0x2C97 JUMP JUMPDEST PUSH2 0x54F PUSH8 0x661748F238FA5DFF PUSH1 0xC0 SHL PUSH2 0x2C97 JUMP JUMPDEST PUSH2 0x563 PUSH8 0x8A7A73713157F369 PUSH1 0xC0 SHL PUSH2 0x2C97 JUMP JUMPDEST PUSH2 0x577 PUSH8 0xDB3F6F027E7A673B PUSH1 0xC0 SHL PUSH2 0x2C97 JUMP JUMPDEST PUSH1 0x0 DUP4 GT DUP1 ISZERO PUSH2 0x587 JUMPI POP PUSH1 0x0 DUP3 GT JUMPDEST PUSH2 0x5C6 JUMPI PUSH1 0x40 MLOAD PUSH32 0x8C379A000000000000000000000000000000000000000000000000000000000 DUP2 MSTORE PUSH1 0x4 ADD PUSH2 0x5BD SWAP1 PUSH2 0x3DDB JUMP JUMPDEST PUSH1 0x40 MLOAD DUP1 SWAP2 SUB SWAP1 REVERT JUMPDEST PUSH2 0x5DA PUSH8 0x7F57C74ACFBE6A36 PUSH1 0xC0 SHL PUSH2 0x2C97 JUMP JUMPDEST PUSH2 0x5EE PUSH8 0xB787CC43F950D3C7 PUSH1 0xC0 SHL PUSH2 0x2C97 JUMP JUMPDEST PUSH2 0x602 PUSH8 0x9665F6B43620D13 PUSH1 0xC0 SHL PUSH2 0x2C97 JUMP JUMPDEST DUP4 DUP4 PUSH2 0x60E SWAP2 SWAP1 PUSH2 0x3E2A JUMP JUMPDEST DUP3 DUP6 PUSH2 0x61A SWAP2 SWAP1 PUSH2 0x3E5E JUMP JUMPDEST PUSH2 0x624 SWAP2 SWAP1 PUSH2 0x3ECF JUMP JUMPDEST SWAP1 POP SWAP4 SWAP3 POP POP POP JUMP JUMPDEST PUSH1 0x60 PUSH1 0x3 DUP1 SLOAD PUSH2 0x63C SWAP1 PUSH2 0x3F2F JUMP JUMPDEST DUP1 PUSH1 0x1F ADD PUSH1 0x20 DUP1 SWAP2 DIV MUL PUSH1 0x20 ADD PUSH1 0x40 MLOAD SWAP1 DUP2 ADD PUSH1 0x40 MSTORE DUP1 SWAP3 SWAP2 SWAP1 DUP2 DUP2 MSTORE PUSH1 0x20 ADD DUP3 DUP1 SLOAD PUSH2 0x668 SWAP1 PUSH2 0x3F2F JUMP JUMPDEST DUP1 ISZERO PUSH2 0x6B5 JUMPI DUP1 PUSH1 0x1F LT PUSH2 0x68A JUMPI PUSH2 0x100 DUP1 DUP4 SLOAD DIV MUL DUP4 MSTORE SWAP2 PUSH1 0x20 ADD SWAP2 PUSH2 0x6B5 JUMP JUMPDEST DUP3 ADD SWAP2 SWAP1 PUSH1 0x0 MSTORE PUSH1 0x20 PUSH1 0x0 KECCAK256 SWAP1 JUMPDEST DUP2 SLOAD DUP2 MSTORE SWAP1 PUSH1 0x1 ADD SWAP1 PUSH1 0x20 ADD DUP1 DUP4 GT PUSH2 0x698 JUMPI DUP3 SWAP1 SUB PUSH1 0x1F AND DUP3 ADD SWAP2 JUMPDEST POP POP POP POP POP SWAP1 POP SWAP1 JUMP JUMPDEST PUSH1 0x0 DUP1 PUSH2 0x6D6 PUSH8 0x7EC1B4F51CB127C7 PUSH1 0xC0 SHL PUSH2 0x2C97 JUMP JUMPDEST PUSH2 0x6EA PUSH8 0x1B5ECAD937F3498A PUSH1 0xC0 SHL PUSH2 0x2C97 JUMP JUMPDEST PUSH1 0x5 SLOAD SWAP2 POP PUSH2 0x703 PUSH8 0x5047AEF63BB3C9B2 PUSH1 0xC0 SHL PUSH2 0x2C97 JUMP JUMPDEST PUSH1 0x6 SLOAD SWAP1 POP SWAP1 SWAP2 JUMP JUMPDEST PUSH1 0x0 DUP1 PUSH2 0x717 PUSH2 0x2C9A JUMP JUMPDEST SWAP1 POP PUSH2 0x724 DUP2 DUP6 DUP6 PUSH2 0x2CA2 JUMP JUMPDEST PUSH1 0x1 SWAP2 POP POP SWAP3 SWAP2 POP POP JUMP JUMPDEST PUSH32 0x0 DUP2 JUMP JUMPDEST PUSH1 0x0 PUSH1 0x2 SLOAD SWAP1 POP SWAP1 JUMP JUMPDEST PUSH1 0x6 SLOAD DUP2 JUMP JUMPDEST PUSH1 0x0 DUP1 PUSH2 0x76E PUSH2 0x2C9A JUMP JUMPDEST SWAP1 POP PUSH2 0x77B DUP6 DUP3 DUP6 PUSH2 0x2CB4 JUMP JUMPDEST PUSH2 0x786 DUP6 DUP6 DUP6 PUSH2 0x2D49 JUMP JUMPDEST PUSH1 0x1 SWAP2 POP POP SWAP4 SWAP3 POP POP POP JUMP JUMPDEST PUSH1 0x0 PUSH1 0x12 SWAP1 POP SWAP1 JUMP JUMPDEST PUSH1 0x0 PUSH2 0x7B1 PUSH8 0x944CE4A2AFD85D0A PUSH1 0xC0 SHL PUSH2 0x2C97 JUMP JUMPDEST PUSH2 0x7C5 PUSH8 0x9635DC225399734A PUSH1 0xC0 SHL PUSH2 0x2C97 JUMP JUMPDEST PUSH2 0x7D9 PUSH8 0x9FFE2682A19C1161 PUSH1 0xC0 SHL PUSH2 0x2C97 JUMP JUMPDEST PUSH2 0x7E1 PUSH2 0x753 JUMP JUMPDEST SWAP1 POP SWAP1 JUMP JUMPDEST PUSH2 0x7FA PUSH8 0xB8A82AB07722DC7B PUSH1 0xC0 SHL PUSH2 0x2C97 JUMP JUMPDEST DUP1 PUSH2 0x80F PUSH8 0x220F51BFDD73785 PUSH1 0xC0 SHL PUSH2 0x2C97 JUMP JUMPDEST PUSH2 0x823 PUSH8 0x1011DA974D5AB0B4 PUSH1 0xC0 SHL PUSH2 0x2C97 JUMP JUMPDEST PUSH2 0x837 PUSH8 0x402FB3CCFCD0027B PUSH1 0xC0 SHL PUSH2 0x2C97 JUMP JUMPDEST PUSH2 0x84B PUSH8 0x39328D1521EF77CF PUSH1 0xC0 SHL PUSH2 0x2C97 JUMP JUMPDEST TIMESTAMP DUP2 LT ISZERO PUSH2 0x88E JUMPI PUSH1 0x40 MLOAD PUSH32 0x8C379A000000000000000000000000000000000000000000000000000000000 DUP2 MSTORE PUSH1 0x4 ADD PUSH2 0x885 SWAP1 PUSH2 0x3FAC JUMP JUMPDEST PUSH1 0x40 MLOAD DUP1 SWAP2 SUB SWAP1 REVERT JUMPDEST PUSH2 0x8A2 PUSH8 0xD4A7911AC2130532 PUSH1 0xC0 SHL PUSH2 0x2C97 JUMP JUMPDEST PUSH2 0x8B6 PUSH8 0x466EBD5660F2E1ED PUSH1 0xC0 SHL PUSH2 0x2C97 JUMP JUMPDEST PUSH2 0x8CA PUSH8 0xD447FAAFE09CDEDD PUSH1 0xC0 SHL PUSH2 0x2C97 JUMP JUMPDEST PUSH2 0x8DE PUSH8 0xC48BD5E7ADA1AF66 PUSH1 0xC0 SHL PUSH2 0x2C97 JUMP JUMPDEST PUSH2 0x8F2 PUSH8 0x52AD19620A8674A7 PUSH1 0xC0 SHL PUSH2 0x2C97 JUMP JUMPDEST PUSH2 0x906 PUSH8 0x833D6125C2F57E84 PUSH1 0xC0 SHL PUSH2 0x2C97 JUMP JUMPDEST PUSH2 0x91A PUSH8 0x91A4B3A25F0913B PUSH1 0xC0 SHL PUSH2 0x2C97 JUMP JUMPDEST PUSH1 0x2 DUP6 DUP6 SWAP1 POP EQ PUSH2 0x960 JUMPI PUSH1 0x40 MLOAD PUSH32 0x8C379A000000000000000000000000000000000000000000000000000000000 DUP2 MSTORE PUSH1 0x4 ADD PUSH2 0x957 SWAP1 PUSH2 0x4018 JUMP JUMPDEST PUSH1 0x40 MLOAD DUP1 SWAP2 SUB SWAP1 REVERT JUMPDEST PUSH2 0x974 PUSH8 0x8C2C2A654258075D PUSH1 0xC0 SHL PUSH2 0x2C97 JUMP JUMPDEST PUSH2 0x988 PUSH8 0x73165956AC3DDC4E PUSH1 0xC0 SHL PUSH2 0x2C97 JUMP JUMPDEST PUSH2 0x99C PUSH8 0x3113A0FA857E9A94 PUSH1 0xC0 SHL PUSH2 0x2C97 JUMP JUMPDEST PUSH2 0x9B0 PUSH8 0xCE11DF74BF55E1FE PUSH1 0xC0 SHL PUSH2 0x2C97 JUMP JUMPDEST PUSH1 0x0 PUSH20 0xFFFFFFFFFFFFFFFFFFFFFFFFFFFFFFFFFFFFFFFF AND DUP4 PUSH20 0xFFFFFFFFFFFFFFFFFFFFFFFFFFFFFFFFFFFFFFFF AND SUB PUSH2 0xA1F JUMPI PUSH1 0x40 MLOAD PUSH32 0x8C379A000000000000000000000000000000000000000000000000000000000 DUP2 MSTORE PUSH1 0x4 ADD PUSH2 0xA16 SWAP1 PUSH2 0x4084 JUMP JUMPDEST PUSH1 0x40 MLOAD DUP1 SWAP2 SUB SWAP1 REVERT JUMPDEST PUSH2 0xA33 PUSH8 0x386DC0D66D66E7FD PUSH1 0xC0 SHL PUSH2 0x2C97 JUMP JUMPDEST PUSH2 0xA47 PUSH8 0x4BA5A10539D79840 PUSH1 0xC0 SHL PUSH2 0x2C97 JUMP JUMPDEST PUSH2 0xA5B PUSH8 0xB5AC3CE6E73EDB63 PUSH1 0xC0 SHL PUSH2 0x2C97 JUMP JUMPDEST PUSH2 0xA6F PUSH8 0xAF9D6CD5E74DFD27 PUSH1 0xC0 SHL PUSH2 0x2C97 JUMP JUMPDEST PUSH2 0xAC9 DUP6 DUP6 PUSH1 0x0 DUP2 DUP2 LT PUSH2 0xA86 JUMPI PUSH2 0xA85 PUSH2 0x40A4 JUMP JUMPDEST JUMPDEST SWAP1 POP PUSH1 0x20 MUL ADD PUSH1 0x20 DUP2 ADD SWAP1 PUSH2 0xA9B SWAP2 SWAP1 PUSH2 0x3AFE JUMP JUMPDEST DUP7 DUP7 PUSH1 0x1 DUP2 DUP2 LT PUSH2 0xAAF JUMPI PUSH2 0xAAE PUSH2 0x40A4 JUMP JUMPDEST JUMPDEST SWAP1 POP PUSH1 0x20 MUL ADD PUSH1 0x20 DUP2 ADD SWAP1 PUSH2 0xAC4 SWAP2 SWAP1 PUSH2 0x3AFE JUMP JUMPDEST PUSH2 0x2E3D JUMP JUMPDEST PUSH2 0xB08 JUMPI PUSH1 0x40 MLOAD PUSH32 0x8C379A000000000000000000000000000000000000000000000000000000000 DUP2 MSTORE PUSH1 0x4 ADD PUSH2 0xAFF SWAP1 PUSH2 0x411F JUMP JUMPDEST PUSH1 0x40 MLOAD DUP1 SWAP2 SUB SWAP1 REVERT JUMPDEST PUSH2 0xB1C PUSH8 0x477BB8097D89095 PUSH1 0xC0 SHL PUSH2 0x2C97 JUMP JUMPDEST PUSH2 0xB30 PUSH8 0x1D9B6894EDC28E59 PUSH1 0xC0 SHL PUSH2 0x2C97 JUMP JUMPDEST PUSH2 0xB44 PUSH8 0x9DCAD50F5BC88DB PUSH1 0xC0 SHL PUSH2 0x2C97 JUMP JUMPDEST PUSH1 0x0 PUSH2 0xB5A PUSH8 0x1FEBC40F12220133 PUSH1 0xC0 SHL PUSH2 0x2C97 JUMP JUMPDEST PUSH2 0xB6E PUSH8 0xECCF2E8D6C64C475 PUSH1 0xC0 SHL PUSH2 0x2C97 JUMP JUMPDEST PUSH2 0xB82 PUSH8 0x4512E0F15D617253 PUSH1 0xC0 SHL PUSH2 0x2C97 JUMP JUMPDEST PUSH1 0x0 PUSH1 0x5 SLOAD SWAP1 POP PUSH2 0xB9D PUSH8 0x1B2D97F0F9C35AFD PUSH1 0xC0 SHL PUSH2 0x2C97 JUMP JUMPDEST PUSH2 0xBB1 PUSH8 0x785E865EC658BB0 PUSH1 0xC0 SHL PUSH2 0x2C97 JUMP JUMPDEST PUSH1 0x0 PUSH1 0x6 SLOAD SWAP1 POP PUSH2 0xBCC PUSH8 0xCE6DE89859A88805 PUSH1 0xC0 SHL PUSH2 0x2C97 JUMP JUMPDEST PUSH2 0xBE0 PUSH8 0xB7DC9400C6AB8818 PUSH1 0xC0 SHL PUSH2 0x2C97 JUMP JUMPDEST PUSH1 0x0 PUSH32 0x0 PUSH20 0xFFFFFFFFFFFFFFFFFFFFFFFFFFFFFFFFFFFFFFFF AND DUP10 DUP10 PUSH1 0x0 DUP2 DUP2 LT PUSH2 0xC2D JUMPI PUSH2 0xC2C PUSH2 0x40A4 JUMP JUMPDEST JUMPDEST SWAP1 POP PUSH1 0x20 MUL ADD PUSH1 0x20 DUP2 ADD SWAP1 PUSH2 0xC42 SWAP2 SWAP1 PUSH2 0x3AFE JUMP JUMPDEST PUSH20 0xFFFFFFFFFFFFFFFFFFFFFFFFFFFFFFFFFFFFFFFF AND EQ DUP1 PUSH2 0xC74 JUMPI POP PUSH2 0xC73 PUSH8 0x2102AB7F04C9B9D PUSH1 0xC0 SHL PUSH2 0x300E JUMP JUMPDEST JUMPDEST DUP1 ISZERO PUSH2 0xC90 JUMPI POP PUSH2 0xC8F PUSH8 0x3E390068972BBBB3 PUSH1 0xC0 SHL PUSH2 0x3015 JUMP JUMPDEST JUMPDEST PUSH2 0xC9A JUMPI DUP2 PUSH2 0xC9C JUMP JUMPDEST DUP3 JUMPDEST SWAP1 POP PUSH2 0xCB2 PUSH8 0x75F6C4EBA11DDF96 PUSH1 0xC0 SHL PUSH2 0x2C97 JUMP JUMPDEST PUSH2 0xCC6 PUSH8 0x1B180D3326093A5D PUSH1 0xC0 SHL PUSH2 0x2C97 JUMP JUMPDEST PUSH1 0x0 PUSH32 0x0 PUSH20 0xFFFFFFFFFFFFFFFFFFFFFFFFFFFFFFFFFFFFFFFF AND DUP11 DUP11 PUSH1 0x1 DUP2 DUP2 LT PUSH2 0xD13 JUMPI PUSH2 0xD12 PUSH2 0x40A4 JUMP JUMPDEST JUMPDEST SWAP1 POP PUSH1 0x20 MUL ADD PUSH1 0x20 DUP2 ADD SWAP1 PUSH2 0xD28 SWAP2 SWAP1 PUSH2 0x3AFE JUMP JUMPDEST PUSH20 0xFFFFFFFFFFFFFFFFFFFFFFFFFFFFFFFFFFFFFFFF AND EQ DUP1 PUSH2 0xD5A JUMPI POP PUSH2 0xD59 PUSH8 0x68855D627BC55841 PUSH1 0xC0 SHL PUSH2 0x300E JUMP JUMPDEST JUMPDEST DUP1 ISZERO PUSH2 0xD76 JUMPI POP PUSH2 0xD75 PUSH8 0x246466BD4F96DB90 PUSH1 0xC0 SHL PUSH2 0x3015 JUMP JUMPDEST JUMPDEST PUSH2 0xD80 JUMPI DUP3 PUSH2 0xD82 JUMP JUMPDEST DUP4 JUMPDEST SWAP1 POP PUSH2 0xD98 PUSH8 0x3A2E3C130BCCCE41 PUSH1 0xC0 SHL PUSH2 0x2C97 JUMP JUMPDEST PUSH2 0xDA3 DUP13 DUP4 DUP4 PUSH2 0x492 JUMP JUMPDEST SWAP5 POP PUSH2 0xDB9 PUSH8 0xE5CDE70BF9F6C466 PUSH1 0xC0 SHL PUSH2 0x2C97 JUMP JUMPDEST PUSH2 0xDCD PUSH8 0xB370CF4210CEB4B8 PUSH1 0xC0 SHL PUSH2 0x2C97 JUMP JUMPDEST PUSH2 0xDE1 PUSH8 0xDD6294429B951790 PUSH1 0xC0 SHL PUSH2 0x2C97 JUMP JUMPDEST DUP11 DUP6 LT ISZERO PUSH2 0xE24 JUMPI PUSH1 0x40 MLOAD PUSH32 0x8C379A000000000000000000000000000000000000000000000000000000000 DUP2 MSTORE PUSH1 0x4 ADD PUSH2 0xE1B SWAP1 PUSH2 0x418B JUMP JUMPDEST PUSH1 0x40 MLOAD DUP1 SWAP2 SUB SWAP1 REVERT JUMPDEST PUSH2 0xE38 PUSH8 0x34A1C5F6B98D9C82 PUSH1 0xC0 SHL PUSH2 0x2C97 JUMP JUMPDEST POP POP POP POP PUSH2 0xE50 PUSH8 0xD043A90D3A9B1161 PUSH1 0xC0 SHL PUSH2 0x2C97 JUMP JUMPDEST PUSH2 0xE64 PUSH8 0x9EA5100889277C3A PUSH1 0xC0 SHL PUSH2 0x2C97 JUMP JUMPDEST PUSH2 0xE78 PUSH8 0x8063DCEC5AB7E345 PUSH1 0xC0 SHL PUSH2 0x2C97 JUMP JUMPDEST DUP6 DUP6 PUSH1 0x0 DUP2 DUP2 LT PUSH2 0xE8C JUMPI PUSH2 0xE8B PUSH2 0x40A4 JUMP JUMPDEST JUMPDEST SWAP1 POP PUSH1 0x20 MUL ADD PUSH1 0x20 DUP2 ADD SWAP1 PUSH2 0xEA1 SWAP2 SWAP1 PUSH2 0x3AFE JUMP JUMPDEST PUSH20 0xFFFFFFFFFFFFFFFFFFFFFFFFFFFFFFFFFFFFFFFF AND PUSH4 0x23B872DD CALLER ADDRESS DUP12 PUSH1 0x40 MLOAD DUP5 PUSH4 0xFFFFFFFF AND PUSH1 0xE0 SHL DUP2 MSTORE PUSH1 0x4 ADD PUSH2 0xEDD SWAP4 SWAP3 SWAP2 SWAP1 PUSH2 0x41AB JUMP JUMPDEST PUSH1 0x20 PUSH1 0x40 MLOAD DUP1 DUP4 SUB DUP2 PUSH1 0x0 DUP8 GAS CALL ISZERO DUP1 ISZERO PUSH2 0xEFC JUMPI RETURNDATASIZE PUSH1 0x0 DUP1 RETURNDATACOPY RETURNDATASIZE PUSH1 0x0 REVERT JUMPDEST POP POP POP POP PUSH1 0x40 MLOAD RETURNDATASIZE PUSH1 0x1F NOT PUSH1 0x1F DUP3 ADD AND DUP3 ADD DUP1 PUSH1 0x40 MSTORE POP DUP2 ADD SWAP1 PUSH2 0xF20 SWAP2 SWAP1 PUSH2 0x420E JUMP JUMPDEST PUSH2 0xF5F JUMPI PUSH1 0x40 MLOAD PUSH32 0x8C379A000000000000000000000000000000000000000000000000000000000 DUP2 MSTORE PUSH1 0x4 ADD PUSH2 0xF56 SWAP1 PUSH2 0x4287 JUMP JUMPDEST PUSH1 0x40 MLOAD DUP1 SWAP2 SUB SWAP1 REVERT JUMPDEST PUSH2 0xF73 PUSH8 0xEA2DA7B59C9A5A31 PUSH1 0xC0 SHL PUSH2 0x2C97 JUMP JUMPDEST PUSH2 0xF87 PUSH8 0x7ECA0B5582BC3728 PUSH1 0xC0 SHL PUSH2 0x2C97 JUMP JUMPDEST PUSH2 0xF9B PUSH8 0x59BCEFC16CEE2801 PUSH1 0xC0 SHL PUSH2 0x2C97 JUMP JUMPDEST PUSH2 0xFAF PUSH8 0x2D0FE6D410B66074 PUSH1 0xC0 SHL PUSH2 0x2C97 JUMP JUMPDEST DUP6 DUP6 PUSH1 0x1 DUP2 DUP2 LT PUSH2 0xFC3 JUMPI PUSH2 0xFC2 PUSH2 0x40A4 JUMP JUMPDEST JUMPDEST SWAP1 POP PUSH1 0x20 MUL ADD PUSH1 0x20 DUP2 ADD SWAP1 PUSH2 0xFD8 SWAP2 SWAP1 PUSH2 0x3AFE JUMP JUMPDEST PUSH20 0xFFFFFFFFFFFFFFFFFFFFFFFFFFFFFFFFFFFFFFFF AND PUSH4 0xA9059CBB DUP6 DUP4 PUSH1 0x40 MLOAD DUP4 PUSH4 0xFFFFFFFF AND PUSH1 0xE0 SHL DUP2 MSTORE PUSH1 0x4 ADD PUSH2 0x1012 SWAP3 SWAP2 SWAP1 PUSH2 0x42A7 JUMP JUMPDEST PUSH1 0x20 PUSH1 0x40 MLOAD DUP1 DUP4 SUB DUP2 PUSH1 0x0 DUP8 GAS CALL ISZERO DUP1 ISZERO PUSH2 0x1031 JUMPI RETURNDATASIZE PUSH1 0x0 DUP1 RETURNDATACOPY RETURNDATASIZE PUSH1 0x0 REVERT JUMPDEST POP POP POP POP PUSH1 0x40 MLOAD RETURNDATASIZE PUSH1 0x1F NOT PUSH1 0x1F DUP3 ADD AND DUP3 ADD DUP1 PUSH1 0x40 MSTORE POP DUP2 ADD SWAP1 PUSH2 0x1055 SWAP2 SWAP1 PUSH2 0x420E JUMP JUMPDEST PUSH2 0x1094 JUMPI PUSH1 0x40 MLOAD PUSH32 0x8C379A000000000000000000000000000000000000000000000000000000000 DUP2 MSTORE PUSH1 0x4 ADD PUSH2 0x108B SWAP1 PUSH2 0x431C JUMP JUMPDEST PUSH1 0x40 MLOAD DUP1 SWAP2 SUB SWAP1 REVERT JUMPDEST PUSH2 0x10A8 PUSH8 0xD098083F06847623 PUSH1 0xC0 SHL PUSH2 0x2C97 JUMP JUMPDEST PUSH2 0x10BC PUSH8 0x4F710A8D96994FBE PUSH1 0xC0 SHL PUSH2 0x2C97 JUMP JUMPDEST PUSH2 0x10D0 PUSH8 0xEF9C22C66062100 PUSH1 0xC0 SHL PUSH2 0x2C97 JUMP JUMPDEST PUSH32 0x0 PUSH20 0xFFFFFFFFFFFFFFFFFFFFFFFFFFFFFFFFFFFFFFFF AND DUP7 DUP7 PUSH1 0x0 DUP2 DUP2 LT PUSH2 0x111B JUMPI PUSH2 0x111A PUSH2 0x40A4 JUMP JUMPDEST JUMPDEST SWAP1 POP PUSH1 0x20 MUL ADD PUSH1 0x20 DUP2 ADD SWAP1 PUSH2 0x1130 SWAP2 SWAP1 PUSH2 0x3AFE JUMP JUMPDEST PUSH20 0xFFFFFFFFFFFFFFFFFFFFFFFFFFFFFFFFFFFFFFFF AND SUB PUSH2 0x11BE JUMPI PUSH2 0x115F PUSH8 0x9533E1FA37053F58 PUSH1 0xC0 SHL PUSH2 0x2C97 JUMP JUMPDEST PUSH2 0x1173 PUSH8 0xEAE41748BB8ACC2D PUSH1 0xC0 SHL PUSH2 0x2C97 JUMP JUMPDEST DUP8 PUSH1 0x5 PUSH1 0x0 DUP3 DUP3 SLOAD PUSH2 0x1185 SWAP2 SWAP1 PUSH2 0x3E2A JUMP JUMPDEST SWAP3 POP POP DUP2 SWAP1 SSTORE POP PUSH2 0x11A0 PUSH8 0xCFC2B99594A5F674 PUSH1 0xC0 SHL PUSH2 0x2C97 JUMP JUMPDEST DUP1 PUSH1 0x6 PUSH1 0x0 DUP3 DUP3 SLOAD PUSH2 0x11B2 SWAP2 SWAP1 PUSH2 0x433C JUMP JUMPDEST SWAP3 POP POP DUP2 SWAP1 SSTORE POP PUSH2 0x122D JUMP JUMPDEST PUSH2 0x11D2 PUSH8 0xFBA55DED49E61537 PUSH1 0xC0 SHL PUSH2 0x2C97 JUMP JUMPDEST PUSH2 0x11E6 PUSH8 0xBFF23C8781EC5C4F PUSH1 0xC0 SHL PUSH2 0x2C97 JUMP JUMPDEST DUP8 PUSH1 0x6 PUSH1 0x0 DUP3 DUP3 SLOAD PUSH2 0x11F8 SWAP2 SWAP1 PUSH2 0x3E2A JUMP JUMPDEST SWAP3 POP POP DUP2 SWAP1 SSTORE POP PUSH2 0x1213 PUSH8 0xA10CE20C8FB5A1B1 PUSH1 0xC0 SHL PUSH2 0x2C97 JUMP JUMPDEST DUP1 PUSH1 0x5 PUSH1 0x0 DUP3 DUP3 SLOAD PUSH2 0x1225 SWAP2 SWAP1 PUSH2 0x433C JUMP JUMPDEST SWAP3 POP POP DUP2 SWAP1 SSTORE POP JUMPDEST PUSH2 0x1241 PUSH8 0x52CC1CD9E179DC07 PUSH1 0xC0 SHL PUSH2 0x2C97 JUMP JUMPDEST PUSH2 0x1255 PUSH8 0xA062E425421B2D20 PUSH1 0xC0 SHL PUSH2 0x2C97 JUMP JUMPDEST DUP6 DUP6 PUSH1 0x1 DUP2 DUP2 LT PUSH2 0x1269 JUMPI PUSH2 0x1268 PUSH2 0x40A4 JUMP JUMPDEST JUMPDEST SWAP1 POP PUSH1 0x20 MUL ADD PUSH1 0x20 DUP2 ADD SWAP1 PUSH2 0x127E SWAP2 SWAP1 PUSH2 0x3AFE JUMP JUMPDEST PUSH20 0xFFFFFFFFFFFFFFFFFFFFFFFFFFFFFFFFFFFFFFFF AND DUP7 DUP7 PUSH1 0x0 DUP2 DUP2 LT PUSH2 0x12A8 JUMPI PUSH2 0x12A7 PUSH2 0x40A4 JUMP JUMPDEST JUMPDEST SWAP1 POP PUSH1 0x20 MUL ADD PUSH1 0x20 DUP2 ADD SWAP1 PUSH2 0x12BD SWAP2 SWAP1 PUSH2 0x3AFE JUMP JUMPDEST PUSH20 0xFFFFFFFFFFFFFFFFFFFFFFFFFFFFFFFFFFFFFFFF AND CALLER PUSH20 0xFFFFFFFFFFFFFFFFFFFFFFFFFFFFFFFFFFFFFFFF AND PUSH32 0xAD56699D0F375866EB895ED27203058A36A713382AADED78EB6B67DA266D4332 DUP12 DUP6 PUSH1 0x40 MLOAD PUSH2 0x131B SWAP3 SWAP2 SWAP1 PUSH2 0x384E JUMP JUMPDEST PUSH1 0x40 MLOAD DUP1 SWAP2 SUB SWAP1 LOG4 POP POP POP POP POP POP POP POP JUMP JUMPDEST PUSH32 0x0 DUP2 JUMP JUMPDEST PUSH1 0x0 DUP1 PUSH1 0x0 DUP4 PUSH20 0xFFFFFFFFFFFFFFFFFFFFFFFFFFFFFFFFFFFFFFFF AND PUSH20 0xFFFFFFFFFFFFFFFFFFFFFFFFFFFFFFFFFFFFFFFF AND DUP2 MSTORE PUSH1 0x20 ADD SWAP1 DUP2 MSTORE PUSH1 0x20 ADD PUSH1 0x0 KECCAK256 SLOAD SWAP1 POP SWAP2 SWAP1 POP JUMP JUMPDEST PUSH1 0x60 PUSH1 0x4 DUP1 SLOAD PUSH2 0x13A8 SWAP1 PUSH2 0x3F2F JUMP JUMPDEST DUP1 PUSH1 0x1F ADD PUSH1 0x20 DUP1 SWAP2 DIV MUL PUSH1 0x20 ADD PUSH1 0x40 MLOAD SWAP1 DUP2 ADD PUSH1 0x40 MSTORE DUP1 SWAP3 SWAP2 SWAP1 DUP2 DUP2 MSTORE PUSH1 0x20 ADD DUP3 DUP1 SLOAD PUSH2 0x13D4 SWAP1 PUSH2 0x3F2F JUMP JUMPDEST DUP1 ISZERO PUSH2 0x1421 JUMPI DUP1 PUSH1 0x1F LT PUSH2 0x13F6 JUMPI PUSH2 0x100 DUP1 DUP4 SLOAD DIV MUL DUP4 MSTORE SWAP2 PUSH1 0x20 ADD SWAP2 PUSH2 0x1421 JUMP JUMPDEST DUP3 ADD SWAP2 SWAP1 PUSH1 0x0 MSTORE PUSH1 0x20 PUSH1 0x0 KECCAK256 SWAP1 JUMPDEST DUP2 SLOAD DUP2 MSTORE SWAP1 PUSH1 0x1 ADD SWAP1 PUSH1 0x20 ADD DUP1 DUP4 GT PUSH2 0x1404 JUMPI DUP3 SWAP1 SUB PUSH1 0x1F AND DUP3 ADD SWAP2 JUMPDEST POP POP POP POP POP SWAP1 POP SWAP1 JUMP JUMPDEST PUSH1 0x0 DUP1 PUSH2 0x1436 PUSH2 0x2C9A JUMP JUMPDEST SWAP1 POP PUSH2 0x1443 DUP2 DUP6 DUP6 PUSH2 0x2D49 JUMP JUMPDEST PUSH1 0x1 SWAP2 POP POP SWAP3 SWAP2 POP POP JUMP JUMPDEST PUSH1 0x0 PUSH2 0x1464 PUSH8 0xB10C68E0852A3FD3 PUSH1 0xC0 SHL PUSH2 0x2C97 JUMP JUMPDEST PUSH2 0x1478 PUSH8 0x99C424714941161A PUSH1 0xC0 SHL PUSH2 0x2C97 JUMP JUMPDEST PUSH2 0x148C PUSH8 0xDCCC5BED7A6193B6 PUSH1 0xC0 SHL PUSH2 0x2C97 JUMP JUMPDEST PUSH2 0x14A0 PUSH8 0x7B9262D0B879A513 PUSH1 0xC0 SHL PUSH2 0x2C97 JUMP JUMPDEST PUSH2 0x14AA DUP4 DUP4 PUSH2 0x2E3D JUMP JUMPDEST PUSH2 0x14E9 JUMPI PUSH1 0x40 MLOAD PUSH32 0x8C379A000000000000000000000000000000000000000000000000000000000 DUP2 MSTORE PUSH1 0x4 ADD PUSH2 0x14E0 SWAP1 PUSH2 0x411F JUMP JUMPDEST PUSH1 0x40 MLOAD DUP1 SWAP2 SUB SWAP1 REVERT JUMPDEST PUSH2 0x14FD PUSH8 0xF6E2DD36A6E0FFE8 PUSH1 0xC0 SHL PUSH2 0x2C97 JUMP JUMPDEST PUSH2 0x1511 PUSH8 0xD46C48A4C0EB12B PUSH1 0xC0 SHL PUSH2 0x2C97 JUMP JUMPDEST PUSH2 0x1525 PUSH8 0x6C177992B6FC16CD PUSH1 0xC0 SHL PUSH2 0x2C97 JUMP JUMPDEST PUSH1 0x0 PUSH1 0x5 SLOAD SWAP1 POP PUSH2 0x1540 PUSH8 0xF5FE3FE7D92F870E PUSH1 0xC0 SHL PUSH2 0x2C97 JUMP JUMPDEST PUSH2 0x1554 PUSH8 0x757677C9C9FDE72F PUSH1 0xC0 SHL PUSH2 0x2C97 JUMP JUMPDEST PUSH1 0x0 PUSH1 0x6 SLOAD SWAP1 POP PUSH2 0x156F PUSH8 0x5252D3BA98B91FF3 PUSH1 0xC0 SHL PUSH2 0x2C97 JUMP JUMPDEST PUSH2 0x1583 PUSH8 0x3057A5091D548752 PUSH1 0xC0 SHL PUSH2 0x2C97 JUMP JUMPDEST PUSH2 0x1597 PUSH8 0x65B05D1612492186 PUSH1 0xC0 SHL PUSH2 0x2C97 JUMP JUMPDEST PUSH1 0x0 DUP3 GT DUP1 ISZERO PUSH2 0x15A7 JUMPI POP PUSH1 0x0 DUP2 GT JUMPDEST PUSH2 0x15E6 JUMPI PUSH1 0x40 MLOAD PUSH32 0x8C379A000000000000000000000000000000000000000000000000000000000 DUP2 MSTORE PUSH1 0x4 ADD PUSH2 0x15DD SWAP1 PUSH2 0x3DDB JUMP JUMPDEST PUSH1 0x40 MLOAD DUP1 SWAP2 SUB SWAP1 REVERT JUMPDEST PUSH2 0x15FA PUSH8 0xC428A865C3A1885E PUSH1 0xC0 SHL PUSH2 0x2C97 JUMP JUMPDEST PUSH2 0x160E PUSH8 0x2845E2A7B7392936 PUSH1 0xC0 SHL PUSH2 0x2C97 JUMP JUMPDEST PUSH2 0x1622 PUSH8 0xAA7DC71FA7F5DF66 PUSH1 0xC0 SHL PUSH2 0x2C97 JUMP JUMPDEST PUSH32 0x0 PUSH20 0xFFFFFFFFFFFFFFFFFFFFFFFFFFFFFFFFFFFFFFFF AND DUP6 PUSH20 0xFFFFFFFFFFFFFFFFFFFFFFFFFFFFFFFFFFFFFFFF AND SUB PUSH2 0x16C3 JUMPI PUSH2 0x1689 PUSH8 0x808CACDFD21DE301 PUSH1 0xC0 SHL PUSH2 0x2C97 JUMP JUMPDEST PUSH2 0x169D PUSH8 0x47BBFB5E0BF2DD9C PUSH1 0xC0 SHL PUSH2 0x2C97 JUMP JUMPDEST DUP2 PUSH8 0xDE0B6B3A7640000 DUP3 PUSH2 0x16B2 SWAP2 SWAP1 PUSH2 0x3E5E JUMP JUMPDEST PUSH2 0x16BC SWAP2 SWAP1 PUSH2 0x3ECF JUMP JUMPDEST SWAP3 POP PUSH2 0x170D JUMP JUMPDEST PUSH2 0x16D7 PUSH8 0x5661FA2B06069716 PUSH1 0xC0 SHL PUSH2 0x2C97 JUMP JUMPDEST PUSH2 0x16EB PUSH8 0xD5CF8C555FFE6805 PUSH1 0xC0 SHL PUSH2 0x2C97 JUMP JUMPDEST DUP1 PUSH8 0xDE0B6B3A7640000 DUP4 PUSH2 0x1700 SWAP2 SWAP1 PUSH2 0x3E5E JUMP JUMPDEST PUSH2 0x170A SWAP2 SWAP1 PUSH2 0x3ECF JUMP JUMPDEST SWAP3 POP JUMPDEST POP POP SWAP3 SWAP2 POP POP JUMP JUMPDEST PUSH1 0x0 DUP1 PUSH2 0x172C PUSH8 0xA04A860517F310D0 PUSH1 0xC0 SHL PUSH2 0x2C97 JUMP JUMPDEST DUP3 PUSH2 0x1741 PUSH8 0x220F51BFDD73785 PUSH1 0xC0 SHL PUSH2 0x2C97 JUMP JUMPDEST PUSH2 0x1755 PUSH8 0x1011DA974D5AB0B4 PUSH1 0xC0 SHL PUSH2 0x2C97 JUMP JUMPDEST PUSH2 0x1769 PUSH8 0x402FB3CCFCD0027B PUSH1 0xC0 SHL PUSH2 0x2C97 JUMP JUMPDEST PUSH2 0x177D PUSH8 0x39328D1521EF77CF PUSH1 0xC0 SHL PUSH2 0x2C97 JUMP JUMPDEST TIMESTAMP DUP2 LT ISZERO PUSH2 0x17C0 JUMPI PUSH1 0x40 MLOAD PUSH32 0x8C379A000000000000000000000000000000000000000000000000000000000 DUP2 MSTORE PUSH1 0x4 ADD PUSH2 0x17B7 SWAP1 PUSH2 0x3FAC JUMP JUMPDEST PUSH1 0x40 MLOAD DUP1 SWAP2 SUB SWAP1 REVERT JUMPDEST PUSH2 0x17D4 PUSH8 0xD4A7911AC2130532 PUSH1 0xC0 SHL PUSH2 0x2C97 JUMP JUMPDEST PUSH2 0x17E8 PUSH8 0x466EBD5660F2E1ED PUSH1 0xC0 SHL PUSH2 0x2C97 JUMP JUMPDEST PUSH2 0x17FC PUSH8 0x7519DE243B02E7EF PUSH1 0xC0 SHL PUSH2 0x2C97 JUMP JUMPDEST PUSH2 0x1810 PUSH8 0x68E33C7E1998D02B PUSH1 0xC0 SHL PUSH2 0x2C97 JUMP JUMPDEST PUSH2 0x1824 PUSH8 0xCB7C4C132130228B PUSH1 0xC0 SHL PUSH2 0x2C97 JUMP JUMPDEST PUSH2 0x1838 PUSH8 0x774B03F489DA3249 PUSH1 0xC0 SHL PUSH2 0x2C97 JUMP JUMPDEST PUSH2 0x184C PUSH8 0xE6C74AC08B1F6C9A PUSH1 0xC0 SHL PUSH2 0x2C97 JUMP JUMPDEST PUSH2 0x1856 DUP11 DUP11 PUSH2 0x2E3D JUMP JUMPDEST PUSH2 0x1895 JUMPI PUSH1 0x40 MLOAD PUSH32 0x8C379A000000000000000000000000000000000000000000000000000000000 DUP2 MSTORE PUSH1 0x4 ADD PUSH2 0x188C SWAP1 PUSH2 0x411F JUMP JUMPDEST PUSH1 0x40 MLOAD DUP1 SWAP2 SUB SWAP1 REVERT JUMPDEST PUSH2 0x18A9 PUSH8 0x8EC81ABDF6709DBB PUSH1 0xC0 SHL PUSH2 0x2C97 JUMP JUMPDEST PUSH2 0x18BD PUSH8 0xCF0CBF8BB4D05E2E PUSH1 0xC0 SHL PUSH2 0x2C97 JUMP JUMPDEST PUSH2 0x18D1 PUSH8 0xF9B30A80A8946B81 PUSH1 0xC0 SHL PUSH2 0x2C97 JUMP JUMPDEST PUSH2 0x18E5 PUSH8 0x59A459448A07D69B PUSH1 0xC0 SHL PUSH2 0x2C97 JUMP JUMPDEST PUSH1 0x0 PUSH20 0xFFFFFFFFFFFFFFFFFFFFFFFFFFFFFFFFFFFFFFFF AND DUP6 PUSH20 0xFFFFFFFFFFFFFFFFFFFFFFFFFFFFFFFFFFFFFFFF AND SUB PUSH2 0x1954 JUMPI PUSH1 0x40 MLOAD PUSH32 0x8C379A000000000000000000000000000000000000000000000000000000000 DUP2 MSTORE PUSH1 0x4 ADD PUSH2 0x194B SWAP1 PUSH2 0x4084 JUMP JUMPDEST PUSH1 0x40 MLOAD DUP1 SWAP2 SUB SWAP1 REVERT JUMPDEST PUSH2 0x1968 PUSH8 0xB432826016CE11A3 PUSH1 0xC0 SHL PUSH2 0x2C97 JUMP JUMPDEST PUSH2 0x197C PUSH8 0x55A22155EB1F59F5 PUSH1 0xC0 SHL PUSH2 0x2C97 JUMP JUMPDEST PUSH2 0x1990 PUSH8 0x5EA65EDF6C1F5295 PUSH1 0xC0 SHL PUSH2 0x2C97 JUMP JUMPDEST PUSH2 0x19A4 PUSH8 0xD138957A3F7A1677 PUSH1 0xC0 SHL PUSH2 0x2C97 JUMP JUMPDEST PUSH1 0x0 DUP9 GT PUSH2 0x19E7 JUMPI PUSH1 0x40 MLOAD PUSH32 0x8C379A000000000000000000000000000000000000000000000000000000000 DUP2 MSTORE PUSH1 0x4 ADD PUSH2 0x19DE SWAP1 PUSH2 0x43BC JUMP JUMPDEST PUSH1 0x40 MLOAD DUP1 SWAP2 SUB SWAP1 REVERT JUMPDEST PUSH2 0x19FB PUSH8 0x2C6FB62944D8B7E7 PUSH1 0xC0 SHL PUSH2 0x2C97 JUMP JUMPDEST PUSH2 0x1A0F PUSH8 0xBD455CCBF23AF01 PUSH1 0xC0 SHL PUSH2 0x2C97 JUMP JUMPDEST PUSH2 0x1A23 PUSH8 0xBD789BA5334A0D40 PUSH1 0xC0 SHL PUSH2 0x2C97 JUMP JUMPDEST PUSH2 0x1A37 PUSH8 0xB7F7D206DDA7C52D PUSH1 0xC0 SHL PUSH2 0x2C97 JUMP JUMPDEST DUP8 PUSH2 0x1A41 CALLER PUSH2 0x1351 JUMP JUMPDEST LT ISZERO PUSH2 0x1A82 JUMPI PUSH1 0x40 MLOAD PUSH32 0x8C379A000000000000000000000000000000000000000000000000000000000 DUP2 MSTORE PUSH1 0x4 ADD PUSH2 0x1A79 SWAP1 PUSH2 0x4428 JUMP JUMPDEST PUSH1 0x40 MLOAD DUP1 SWAP2 SUB SWAP1 REVERT JUMPDEST PUSH2 0x1A96 PUSH8 0x88F645947E721831 PUSH1 0xC0 SHL PUSH2 0x2C97 JUMP JUMPDEST PUSH2 0x1AAA PUSH8 0x9D3DA8BFF63AA569 PUSH1 0xC0 SHL PUSH2 0x2C97 JUMP JUMPDEST PUSH2 0x1ABE PUSH8 0x4B7C531F0C7BDBF3 PUSH1 0xC0 SHL PUSH2 0x2C97 JUMP JUMPDEST PUSH2 0x1AD2 PUSH8 0x2C2E8EA30F9F666E PUSH1 0xC0 SHL PUSH2 0x2C97 JUMP JUMPDEST PUSH1 0x0 PUSH1 0x5 SLOAD SWAP1 POP PUSH2 0x1AED PUSH8 0x31319ABBED789A37 PUSH1 0xC0 SHL PUSH2 0x2C97 JUMP JUMPDEST PUSH2 0x1B01 PUSH8 0xBB70BBBB3FBFF0FD PUSH1 0xC0 SHL PUSH2 0x2C97 JUMP JUMPDEST PUSH1 0x0 PUSH1 0x6 SLOAD SWAP1 POP PUSH2 0x1B1C PUSH8 0xCDFA570AABF50BFB PUSH1 0xC0 SHL PUSH2 0x2C97 JUMP JUMPDEST PUSH2 0x1B30 PUSH8 0x7880813BF80AC403 PUSH1 0xC0 SHL PUSH2 0x2C97 JUMP JUMPDEST PUSH1 0x0 PUSH2 0x1B3A PUSH2 0x753 JUMP JUMPDEST SWAP1 POP PUSH2 0x1B50 PUSH8 0xF99FFA6A98721637 PUSH1 0xC0 SHL PUSH2 0x2C97 JUMP JUMPDEST DUP1 DUP4 DUP13 PUSH2 0x1B5D SWAP2 SWAP1 PUSH2 0x3E5E JUMP JUMPDEST PUSH2 0x1B67 SWAP2 SWAP1 PUSH2 0x3ECF JUMP JUMPDEST SWAP6 POP PUSH2 0x1B7D PUSH8 0xF98C2667F3F5E4BD PUSH1 0xC0 SHL PUSH2 0x2C97 JUMP JUMPDEST DUP1 DUP3 DUP13 PUSH2 0x1B8A SWAP2 SWAP1 PUSH2 0x3E5E JUMP JUMPDEST PUSH2 0x1B94 SWAP2 SWAP1 PUSH2 0x3ECF JUMP JUMPDEST SWAP5 POP PUSH2 0x1BAA PUSH8 0x740504FC3E6B85C6 PUSH1 0xC0 SHL PUSH2 0x2C97 JUMP JUMPDEST PUSH2 0x1BBE PUSH8 0x8FCCDE43E5686642 PUSH1 0xC0 SHL PUSH2 0x2C97 JUMP JUMPDEST PUSH2 0x1BD2 PUSH8 0x666088657FB0A857 PUSH1 0xC0 SHL PUSH2 0x2C97 JUMP JUMPDEST DUP10 DUP7 LT ISZERO PUSH2 0x1C15 JUMPI PUSH1 0x40 MLOAD PUSH32 0x8C379A000000000000000000000000000000000000000000000000000000000 DUP2 MSTORE PUSH1 0x4 ADD PUSH2 0x1C0C SWAP1 PUSH2 0x4494 JUMP JUMPDEST PUSH1 0x40 MLOAD DUP1 SWAP2 SUB SWAP1 REVERT JUMPDEST PUSH2 0x1C29 PUSH8 0xD8E96B54023D0677 PUSH1 0xC0 SHL PUSH2 0x2C97 JUMP JUMPDEST PUSH2 0x1C3D PUSH8 0x2C700E3595FD00C9 PUSH1 0xC0 SHL PUSH2 0x2C97 JUMP JUMPDEST PUSH2 0x1C51 PUSH8 0xFC3F3A0DF0CAE104 PUSH1 0xC0 SHL PUSH2 0x2C97 JUMP JUMPDEST PUSH2 0x1C65 PUSH8 0x3CF71BADCF31841B PUSH1 0xC0 SHL PUSH2 0x2C97 JUMP JUMPDEST DUP9 DUP6 LT ISZERO PUSH2 0x1CA8 JUMPI PUSH1 0x40 MLOAD PUSH32 0x8C379A000000000000000000000000000000000000000000000000000000000 DUP2 MSTORE PUSH1 0x4 ADD PUSH2 0x1C9F SWAP1 PUSH2 0x4500 JUMP JUMPDEST PUSH1 0x40 MLOAD DUP1 SWAP2 SUB SWAP1 REVERT JUMPDEST PUSH2 0x1CBC PUSH8 0xFD9EE104BA505A49 PUSH1 0xC0 SHL PUSH2 0x2C97 JUMP JUMPDEST PUSH2 0x1CD0 PUSH8 0x6957FE42395ED329 PUSH1 0xC0 SHL PUSH2 0x2C97 JUMP JUMPDEST DUP6 DUP4 PUSH2 0x1CDC SWAP2 SWAP1 PUSH2 0x433C JUMP JUMPDEST PUSH1 0x5 DUP2 SWAP1 SSTORE POP PUSH2 0x1CF6 PUSH8 0x3A584DEF72B1CDA4 PUSH1 0xC0 SHL PUSH2 0x2C97 JUMP JUMPDEST DUP5 DUP3 PUSH2 0x1D02 SWAP2 SWAP1 PUSH2 0x433C JUMP JUMPDEST PUSH1 0x6 DUP2 SWAP1 SSTORE POP POP POP POP PUSH2 0x1D1F PUSH8 0x967D823E8BFBBCF0 PUSH1 0xC0 SHL PUSH2 0x2C97 JUMP JUMPDEST PUSH2 0x1D33 PUSH8 0x7E6EB017AC675214 PUSH1 0xC0 SHL PUSH2 0x2C97 JUMP JUMPDEST PUSH2 0x1D3D CALLER DUP10 PUSH2 0x3020 JUMP JUMPDEST PUSH2 0x1D51 PUSH8 0xC2AF0E3535064C1B PUSH1 0xC0 SHL PUSH2 0x2C97 JUMP JUMPDEST PUSH2 0x1D65 PUSH8 0xFB8EE484D97D5F8E PUSH1 0xC0 SHL PUSH2 0x2C97 JUMP JUMPDEST PUSH2 0x1D79 PUSH8 0x1DD0FF755BF903C4 PUSH1 0xC0 SHL PUSH2 0x2C97 JUMP JUMPDEST DUP10 PUSH20 0xFFFFFFFFFFFFFFFFFFFFFFFFFFFFFFFFFFFFFFFF AND PUSH4 0xA9059CBB DUP7 DUP6 PUSH1 0x40 MLOAD DUP4 PUSH4 0xFFFFFFFF AND PUSH1 0xE0 SHL DUP2 MSTORE PUSH1 0x4 ADD PUSH2 0x1DB4 SWAP3 SWAP2 SWAP1 PUSH2 0x42A7 JUMP JUMPDEST PUSH1 0x20 PUSH1 0x40 MLOAD DUP1 DUP4 SUB DUP2 PUSH1 0x0 DUP8 GAS CALL ISZERO DUP1 ISZERO PUSH2 0x1DD3 JUMPI RETURNDATASIZE PUSH1 0x0 DUP1 RETURNDATACOPY RETURNDATASIZE PUSH1 0x0 REVERT JUMPDEST POP POP POP POP PUSH1 0x40 MLOAD RETURNDATASIZE PUSH1 0x1F NOT PUSH1 0x1F DUP3 ADD AND DUP3 ADD DUP1 PUSH1 0x40 MSTORE POP DUP2 ADD SWAP1 PUSH2 0x1DF7 SWAP2 SWAP1 PUSH2 0x420E JUMP JUMPDEST PUSH2 0x1E36 JUMPI PUSH1 0x40 MLOAD PUSH32 0x8C379A000000000000000000000000000000000000000000000000000000000 DUP2 MSTORE PUSH1 0x4 ADD PUSH2 0x1E2D SWAP1 PUSH2 0x456C JUMP JUMPDEST PUSH1 0x40 MLOAD DUP1 SWAP2 SUB SWAP1 REVERT JUMPDEST PUSH2 0x1E4A PUSH8 0xE59EC579A06CC0AF PUSH1 0xC0 SHL PUSH2 0x2C97 JUMP JUMPDEST PUSH2 0x1E5E PUSH8 0x717C72804F2C6A0C PUSH1 0xC0 SHL PUSH2 0x2C97 JUMP JUMPDEST PUSH2 0x1E72 PUSH8 0xA7E415FDE6BBD92C PUSH1 0xC0 SHL PUSH2 0x2C97 JUMP JUMPDEST PUSH2 0x1E86 PUSH8 0xE2807269B011405E PUSH1 0xC0 SHL PUSH2 0x2C97 JUMP JUMPDEST DUP9 PUSH20 0xFFFFFFFFFFFFFFFFFFFFFFFFFFFFFFFFFFFFFFFF AND PUSH4 0xA9059CBB DUP7 DUP5 PUSH1 0x40 MLOAD DUP4 PUSH4 0xFFFFFFFF AND PUSH1 0xE0 SHL DUP2 MSTORE PUSH1 0x4 ADD PUSH2 0x1EC1 SWAP3 SWAP2 SWAP1 PUSH2 0x42A7 JUMP JUMPDEST PUSH1 0x20 PUSH1 0x40 MLOAD DUP1 DUP4 SUB DUP2 PUSH1 0x0 DUP8 GAS CALL ISZERO DUP1 ISZERO PUSH2 0x1EE0 JUMPI RETURNDATASIZE PUSH1 0x0 DUP1 RETURNDATACOPY RETURNDATASIZE PUSH1 0x0 REVERT JUMPDEST POP POP POP POP PUSH1 0x40 MLOAD RETURNDATASIZE PUSH1 0x1F NOT PUSH1 0x1F DUP3 ADD AND DUP3 ADD DUP1 PUSH1 0x40 MSTORE POP DUP2 ADD SWAP1 PUSH2 0x1F04 SWAP2 SWAP1 PUSH2 0x420E JUMP JUMPDEST PUSH2 0x1F43 JUMPI PUSH1 0x40 MLOAD PUSH32 0x8C379A000000000000000000000000000000000000000000000000000000000 DUP2 MSTORE PUSH1 0x4 ADD PUSH2 0x1F3A SWAP1 PUSH2 0x45D8 JUMP JUMPDEST PUSH1 0x40 MLOAD DUP1 SWAP2 SUB SWAP1 REVERT JUMPDEST PUSH2 0x1F57 PUSH8 0x2AB96768932BC8B9 PUSH1 0xC0 SHL PUSH2 0x2C97 JUMP JUMPDEST PUSH2 0x1F6B PUSH8 0x4EE035DB04FD67C7 PUSH1 0xC0 SHL PUSH2 0x2C97 JUMP JUMPDEST PUSH2 0x1F7F PUSH8 0x8068D3E84DD1322E PUSH1 0xC0 SHL PUSH2 0x2C97 JUMP JUMPDEST DUP5 PUSH20 0xFFFFFFFFFFFFFFFFFFFFFFFFFFFFFFFFFFFFFFFF AND PUSH32 0x1DC8BB69DF2B8E91FBDCBFCF93D951B3F0000F085A95FE3F7946D6161439245D DUP5 DUP5 DUP12 PUSH1 0x40 MLOAD PUSH2 0x1FC9 SWAP4 SWAP3 SWAP2 SWAP1 PUSH2 0x3CEC JUMP JUMPDEST PUSH1 0x40 MLOAD DUP1 SWAP2 SUB SWAP1 LOG2 POP SWAP8 POP SWAP8 SWAP6 POP POP POP POP POP POP JUMP JUMPDEST PUSH1 0x0 PUSH2 0x1FF4 PUSH8 0x195EB83E63F8A142 PUSH1 0xC0 SHL PUSH2 0x2C97 JUMP JUMPDEST PUSH2 0x2008 PUSH8 0xE7D6AA034A56BC39 PUSH1 0xC0 SHL PUSH2 0x2C97 JUMP JUMPDEST PUSH2 0x201C PUSH8 0xCD209CBD84380747 PUSH1 0xC0 SHL PUSH2 0x2C97 JUMP JUMPDEST PUSH2 0x2025 DUP3 PUSH2 0x1351 JUMP JUMPDEST SWAP1 POP SWAP2 SWAP1 POP JUMP JUMPDEST PUSH1 0x0 DUP1 PUSH2 0x2043 PUSH8 0x2BE227A820DB3552 PUSH1 0xC0 SHL PUSH2 0x2C97 JUMP JUMPDEST PUSH2 0x2057 PUSH8 0x21157AD44D508B41 PUSH1 0xC0 SHL PUSH2 0x2C97 JUMP JUMPDEST PUSH32 0x0 SWAP2 POP PUSH2 0x208E PUSH8 0xE62017CB3C3BC116 PUSH1 0xC0 SHL PUSH2 0x2C97 JUMP JUMPDEST PUSH32 0x0 SWAP1 POP SWAP1 SWAP2 JUMP JUMPDEST PUSH1 0x5 SLOAD DUP2 JUMP JUMPDEST PUSH1 0x0 PUSH1 0x1 PUSH1 0x0 DUP5 PUSH20 0xFFFFFFFFFFFFFFFFFFFFFFFFFFFFFFFFFFFFFFFF AND PUSH20 0xFFFFFFFFFFFFFFFFFFFFFFFFFFFFFFFFFFFFFFFF AND DUP2 MSTORE PUSH1 0x20 ADD SWAP1 DUP2 MSTORE PUSH1 0x20 ADD PUSH1 0x0 KECCAK256 PUSH1 0x0 DUP4 PUSH20 0xFFFFFFFFFFFFFFFFFFFFFFFFFFFFFFFFFFFFFFFF AND PUSH20 0xFFFFFFFFFFFFFFFFFFFFFFFFFFFFFFFFFFFFFFFF AND DUP2 MSTORE PUSH1 0x20 ADD SWAP1 DUP2 MSTORE PUSH1 0x20 ADD PUSH1 0x0 KECCAK256 SLOAD SWAP1 POP SWAP3 SWAP2 POP POP JUMP JUMPDEST PUSH1 0x0 DUP1 PUSH1 0x0 PUSH2 0x215B PUSH8 0x6E70DC1458A36AC0 PUSH1 0xC0 SHL PUSH2 0x2C97 JUMP JUMPDEST DUP4 PUSH2 0x2170 PUSH8 0x220F51BFDD73785 PUSH1 0xC0 SHL PUSH2 0x2C97 JUMP JUMPDEST PUSH2 0x2184 PUSH8 0x1011DA974D5AB0B4 PUSH1 0xC0 SHL PUSH2 0x2C97 JUMP JUMPDEST PUSH2 0x2198 PUSH8 0x402FB3CCFCD0027B PUSH1 0xC0 SHL PUSH2 0x2C97 JUMP JUMPDEST PUSH2 0x21AC PUSH8 0x39328D1521EF77CF PUSH1 0xC0 SHL PUSH2 0x2C97 JUMP JUMPDEST TIMESTAMP DUP2 LT ISZERO PUSH2 0x21EF JUMPI PUSH1 0x40 MLOAD PUSH32 0x8C379A000000000000000000000000000000000000000000000000000000000 DUP2 MSTORE PUSH1 0x4 ADD PUSH2 0x21E6 SWAP1 PUSH2 0x3FAC JUMP JUMPDEST PUSH1 0x40 MLOAD DUP1 SWAP2 SUB SWAP1 REVERT JUMPDEST PUSH2 0x2203 PUSH8 0xD4A7911AC2130532 PUSH1 0xC0 SHL PUSH2 0x2C97 JUMP JUMPDEST PUSH2 0x2217 PUSH8 0x466EBD5660F2E1ED PUSH1 0xC0 SHL PUSH2 0x2C97 JUMP JUMPDEST PUSH2 0x222B PUSH8 0x31F084A9C2C08CAD PUSH1 0xC0 SHL PUSH2 0x2C97 JUMP JUMPDEST PUSH2 0x223F PUSH8 0xBAB8F747EBF02D8D PUSH1 0xC0 SHL PUSH2 0x2C97 JUMP JUMPDEST PUSH2 0x2253 PUSH8 0x5DFE77311C1E27AF PUSH1 0xC0 SHL PUSH2 0x2C97 JUMP JUMPDEST PUSH2 0x2267 PUSH8 0xD3227CA4ED4766D9 PUSH1 0xC0 SHL PUSH2 0x2C97 JUMP JUMPDEST PUSH2 0x227B PUSH8 0x417FC2E26C18494F PUSH1 0xC0 SHL PUSH2 0x2C97 JUMP JUMPDEST PUSH2 0x2285 DUP13 DUP13 PUSH2 0x2E3D JUMP JUMPDEST PUSH2 0x22C4 JUMPI PUSH1 0x40 MLOAD PUSH32 0x8C379A000000000000000000000000000000000000000000000000000000000 DUP2 MSTORE PUSH1 0x4 ADD PUSH2 0x22BB SWAP1 PUSH2 0x411F JUMP JUMPDEST PUSH1 0x40 MLOAD DUP1 SWAP2 SUB SWAP1 REVERT JUMPDEST PUSH2 0x22D8 PUSH8 0x969133C43006B7F8 PUSH1 0xC0 SHL PUSH2 0x2C97 JUMP JUMPDEST PUSH2 0x22EC PUSH8 0x19B50DFA63A0F859 PUSH1 0xC0 SHL PUSH2 0x2C97 JUMP JUMPDEST PUSH2 0x2300 PUSH8 0xAC07BCBC4BE3B03 PUSH1 0xC0 SHL PUSH2 0x2C97 JUMP JUMPDEST PUSH2 0x2314 PUSH8 0xA5A2154AB25B519D PUSH1 0xC0 SHL PUSH2 0x2C97 JUMP JUMPDEST PUSH1 0x0 PUSH20 0xFFFFFFFFFFFFFFFFFFFFFFFFFFFFFFFFFFFFFFFF AND DUP7 PUSH20 0xFFFFFFFFFFFFFFFFFFFFFFFFFFFFFFFFFFFFFFFF AND SUB PUSH2 0x2383 JUMPI PUSH1 0x40 MLOAD PUSH32 0x8C379A000000000000000000000000000000000000000000000000000000000 DUP2 MSTORE PUSH1 0x4 ADD PUSH2 0x237A SWAP1 PUSH2 0x4084 JUMP JUMPDEST PUSH1 0x40 MLOAD DUP1 SWAP2 SUB SWAP1 REVERT JUMPDEST PUSH2 0x2397 PUSH8 0xF44392468A0C47AB PUSH1 0xC0 SHL PUSH2 0x2C97 JUMP JUMPDEST PUSH2 0x23AB PUSH8 0x6089742CCC82A057 PUSH1 0xC0 SHL PUSH2 0x2C97 JUMP JUMPDEST PUSH2 0x23BF PUSH8 0x4E06129B230274E8 PUSH1 0xC0 SHL PUSH2 0x2C97 JUMP JUMPDEST PUSH2 0x23D3 PUSH8 0xCB9E67667CA13826 PUSH1 0xC0 SHL PUSH2 0x2C97 JUMP JUMPDEST PUSH1 0x0 PUSH1 0x5 SLOAD SWAP1 POP PUSH2 0x23EE PUSH8 0x3685FB166A402CA4 PUSH1 0xC0 SHL PUSH2 0x2C97 JUMP JUMPDEST PUSH2 0x2402 PUSH8 0xC37495B9844909A3 PUSH1 0xC0 SHL PUSH2 0x2C97 JUMP JUMPDEST PUSH1 0x0 PUSH1 0x6 SLOAD SWAP1 POP PUSH2 0x241D PUSH8 0xD42CE20A96C33445 PUSH1 0xC0 SHL PUSH2 0x2C97 JUMP JUMPDEST PUSH2 0x2431 PUSH8 0x4482F72054503D49 PUSH1 0xC0 SHL PUSH2 0x2C97 JUMP JUMPDEST PUSH1 0x0 DUP3 EQ DUP1 ISZERO PUSH2 0x2441 JUMPI POP PUSH1 0x0 DUP2 EQ JUMPDEST ISZERO PUSH2 0x248D JUMPI PUSH2 0x245A PUSH8 0xF591112F3E9E7446 PUSH1 0xC0 SHL PUSH2 0x2C97 JUMP JUMPDEST PUSH2 0x246E PUSH8 0xA1C5E744D06E96C5 PUSH1 0xC0 SHL PUSH2 0x2C97 JUMP JUMPDEST DUP12 SWAP6 POP PUSH2 0x2485 PUSH8 0x9D5356600A58D843 PUSH1 0xC0 SHL PUSH2 0x2C97 JUMP JUMPDEST DUP11 SWAP5 POP PUSH2 0x2715 JUMP JUMPDEST PUSH2 0x24A1 PUSH8 0xB6338A865F249BDE PUSH1 0xC0 SHL PUSH2 0x2C97 JUMP JUMPDEST PUSH2 0x24B5 PUSH8 0xB06668E421D093C6 PUSH1 0xC0 SHL PUSH2 0x2C97 JUMP JUMPDEST PUSH2 0x24C9 PUSH8 0x8D4C6485E121FA00 PUSH1 0xC0 SHL PUSH2 0x2C97 JUMP JUMPDEST PUSH1 0x0 DUP3 DUP3 DUP15 PUSH2 0x24D8 SWAP2 SWAP1 PUSH2 0x3E5E JUMP JUMPDEST PUSH2 0x24E2 SWAP2 SWAP1 PUSH2 0x3ECF JUMP JUMPDEST SWAP1 POP PUSH2 0x24F8 PUSH8 0xACE99ED2CF1BD4C8 PUSH1 0xC0 SHL PUSH2 0x2C97 JUMP JUMPDEST PUSH2 0x250C PUSH8 0xC9261E2A794EE833 PUSH1 0xC0 SHL PUSH2 0x2C97 JUMP JUMPDEST DUP12 DUP2 GT PUSH2 0x25ED JUMPI PUSH2 0x2527 PUSH8 0xC2E71713ECB44512 PUSH1 0xC0 SHL PUSH2 0x2C97 JUMP JUMPDEST PUSH2 0x253B PUSH8 0x24203BF2C33FC614 PUSH1 0xC0 SHL PUSH2 0x2C97 JUMP JUMPDEST PUSH2 0x254F PUSH8 0xCF13B278C1E5DA7A PUSH1 0xC0 SHL PUSH2 0x2C97 JUMP JUMPDEST PUSH2 0x2563 PUSH8 0xA7FB703F6EC4AF00 PUSH1 0xC0 SHL PUSH2 0x2C97 JUMP JUMPDEST DUP10 DUP2 LT ISZERO PUSH2 0x25A6 JUMPI PUSH1 0x40 MLOAD PUSH32 0x8C379A000000000000000000000000000000000000000000000000000000000 DUP2 MSTORE PUSH1 0x4 ADD PUSH2 0x259D SWAP1 PUSH2 0x4500 JUMP JUMPDEST PUSH1 0x40 MLOAD DUP1 SWAP2 SUB SWAP1 REVERT JUMPDEST PUSH2 0x25BA PUSH8 0xBE840B77051D0239 PUSH1 0xC0 SHL PUSH2 0x2C97 JUMP JUMPDEST PUSH2 0x25CE PUSH8 0x193EC577ED23B457 PUSH1 0xC0 SHL PUSH2 0x2C97 JUMP JUMPDEST DUP13 SWAP7 POP PUSH2 0x25E5 PUSH8 0xC8B7CC6D2F38169A PUSH1 0xC0 SHL PUSH2 0x2C97 JUMP JUMPDEST DUP1 SWAP6 POP PUSH2 0x2713 JUMP JUMPDEST PUSH2 0x2601 PUSH8 0xA94CDDA116E2027 PUSH1 0xC0 SHL PUSH2 0x2C97 JUMP JUMPDEST PUSH2 0x2615 PUSH8 0x125F7A0C4B5A4D94 PUSH1 0xC0 SHL PUSH2 0x2C97 JUMP JUMPDEST PUSH2 0x2629 PUSH8 0x6FFA628F116103DE PUSH1 0xC0 SHL PUSH2 0x2C97 JUMP JUMPDEST PUSH1 0x0 DUP3 DUP5 DUP15 PUSH2 0x2638 SWAP2 SWAP1 PUSH2 0x3E5E JUMP JUMPDEST PUSH2 0x2642 SWAP2 SWAP1 PUSH2 0x3ECF JUMP JUMPDEST SWAP1 POP PUSH2 0x2658 PUSH8 0x34C68B4DEF346242 PUSH1 0xC0 SHL PUSH2 0x2C97 JUMP JUMPDEST PUSH2 0x266C PUSH8 0x7B960D7BD833DF18 PUSH1 0xC0 SHL PUSH2 0x2C97 JUMP JUMPDEST PUSH2 0x2680 PUSH8 0xA21E2B12754DE63C PUSH1 0xC0 SHL PUSH2 0x2C97 JUMP JUMPDEST DUP14 DUP2 GT ISZERO DUP1 ISZERO PUSH2 0x2690 JUMPI POP DUP12 DUP2 LT ISZERO JUMPDEST PUSH2 0x26CF JUMPI PUSH1 0x40 MLOAD PUSH32 0x8C379A000000000000000000000000000000000000000000000000000000000 DUP2 MSTORE PUSH1 0x4 ADD PUSH2 0x26C6 SWAP1 PUSH2 0x4494 JUMP JUMPDEST PUSH1 0x40 MLOAD DUP1 SWAP2 SUB SWAP1 REVERT JUMPDEST PUSH2 0x26E3 PUSH8 0x8901B6BD5BD0E95E PUSH1 0xC0 SHL PUSH2 0x2C97 JUMP JUMPDEST PUSH2 0x26F7 PUSH8 0x503DA9E930821003 PUSH1 0xC0 SHL PUSH2 0x2C97 JUMP JUMPDEST DUP1 SWAP8 POP PUSH2 0x270E PUSH8 0xCB4D41BCEB38D205 PUSH1 0xC0 SHL PUSH2 0x2C97 JUMP JUMPDEST DUP13 SWAP7 POP POP JUMPDEST POP JUMPDEST POP POP PUSH2 0x272B PUSH8 0xD2329841784DEB35 PUSH1 0xC0 SHL PUSH2 0x2C97 JUMP JUMPDEST PUSH2 0x273F PUSH8 0x7CD2ABEAEF780174 PUSH1 0xC0 SHL PUSH2 0x2C97 JUMP JUMPDEST PUSH2 0x2753 PUSH8 0xF588D037BCBA7724 PUSH1 0xC0 SHL PUSH2 0x2C97 JUMP JUMPDEST DUP12 PUSH20 0xFFFFFFFFFFFFFFFFFFFFFFFFFFFFFFFFFFFFFFFF AND PUSH4 0x23B872DD CALLER ADDRESS DUP8 PUSH1 0x40 MLOAD DUP5 PUSH4 0xFFFFFFFF AND PUSH1 0xE0 SHL DUP2 MSTORE PUSH1 0x4 ADD PUSH2 0x2790 SWAP4 SWAP3 SWAP2 SWAP1 PUSH2 0x41AB JUMP JUMPDEST PUSH1 0x20 PUSH1 0x40 MLOAD DUP1 DUP4 SUB DUP2 PUSH1 0x0 DUP8 GAS CALL ISZERO DUP1 ISZERO PUSH2 0x27AF JUMPI RETURNDATASIZE PUSH1 0x0 DUP1 RETURNDATACOPY RETURNDATASIZE PUSH1 0x0 REVERT JUMPDEST POP POP POP POP PUSH1 0x40 MLOAD RETURNDATASIZE PUSH1 0x1F NOT PUSH1 0x1F DUP3 ADD AND DUP3 ADD DUP1 PUSH1 0x40 MSTORE POP DUP2 ADD SWAP1 PUSH2 0x27D3 SWAP2 SWAP1 PUSH2 0x420E JUMP JUMPDEST PUSH2 0x2812 JUMPI PUSH1 0x40 MLOAD PUSH32 0x8C379A000000000000000000000000000000000000000000000000000000000 DUP2 MSTORE PUSH1 0x4 ADD PUSH2 0x2809 SWAP1 PUSH2 0x456C JUMP JUMPDEST PUSH1 0x40 MLOAD DUP1 SWAP2 SUB SWAP1 REVERT JUMPDEST PUSH2 0x2826 PUSH8 0x3C7E00C2789CFF14 PUSH1 0xC0 SHL PUSH2 0x2C97 JUMP JUMPDEST PUSH2 0x283A PUSH8 0x75FBD127C1096C84 PUSH1 0xC0 SHL PUSH2 0x2C97 JUMP JUMPDEST PUSH2 0x284E PUSH8 0x148884C54308B4A6 PUSH1 0xC0 SHL PUSH2 0x2C97 JUMP JUMPDEST PUSH2 0x2862 PUSH8 0x6A25C20B70216D2F PUSH1 0xC0 SHL PUSH2 0x2C97 JUMP JUMPDEST DUP11 PUSH20 0xFFFFFFFFFFFFFFFFFFFFFFFFFFFFFFFFFFFFFFFF AND PUSH4 0x23B872DD CALLER ADDRESS DUP7 PUSH1 0x40 MLOAD DUP5 PUSH4 0xFFFFFFFF AND PUSH1 0xE0 SHL DUP2 MSTORE PUSH1 0x4 ADD PUSH2 0x289F SWAP4 SWAP3 SWAP2 SWAP1 PUSH2 0x41AB JUMP JUMPDEST PUSH1 0x20 PUSH1 0x40 MLOAD DUP1 DUP4 SUB DUP2 PUSH1 0x0 DUP8 GAS CALL ISZERO DUP1 ISZERO PUSH2 0x28BE JUMPI RETURNDATASIZE PUSH1 0x0 DUP1 RETURNDATACOPY RETURNDATASIZE PUSH1 0x0 REVERT JUMPDEST POP POP POP POP PUSH1 0x40 MLOAD RETURNDATASIZE PUSH1 0x1F NOT PUSH1 0x1F DUP3 ADD AND DUP3 ADD DUP1 PUSH1 0x40 MSTORE POP DUP2 ADD SWAP1 PUSH2 0x28E2 SWAP2 SWAP1 PUSH2 0x420E JUMP JUMPDEST PUSH2 0x2921 JUMPI PUSH1 0x40 MLOAD PUSH32 0x8C379A000000000000000000000000000000000000000000000000000000000 DUP2 MSTORE PUSH1 0x4 ADD PUSH2 0x2918 SWAP1 PUSH2 0x45D8 JUMP JUMPDEST PUSH1 0x40 MLOAD DUP1 SWAP2 SUB SWAP1 REVERT JUMPDEST PUSH2 0x2935 PUSH8 0x3862E1463ABCD49D PUSH1 0xC0 SHL PUSH2 0x2C97 JUMP JUMPDEST PUSH2 0x2949 PUSH8 0x1211A0D4D1E1B713 PUSH1 0xC0 SHL PUSH2 0x2C97 JUMP JUMPDEST PUSH2 0x295D PUSH8 0xABDD48955936C0FD PUSH1 0xC0 SHL PUSH2 0x2C97 JUMP JUMPDEST PUSH2 0x2971 PUSH8 0xC2A43E7F1833C971 PUSH1 0xC0 SHL PUSH2 0x2C97 JUMP JUMPDEST PUSH1 0x0 PUSH2 0x297B PUSH2 0x753 JUMP JUMPDEST SWAP1 POP PUSH2 0x2991 PUSH8 0xD5DCB929B72FD1EC PUSH1 0xC0 SHL PUSH2 0x2C97 JUMP JUMPDEST PUSH2 0x29A5 PUSH8 0xFE5D8E7CBD534BC6 PUSH1 0xC0 SHL PUSH2 0x2C97 JUMP JUMPDEST PUSH2 0x3E8 DUP2 SUB PUSH2 0x29F1 JUMPI PUSH2 0x29C2 PUSH8 0x5821350386811209 PUSH1 0xC0 SHL PUSH2 0x2C97 JUMP JUMPDEST PUSH2 0x29D6 PUSH8 0x3C21DC339E5B9EC3 PUSH1 0xC0 SHL PUSH2 0x2C97 JUMP JUMPDEST PUSH2 0x29EA DUP5 DUP7 PUSH2 0x29E5 SWAP2 SWAP1 PUSH2 0x3E5E JUMP JUMPDEST PUSH2 0x30A2 JUMP JUMPDEST SWAP3 POP PUSH2 0x2AEE JUMP JUMPDEST PUSH2 0x2A05 PUSH8 0x1E4D3DBB42033561 PUSH1 0xC0 SHL PUSH2 0x2C97 JUMP JUMPDEST PUSH2 0x2A19 PUSH8 0x56CE3A10389C3365 PUSH1 0xC0 SHL PUSH2 0x2C97 JUMP JUMPDEST PUSH2 0x2A2D PUSH8 0x60C400B7B4F59F5A PUSH1 0xC0 SHL PUSH2 0x2C97 JUMP JUMPDEST PUSH1 0x0 PUSH1 0x5 SLOAD DUP3 DUP8 PUSH2 0x2A3E SWAP2 SWAP1 PUSH2 0x3E5E JUMP JUMPDEST PUSH2 0x2A48 SWAP2 SWAP1 PUSH2 0x3ECF JUMP JUMPDEST SWAP1 POP PUSH2 0x2A5E PUSH8 0xEFE18579D31FA550 PUSH1 0xC0 SHL PUSH2 0x2C97 JUMP JUMPDEST PUSH2 0x2A72 PUSH8 0x6211A9BBA1EFC00F PUSH1 0xC0 SHL PUSH2 0x2C97 JUMP JUMPDEST PUSH1 0x0 PUSH1 0x6 SLOAD DUP4 DUP8 PUSH2 0x2A83 SWAP2 SWAP1 PUSH2 0x3E5E JUMP JUMPDEST PUSH2 0x2A8D SWAP2 SWAP1 PUSH2 0x3ECF JUMP JUMPDEST SWAP1 POP PUSH2 0x2AA3 PUSH8 0x6A2AFE1F97B2D886 PUSH1 0xC0 SHL PUSH2 0x2C97 JUMP JUMPDEST DUP1 DUP3 LT DUP1 PUSH2 0x2AC1 JUMPI POP PUSH2 0x2AC0 PUSH8 0x2D6623B5C09F278F PUSH1 0xC0 SHL PUSH2 0x300E JUMP JUMPDEST JUMPDEST DUP1 ISZERO PUSH2 0x2ADD JUMPI POP PUSH2 0x2ADC PUSH8 0x6063CDF9E435E29C PUSH1 0xC0 SHL PUSH2 0x3015 JUMP JUMPDEST JUMPDEST PUSH2 0x2AE7 JUMPI DUP1 PUSH2 0x2AE9 JUMP JUMPDEST DUP2 JUMPDEST SWAP5 POP POP POP JUMPDEST PUSH2 0x2B02 PUSH8 0xAC8301781E93951E PUSH1 0xC0 SHL PUSH2 0x2C97 JUMP JUMPDEST PUSH2 0x2B16 PUSH8 0x93DA23FB8904EFDF PUSH1 0xC0 SHL PUSH2 0x2C97 JUMP JUMPDEST PUSH2 0x2B2A PUSH8 0x924B26628C5C805D PUSH1 0xC0 SHL PUSH2 0x2C97 JUMP JUMPDEST PUSH1 0x0 DUP4 GT PUSH2 0x2B6D JUMPI PUSH1 0x40 MLOAD PUSH32 0x8C379A000000000000000000000000000000000000000000000000000000000 DUP2 MSTORE PUSH1 0x4 ADD PUSH2 0x2B64 SWAP1 PUSH2 0x4644 JUMP JUMPDEST PUSH1 0x40 MLOAD DUP1 SWAP2 SUB SWAP1 REVERT JUMPDEST PUSH2 0x2B81 PUSH8 0xC36889D5D462FB2C PUSH1 0xC0 SHL PUSH2 0x2C97 JUMP JUMPDEST PUSH2 0x2B95 PUSH8 0x953954398B3D9E50 PUSH1 0xC0 SHL PUSH2 0x2C97 JUMP JUMPDEST PUSH2 0x2BA9 PUSH8 0xE202445FF43DB18D PUSH1 0xC0 SHL PUSH2 0x2C97 JUMP JUMPDEST PUSH2 0x2BB3 DUP8 DUP5 PUSH2 0x3261 JUMP JUMPDEST POP PUSH2 0x2BC8 PUSH8 0x289C079335658C61 PUSH1 0xC0 SHL PUSH2 0x2C97 JUMP JUMPDEST DUP4 PUSH1 0x5 PUSH1 0x0 DUP3 DUP3 SLOAD PUSH2 0x2BDA SWAP2 SWAP1 PUSH2 0x3E2A JUMP JUMPDEST SWAP3 POP POP DUP2 SWAP1 SSTORE POP PUSH2 0x2BF5 PUSH8 0xAD74AB91970DDA9E PUSH1 0xC0 SHL PUSH2 0x2C97 JUMP JUMPDEST DUP3 PUSH1 0x6 PUSH1 0x0 DUP3 DUP3 SLOAD PUSH2 0x2C07 SWAP2 SWAP1 PUSH2 0x3E2A JUMP JUMPDEST SWAP3 POP POP DUP2 SWAP1 SSTORE POP PUSH2 0x2C22 PUSH8 0xE59B9CC3C7BE03F4 PUSH1 0xC0 SHL PUSH2 0x2C97 JUMP JUMPDEST PUSH2 0x2C36 PUSH8 0x865F6158F7A48F35 PUSH1 0xC0 SHL PUSH2 0x2C97 JUMP JUMPDEST DUP6 PUSH20 0xFFFFFFFFFFFFFFFFFFFFFFFFFFFFFFFFFFFFFFFF AND PUSH32 0x64B83944E79C3CE8D4C297411DE637C3E102D064677AAC0C163976EBDCD6F50E DUP6 DUP6 DUP6 PUSH1 0x40 MLOAD PUSH2 0x2C80 SWAP4 SWAP3 SWAP2 SWAP1 PUSH2 0x3CEC JUMP JUMPDEST PUSH1 0x40 MLOAD DUP1 SWAP2 SUB SWAP1 LOG2 POP SWAP9 POP SWAP9 POP SWAP9 SWAP6 POP POP POP POP POP POP JUMP JUMPDEST POP JUMP JUMPDEST PUSH1 0x0 CALLER SWAP1 POP SWAP1 JUMP JUMPDEST PUSH2 0x2CAF DUP4 DUP4 DUP4 PUSH1 0x1 PUSH2 0x32E3 JUMP JUMPDEST POP POP POP JUMP JUMPDEST PUSH1 0x0 PUSH2 0x2CC0 DUP5 DUP5 PUSH2 0x20BB JUMP JUMPDEST SWAP1 POP PUSH32 0xFFFFFFFFFFFFFFFFFFFFFFFFFFFFFFFFFFFFFFFFFFFFFFFFFFFFFFFFFFFFFFFF DUP2 LT ISZERO PUSH2 0x2D43 JUMPI DUP2 DUP2 LT ISZERO PUSH2 0x2D33 JUMPI DUP3 DUP2 DUP4 PUSH1 0x40 MLOAD PUSH32 0xFB8F41B200000000000000000000000000000000000000000000000000000000 DUP2 MSTORE PUSH1 0x4 ADD PUSH2 0x2D2A SWAP4 SWAP3 SWAP2 SWAP1 PUSH2 0x4664 JUMP JUMPDEST PUSH1 0x40 MLOAD DUP1 SWAP2 SUB SWAP1 REVERT JUMPDEST PUSH2 0x2D42 DUP5 DUP5 DUP5 DUP5 SUB PUSH1 0x0 PUSH2 0x32E3 JUMP JUMPDEST JUMPDEST POP POP POP POP JUMP JUMPDEST PUSH1 0x0 PUSH20 0xFFFFFFFFFFFFFFFFFFFFFFFFFFFFFFFFFFFFFFFF AND DUP4 PUSH20 0xFFFFFFFFFFFFFFFFFFFFFFFFFFFFFFFFFFFFFFFF AND SUB PUSH2 0x2DBB JUMPI PUSH1 0x0 PUSH1 0x40 MLOAD PUSH32 0x96C6FD1E00000000000000000000000000000000000000000000000000000000 DUP2 MSTORE PUSH1 0x4 ADD PUSH2 0x2DB2 SWAP2 SWAP1 PUSH2 0x395A JUMP JUMPDEST PUSH1 0x40 MLOAD DUP1 SWAP2 SUB SWAP1 REVERT JUMPDEST PUSH1 0x0 PUSH20 0xFFFFFFFFFFFFFFFFFFFFFFFFFFFFFFFFFFFFFFFF AND DUP3 PUSH20 0xFFFFFFFFFFFFFFFFFFFFFFFFFFFFFFFFFFFFFFFF AND SUB PUSH2 0x2E2D JUMPI PUSH1 0x0 PUSH1 0x40 MLOAD PUSH32 0xEC442F0500000000000000000000000000000000000000000000000000000000 DUP2 MSTORE PUSH1 0x4 ADD PUSH2 0x2E24 SWAP2 SWAP1 PUSH2 0x395A JUMP JUMPDEST PUSH1 0x40 MLOAD DUP1 SWAP2 SUB SWAP1 REVERT JUMPDEST PUSH2 0x2E38 DUP4 DUP4 DUP4 PUSH2 0x34BA JUMP JUMPDEST POP POP POP JUMP JUMPDEST PUSH1 0x0 PUSH2 0x2E53 PUSH8 0xD8314452B7342519 PUSH1 0xC0 SHL PUSH2 0x2C97 JUMP JUMPDEST PUSH2 0x2E67 PUSH8 0x97B64A95F45B26E0 PUSH1 0xC0 SHL PUSH2 0x2C97 JUMP JUMPDEST PUSH2 0x2E7B PUSH8 0x3E4EB8BEE270238 PUSH1 0xC0 SHL PUSH2 0x2C97 JUMP JUMPDEST PUSH32 0x0 PUSH20 0xFFFFFFFFFFFFFFFFFFFFFFFFFFFFFFFFFFFFFFFF AND DUP4 PUSH20 0xFFFFFFFFFFFFFFFFFFFFFFFFFFFFFFFFFFFFFFFF AND EQ DUP1 ISZERO PUSH2 0x2F21 JUMPI POP PUSH32 0x0 PUSH20 0xFFFFFFFFFFFFFFFFFFFFFFFFFFFFFFFFFFFFFFFF AND DUP3 PUSH20 0xFFFFFFFFFFFFFFFFFFFFFFFFFFFFFFFFFFFFFFFF AND EQ JUMPDEST DUP1 ISZERO PUSH2 0x2F3D JUMPI POP PUSH2 0x2F3C PUSH8 0x9AD30747EC106DA4 PUSH1 0xC0 SHL PUSH2 0x3015 JUMP JUMPDEST JUMPDEST DUP1 PUSH2 0x3006 JUMPI POP PUSH32 0x0 PUSH20 0xFFFFFFFFFFFFFFFFFFFFFFFFFFFFFFFFFFFFFFFF AND DUP4 PUSH20 0xFFFFFFFFFFFFFFFFFFFFFFFFFFFFFFFFFFFFFFFF AND EQ DUP1 ISZERO PUSH2 0x2FE9 JUMPI POP PUSH32 0x0 PUSH20 0xFFFFFFFFFFFFFFFFFFFFFFFFFFFFFFFFFFFFFFFF AND DUP3 PUSH20 0xFFFFFFFFFFFFFFFFFFFFFFFFFFFFFFFFFFFFFFFF AND EQ JUMPDEST DUP1 ISZERO PUSH2 0x3005 JUMPI POP PUSH2 0x3004 PUSH8 0xAFEF1CDF3E038DD9 PUSH1 0xC0 SHL PUSH2 0x3015 JUMP JUMPDEST JUMPDEST JUMPDEST SWAP1 POP SWAP3 SWAP2 POP POP JUMP JUMPDEST PUSH1 0x0 SWAP2 SWAP1 POP JUMP JUMPDEST PUSH1 0x0 PUSH1 0x1 SWAP1 POP SWAP2 SWAP1 POP JUMP JUMPDEST PUSH1 0x0 PUSH20 0xFFFFFFFFFFFFFFFFFFFFFFFFFFFFFFFFFFFFFFFF AND DUP3 PUSH20 0xFFFFFFFFFFFFFFFFFFFFFFFFFFFFFFFFFFFFFFFF AND SUB PUSH2 0x3092 JUMPI PUSH1 0x0 PUSH1 0x40 MLOAD PUSH32 0x96C6FD1E00000000000000000000000000000000000000000000000000000000 DUP2 MSTORE PUSH1 0x4 ADD PUSH2 0x3089 SWAP2 SWAP1 PUSH2 0x395A JUMP JUMPDEST PUSH1 0x40 MLOAD DUP1 SWAP2 SUB SWAP1 REVERT JUMPDEST PUSH2 0x309E DUP3 PUSH1 0x0 DUP4 PUSH2 0x34BA JUMP JUMPDEST POP POP JUMP JUMPDEST PUSH1 0x0 PUSH2 0x30B8 PUSH8 0x980A00EA996E963B PUSH1 0xC0 SHL PUSH2 0x2C97 JUMP JUMPDEST PUSH2 0x30CC PUSH8 0x298D227097D6DECC PUSH1 0xC0 SHL PUSH2 0x2C97 JUMP JUMPDEST PUSH2 0x30E0 PUSH8 0xD9EDBA24F1A869F3 PUSH1 0xC0 SHL PUSH2 0x2C97 JUMP JUMPDEST PUSH1 0x3 DUP3 GT ISZERO PUSH2 0x31E5 JUMPI PUSH2 0x30FD PUSH8 0x2069B6B45D471505 PUSH1 0xC0 SHL PUSH2 0x2C97 JUMP JUMPDEST PUSH2 0x3111 PUSH8 0x36FDF7172C60E295 PUSH1 0xC0 SHL PUSH2 0x2C97 JUMP JUMPDEST DUP2 SWAP1 POP PUSH2 0x3128 PUSH8 0xDB5034D5F4455AB9 PUSH1 0xC0 SHL PUSH2 0x2C97 JUMP JUMPDEST PUSH2 0x313C PUSH8 0xF055775193AE2B2C PUSH1 0xC0 SHL PUSH2 0x2C97 JUMP JUMPDEST PUSH1 0x0 PUSH1 0x1 PUSH1 0x2 DUP5 PUSH2 0x314D SWAP2 SWAP1 PUSH2 0x3ECF JUMP JUMPDEST PUSH2 0x3157 SWAP2 SWAP1 PUSH2 0x3E2A JUMP JUMPDEST SWAP1 POP PUSH2 0x316D PUSH8 0x99F75DC6C2B5C0BC PUSH1 0xC0 SHL PUSH2 0x2C97 JUMP JUMPDEST PUSH2 0x3181 PUSH8 0xE8785DE4F5E30751 PUSH1 0xC0 SHL PUSH2 0x2C97 JUMP JUMPDEST JUMPDEST DUP2 DUP2 LT ISZERO PUSH2 0x31DF JUMPI PUSH2 0x319E PUSH8 0xAA763460BF62D436 PUSH1 0xC0 SHL PUSH2 0x2C97 JUMP JUMPDEST DUP1 SWAP2 POP PUSH2 0x31B5 PUSH8 0x7890BF329B8ACC3C PUSH1 0xC0 SHL PUSH2 0x2C97 JUMP JUMPDEST PUSH1 0x2 DUP2 DUP3 DUP6 PUSH2 0x31C4 SWAP2 SWAP1 PUSH2 0x3ECF JUMP JUMPDEST PUSH2 0x31CE SWAP2 SWAP1 PUSH2 0x3E2A JUMP JUMPDEST PUSH2 0x31D8 SWAP2 SWAP1 PUSH2 0x3ECF JUMP JUMPDEST SWAP1 POP PUSH2 0x3182 JUMP JUMPDEST POP PUSH2 0x325C JUMP JUMPDEST PUSH2 0x31F9 PUSH8 0x87198F603F658CD5 PUSH1 0xC0 SHL PUSH2 0x2C97 JUMP JUMPDEST PUSH2 0x320D PUSH8 0x9658FEA25A670D0 PUSH1 0xC0 SHL PUSH2 0x2C97 JUMP JUMPDEST PUSH1 0x0 DUP3 EQ PUSH2 0x3246 JUMPI PUSH2 0x3229 PUSH8 0xF871667A0F19C1F4 PUSH1 0xC0 SHL PUSH2 0x2C97 JUMP JUMPDEST PUSH2 0x323D PUSH8 0x2DA86B45E0720629 PUSH1 0xC0 SHL PUSH2 0x2C97 JUMP JUMPDEST PUSH1 0x1 SWAP1 POP PUSH2 0x325B JUMP JUMPDEST PUSH2 0x325A PUSH8 0x77BBB620FFADE50A PUSH1 0xC0 SHL PUSH2 0x2C97 JUMP JUMPDEST JUMPDEST JUMPDEST SWAP2 SWAP1 POP JUMP JUMPDEST PUSH1 0x0 PUSH20 0xFFFFFFFFFFFFFFFFFFFFFFFFFFFFFFFFFFFFFFFF AND DUP3 PUSH20 0xFFFFFFFFFFFFFFFFFFFFFFFFFFFFFFFFFFFFFFFF AND SUB PUSH2 0x32D3 JUMPI PUSH1 0x0 PUSH1 0x40 MLOAD PUSH32 0xEC442F0500000000000000000000000000000000000000000000000000000000 DUP2 MSTORE PUSH1 0x4 ADD PUSH2 0x32CA SWAP2 SWAP1 PUSH2 0x395A JUMP JUMPDEST PUSH1 0x40 MLOAD DUP1 SWAP2 SUB SWAP1 REVERT JUMPDEST PUSH2 0x32DF PUSH1 0x0 DUP4 DUP4 PUSH2 0x34BA JUMP JUMPDEST POP POP JUMP JUMPDEST PUSH1 0x0 PUSH20 0xFFFFFFFFFFFFFFFFFFFFFFFFFFFFFFFFFFFFFFFF AND DUP5 PUSH20 0xFFFFFFFFFFFFFFFFFFFFFFFFFFFFFFFFFFFFFFFF AND SUB PUSH2 0x3355 JUMPI PUSH1 0x0 PUSH1 0x40 MLOAD PUSH32 0xE602DF0500000000000000000000000000000000000000000000000000000000 DUP2 MSTORE PUSH1 0x4 ADD PUSH2 0x334C SWAP2 SWAP1 PUSH2 0x395A JUMP JUMPDEST PUSH1 0x40 MLOAD DUP1 SWAP2 SUB SWAP1 REVERT JUMPDEST PUSH1 0x0 PUSH20 0xFFFFFFFFFFFFFFFFFFFFFFFFFFFFFFFFFFFFFFFF AND DUP4 PUSH20 0xFFFFFFFFFFFFFFFFFFFFFFFFFFFFFFFFFFFFFFFF AND SUB PUSH2 0x33C7 JUMPI PUSH1 0x0 PUSH1 0x40 MLOAD PUSH32 0x94280D6200000000000000000000000000000000000000000000000000000000 DUP2 MSTORE PUSH1 0x4 ADD PUSH2 0x33BE SWAP2 SWAP1 PUSH2 0x395A JUMP JUMPDEST PUSH1 0x40 MLOAD DUP1 SWAP2 SUB SWAP1 REVERT JUMPDEST DUP2 PUSH1 0x1 PUSH1 0x0 DUP7 PUSH20 0xFFFFFFFFFFFFFFFFFFFFFFFFFFFFFFFFFFFFFFFF AND PUSH20 0xFFFFFFFFFFFFFFFFFFFFFFFFFFFFFFFFFFFFFFFF AND DUP2 MSTORE PUSH1 0x20 ADD SWAP1 DUP2 MSTORE PUSH1 0x20 ADD PUSH1 0x0 KECCAK256 PUSH1 0x0 DUP6 PUSH20 0xFFFFFFFFFFFFFFFFFFFFFFFFFFFFFFFFFFFFFFFF AND PUSH20 0xFFFFFFFFFFFFFFFFFFFFFFFFFFFFFFFFFFFFFFFF AND DUP2 MSTORE PUSH1 0x20 ADD SWAP1 DUP2 MSTORE PUSH1 0x20 ADD PUSH1 0x0 KECCAK256 DUP2 SWAP1 SSTORE POP DUP1 ISZERO PUSH2 0x34B4 JUMPI DUP3 PUSH20 0xFFFFFFFFFFFFFFFFFFFFFFFFFFFFFFFFFFFFFFFF AND DUP5 PUSH20 0xFFFFFFFFFFFFFFFFFFFFFFFFFFFFFFFFFFFFFFFF AND PUSH32 0x8C5BE1E5EBEC7D5BD14F71427D1E84F3DD0314C0F7B2291E5B200AC8C7C3B925 DUP5 PUSH1 0x40 MLOAD PUSH2 0x34AB SWAP2 SWAP1 PUSH2 0x3781 JUMP JUMPDEST PUSH1 0x40 MLOAD DUP1 SWAP2 SUB SWAP1 LOG3 JUMPDEST POP POP POP POP JUMP JUMPDEST PUSH1 0x0 PUSH20 0xFFFFFFFFFFFFFFFFFFFFFFFFFFFFFFFFFFFFFFFF AND DUP4 PUSH20 0xFFFFFFFFFFFFFFFFFFFFFFFFFFFFFFFFFFFFFFFF AND SUB PUSH2 0x350C JUMPI DUP1 PUSH1 0x2 PUSH1 0x0 DUP3 DUP3 SLOAD PUSH2 0x3500 SWAP2 SWAP1 PUSH2 0x3E2A JUMP JUMPDEST SWAP3 POP POP DUP2 SWAP1 SSTORE POP PUSH2 0x35DF JUMP JUMPDEST PUSH1 0x0 DUP1 PUSH1 0x0 DUP6 PUSH20 0xFFFFFFFFFFFFFFFFFFFFFFFFFFFFFFFFFFFFFFFF AND PUSH20 0xFFFFFFFFFFFFFFFFFFFFFFFFFFFFFFFFFFFFFFFF AND DUP2 MSTORE PUSH1 0x20 ADD SWAP1 DUP2 MSTORE PUSH1 0x20 ADD PUSH1 0x0 KECCAK256 SLOAD SWAP1 POP DUP2 DUP2 LT ISZERO PUSH2 0x3598 JUMPI DUP4 DUP2 DUP4 PUSH1 0x40 MLOAD PUSH32 0xE450D38C00000000000000000000000000000000000000000000000000000000 DUP2 MSTORE PUSH1 0x4 ADD PUSH2 0x358F SWAP4 SWAP3 SWAP2 SWAP1 PUSH2 0x4664 JUMP JUMPDEST PUSH1 0x40 MLOAD DUP1 SWAP2 SUB SWAP1 REVERT JUMPDEST DUP2 DUP2 SUB PUSH1 0x0 DUP1 DUP7 PUSH20 0xFFFFFFFFFFFFFFFFFFFFFFFFFFFFFFFFFFFFFFFF AND PUSH20 0xFFFFFFFFFFFFFFFFFFFFFFFFFFFFFFFFFFFFFFFF AND DUP2 MSTORE PUSH1 0x20 ADD SWAP1 DUP2 MSTORE PUSH1 0x20 ADD PUSH1 0x0 KECCAK256 DUP2 SWAP1 SSTORE POP POP JUMPDEST PUSH1 0x0 PUSH20 0xFFFFFFFFFFFFFFFFFFFFFFFFFFFFFFFFFFFFFFFF AND DUP3 PUSH20 0xFFFFFFFFFFFFFFFFFFFFFFFFFFFFFFFFFFFFFFFF AND SUB PUSH2 0x3628 JUMPI DUP1 PUSH1 0x2 PUSH1 0x0 DUP3 DUP3 SLOAD SUB SWAP3 POP POP DUP2 SWAP1 SSTORE POP PUSH2 0x3675 JUMP JUMPDEST DUP1 PUSH1 0x0 DUP1 DUP5 PUSH20 0xFFFFFFFFFFFFFFFFFFFFFFFFFFFFFFFFFFFFFFFF AND PUSH20 0xFFFFFFFFFFFFFFFFFFFFFFFFFFFFFFFFFFFFFFFF AND DUP2 MSTORE PUSH1 0x20 ADD SWAP1 DUP2 MSTORE PUSH1 0x20 ADD PUSH1 0x0 KECCAK256 PUSH1 0x0 DUP3 DUP3 SLOAD ADD SWAP3 POP POP DUP2 SWAP1 SSTORE POP JUMPDEST DUP2 PUSH20 0xFFFFFFFFFFFFFFFFFFFFFFFFFFFFFFFFFFFFFFFF AND DUP4 PUSH20 0xFFFFFFFFFFFFFFFFFFFFFFFFFFFFFFFFFFFFFFFF AND PUSH32 0xDDF252AD1BE2C89B69C2B068FC378DAA952BA7F163C4A11628F55A4DF523B3EF DUP4 PUSH1 0x40 MLOAD PUSH2 0x36D2 SWAP2 SWAP1 PUSH2 0x3781 JUMP JUMPDEST PUSH1 0x40 MLOAD DUP1 SWAP2 SUB SWAP1 LOG3 POP POP POP JUMP JUMPDEST PUSH1 0x0 DUP1 REVERT JUMPDEST PUSH1 0x0 DUP1 REVERT JUMPDEST PUSH1 0x0 DUP2 SWAP1 POP SWAP2 SWAP1 POP JUMP JUMPDEST PUSH2 0x36FC DUP2 PUSH2 0x36E9 JUMP JUMPDEST DUP2 EQ PUSH2 0x3707 JUMPI PUSH1 0x0 DUP1 REVERT JUMPDEST POP JUMP JUMPDEST PUSH1 0x0 DUP2 CALLDATALOAD SWAP1 POP PUSH2 0x3719 DUP2 PUSH2 0x36F3 JUMP JUMPDEST SWAP3 SWAP2 POP POP JUMP JUMPDEST PUSH1 0x0 DUP1 PUSH1 0x0 PUSH1 0x60 DUP5 DUP7 SUB SLT ISZERO PUSH2 0x3738 JUMPI PUSH2 0x3737 PUSH2 0x36DF JUMP JUMPDEST JUMPDEST PUSH1 0x0 PUSH2 0x3746 DUP7 DUP3 DUP8 ADD PUSH2 0x370A JUMP JUMPDEST SWAP4 POP POP PUSH1 0x20 PUSH2 0x3757 DUP7 DUP3 DUP8 ADD PUSH2 0x370A JUMP JUMPDEST SWAP3 POP POP PUSH1 0x40 PUSH2 0x3768 DUP7 DUP3 DUP8 ADD PUSH2 0x370A JUMP JUMPDEST SWAP2 POP POP SWAP3 POP SWAP3 POP SWAP3 JUMP JUMPDEST PUSH2 0x377B DUP2 PUSH2 0x36E9 JUMP JUMPDEST DUP3 MSTORE POP POP JUMP JUMPDEST PUSH1 0x0 PUSH1 0x20 DUP3 ADD SWAP1 POP PUSH2 0x3796 PUSH1 0x0 DUP4 ADD DUP5 PUSH2 0x3772 JUMP JUMPDEST SWAP3 SWAP2 POP POP JUMP JUMPDEST PUSH1 0x0 DUP2 MLOAD SWAP1 POP SWAP2 SWAP1 POP JUMP JUMPDEST PUSH1 0x0 DUP3 DUP3 MSTORE PUSH1 0x20 DUP3 ADD SWAP1 POP SWAP3 SWAP2 POP POP JUMP JUMPDEST PUSH1 0x0 JUMPDEST DUP4 DUP2 LT ISZERO PUSH2 0x37D6 JUMPI DUP1 DUP3 ADD MLOAD DUP2 DUP5 ADD MSTORE PUSH1 0x20 DUP2 ADD SWAP1 POP PUSH2 0x37BB JUMP JUMPDEST PUSH1 0x0 DUP5 DUP5 ADD MSTORE POP POP POP POP JUMP JUMPDEST PUSH1 0x0 PUSH1 0x1F NOT PUSH1 0x1F DUP4 ADD AND SWAP1 POP SWAP2 SWAP1 POP JUMP JUMPDEST PUSH1 0x0 PUSH2 0x37FE DUP3 PUSH2 0x379C JUMP JUMPDEST PUSH2 0x3808 DUP2 DUP6 PUSH2 0x37A7 JUMP JUMPDEST SWAP4 POP PUSH2 0x3818 DUP2 DUP6 PUSH1 0x20 DUP7 ADD PUSH2 0x37B8 JUMP JUMPDEST PUSH2 0x3821 DUP2 PUSH2 0x37E2 JUMP JUMPDEST DUP5 ADD SWAP2 POP POP SWAP3 SWAP2 POP POP JUMP JUMPDEST PUSH1 0x0 PUSH1 0x20 DUP3 ADD SWAP1 POP DUP2 DUP2 SUB PUSH1 0x0 DUP4 ADD MSTORE PUSH2 0x3846 DUP2 DUP5 PUSH2 0x37F3 JUMP JUMPDEST SWAP1 POP SWAP3 SWAP2 POP POP JUMP JUMPDEST PUSH1 0x0 PUSH1 0x40 DUP3 ADD SWAP1 POP PUSH2 0x3863 PUSH1 0x0 DUP4 ADD DUP6 PUSH2 0x3772 JUMP JUMPDEST PUSH2 0x3870 PUSH1 0x20 DUP4 ADD DUP5 PUSH2 0x3772 JUMP JUMPDEST SWAP4 SWAP3 POP POP POP JUMP JUMPDEST PUSH1 0x0 PUSH20 0xFFFFFFFFFFFFFFFFFFFFFFFFFFFFFFFFFFFFFFFF DUP3 AND SWAP1 POP SWAP2 SWAP1 POP JUMP JUMPDEST PUSH1 0x0 PUSH2 0x38A2 DUP3 PUSH2 0x3877 JUMP JUMPDEST SWAP1 POP SWAP2 SWAP1 POP JUMP JUMPDEST PUSH2 0x38B2 DUP2 PUSH2 0x3897 JUMP JUMPDEST DUP2 EQ PUSH2 0x38BD JUMPI PUSH1 0x0 DUP1 REVERT JUMPDEST POP JUMP JUMPDEST PUSH1 0x0 DUP2 CALLDATALOAD SWAP1 POP PUSH2 0x38CF DUP2 PUSH2 0x38A9 JUMP JUMPDEST SWAP3 SWAP2 POP POP JUMP JUMPDEST PUSH1 0x0 DUP1 PUSH1 0x40 DUP4 DUP6 SUB SLT ISZERO PUSH2 0x38EC JUMPI PUSH2 0x38EB PUSH2 0x36DF JUMP JUMPDEST JUMPDEST PUSH1 0x0 PUSH2 0x38FA DUP6 DUP3 DUP7 ADD PUSH2 0x38C0 JUMP JUMPDEST SWAP3 POP POP PUSH1 0x20 PUSH2 0x390B DUP6 DUP3 DUP7 ADD PUSH2 0x370A JUMP JUMPDEST SWAP2 POP POP SWAP3 POP SWAP3 SWAP1 POP JUMP JUMPDEST PUSH1 0x0 DUP2 ISZERO ISZERO SWAP1 POP SWAP2 SWAP1 POP JUMP JUMPDEST PUSH2 0x392A DUP2 PUSH2 0x3915 JUMP JUMPDEST DUP3 MSTORE POP POP JUMP JUMPDEST PUSH1 0x0 PUSH1 0x20 DUP3 ADD SWAP1 POP PUSH2 0x3945 PUSH1 0x0 DUP4 ADD DUP5 PUSH2 0x3921 JUMP JUMPDEST SWAP3 SWAP2 POP POP JUMP JUMPDEST PUSH2 0x3954 DUP2 PUSH2 0x3897 JUMP JUMPDEST DUP3 MSTORE POP POP JUMP JUMPDEST PUSH1 0x0 PUSH1 0x20 DUP3 ADD SWAP1 POP PUSH2 0x396F PUSH1 0x0 DUP4 ADD DUP5 PUSH2 0x394B JUMP JUMPDEST SWAP3 SWAP2 POP POP JUMP JUMPDEST PUSH1 0x0 DUP1 PUSH1 0x0 PUSH1 0x60 DUP5 DUP7 SUB SLT ISZERO PUSH2 0x398E JUMPI PUSH2 0x398D PUSH2 0x36DF JUMP JUMPDEST JUMPDEST PUSH1 0x0 PUSH2 0x399C DUP7 DUP3 DUP8 ADD PUSH2 0x38C0 JUMP JUMPDEST SWAP4 POP POP PUSH1 0x20 PUSH2 0x39AD DUP7 DUP3 DUP8 ADD PUSH2 0x38C0 JUMP JUMPDEST SWAP3 POP POP PUSH1 0x40 PUSH2 0x39BE DUP7 DUP3 DUP8 ADD PUSH2 0x370A JUMP JUMPDEST SWAP2 POP POP SWAP3 POP SWAP3 POP SWAP3 JUMP JUMPDEST PUSH1 0x0 PUSH1 0xFF DUP3 AND SWAP1 POP SWAP2 SWAP1 POP JUMP JUMPDEST PUSH2 0x39DE DUP2 PUSH2 0x39C8 JUMP JUMPDEST DUP3 MSTORE POP POP JUMP JUMPDEST PUSH1 0x0 PUSH1 0x20 DUP3 ADD SWAP1 POP PUSH2 0x39F9 PUSH1 0x0 DUP4 ADD DUP5 PUSH2 0x39D5 JUMP JUMPDEST SWAP3 SWAP2 POP POP JUMP JUMPDEST PUSH1 0x0 DUP1 REVERT JUMPDEST PUSH1 0x0 DUP1 REVERT JUMPDEST PUSH1 0x0 DUP1 REVERT JUMPDEST PUSH1 0x0 DUP1 DUP4 PUSH1 0x1F DUP5 ADD SLT PUSH2 0x3A24 JUMPI PUSH2 0x3A23 PUSH2 0x39FF JUMP JUMPDEST JUMPDEST DUP3 CALLDATALOAD SWAP1 POP PUSH8 0xFFFFFFFFFFFFFFFF DUP2 GT ISZERO PUSH2 0x3A41 JUMPI PUSH2 0x3A40 PUSH2 0x3A04 JUMP JUMPDEST JUMPDEST PUSH1 0x20 DUP4 ADD SWAP2 POP DUP4 PUSH1 0x20 DUP3 MUL DUP4 ADD GT ISZERO PUSH2 0x3A5D JUMPI PUSH2 0x3A5C PUSH2 0x3A09 JUMP JUMPDEST JUMPDEST SWAP3 POP SWAP3 SWAP1 POP JUMP JUMPDEST PUSH1 0x0 DUP1 PUSH1 0x0 DUP1 PUSH1 0x0 DUP1 PUSH1 0xA0 DUP8 DUP10 SUB SLT ISZERO PUSH2 0x3A81 JUMPI PUSH2 0x3A80 PUSH2 0x36DF JUMP JUMPDEST JUMPDEST PUSH1 0x0 PUSH2 0x3A8F DUP10 DUP3 DUP11 ADD PUSH2 0x370A JUMP JUMPDEST SWAP7 POP POP PUSH1 0x20 PUSH2 0x3AA0 DUP10 DUP3 DUP11 ADD PUSH2 0x370A JUMP JUMPDEST SWAP6 POP POP PUSH1 0x40 DUP8 ADD CALLDATALOAD PUSH8 0xFFFFFFFFFFFFFFFF DUP2 GT ISZERO PUSH2 0x3AC1 JUMPI PUSH2 0x3AC0 PUSH2 0x36E4 JUMP JUMPDEST JUMPDEST PUSH2 0x3ACD DUP10 DUP3 DUP11 ADD PUSH2 0x3A0E JUMP JUMPDEST SWAP5 POP SWAP5 POP POP PUSH1 0x60 PUSH2 0x3AE0 DUP10 DUP3 DUP11 ADD PUSH2 0x38C0 JUMP JUMPDEST SWAP3 POP POP PUSH1 0x80 PUSH2 0x3AF1 DUP10 DUP3 DUP11 ADD PUSH2 0x370A JUMP JUMPDEST SWAP2 POP POP SWAP3 SWAP6 POP SWAP3 SWAP6 POP SWAP3 SWAP6 JUMP JUMPDEST PUSH1 0x0 PUSH1 0x20 DUP3 DUP5 SUB SLT ISZERO PUSH2 0x3B14 JUMPI PUSH2 0x3B13 PUSH2 0x36DF JUMP JUMPDEST JUMPDEST PUSH1 0x0 PUSH2 0x3B22 DUP5 DUP3 DUP6 ADD PUSH2 0x38C0 JUMP JUMPDEST SWAP2 POP POP SWAP3 SWAP2 POP POP JUMP JUMPDEST PUSH1 0x0 DUP1 PUSH1 0x40 DUP4 DUP6 SUB SLT ISZERO PUSH2 0x3B42 JUMPI PUSH2 0x3B41 PUSH2 0x36DF JUMP JUMPDEST JUMPDEST PUSH1 0x0 PUSH2 0x3B50 DUP6 DUP3 DUP7 ADD PUSH2 0x38C0 JUMP JUMPDEST SWAP3 POP POP PUSH1 0x20 PUSH2 0x3B61 DUP6 DUP3 DUP7 ADD PUSH2 0x38C0 JUMP JUMPDEST SWAP2 POP POP SWAP3 POP SWAP3 SWAP1 POP JUMP JUMPDEST PUSH1 0x0 DUP1 PUSH1 0x0 DUP1 PUSH1 0x0 DUP1 PUSH1 0x0 PUSH1 0xE0 DUP9 DUP11 SUB SLT ISZERO PUSH2 0x3B8A JUMPI PUSH2 0x3B89 PUSH2 0x36DF JUMP JUMPDEST JUMPDEST PUSH1 0x0 PUSH2 0x3B98 DUP11 DUP3 DUP12 ADD PUSH2 0x38C0 JUMP JUMPDEST SWAP8 POP POP PUSH1 0x20 PUSH2 0x3BA9 DUP11 DUP3 DUP12 ADD PUSH2 0x38C0 JUMP JUMPDEST SWAP7 POP POP PUSH1 0x40 PUSH2 0x3BBA DUP11 DUP3 DUP12 ADD PUSH2 0x370A JUMP JUMPDEST SWAP6 POP POP PUSH1 0x60 PUSH2 0x3BCB DUP11 DUP3 DUP12 ADD PUSH2 0x370A JUMP JUMPDEST SWAP5 POP POP PUSH1 0x80 PUSH2 0x3BDC DUP11 DUP3 DUP12 ADD PUSH2 0x370A JUMP JUMPDEST SWAP4 POP POP PUSH1 0xA0 PUSH2 0x3BED DUP11 DUP3 DUP12 ADD PUSH2 0x38C0 JUMP JUMPDEST SWAP3 POP POP PUSH1 0xC0 PUSH2 0x3BFE DUP11 DUP3 DUP12 ADD PUSH2 0x370A JUMP JUMPDEST SWAP2 POP POP SWAP3 SWAP6 SWAP9 SWAP2 SWAP5 SWAP8 POP SWAP3 SWAP6 POP JUMP JUMPDEST PUSH1 0x0 PUSH1 0x40 DUP3 ADD SWAP1 POP PUSH2 0x3C22 PUSH1 0x0 DUP4 ADD DUP6 PUSH2 0x394B JUMP JUMPDEST PUSH2 0x3C2F PUSH1 0x20 DUP4 ADD DUP5 PUSH2 0x394B JUMP JUMPDEST SWAP4 SWAP3 POP POP POP JUMP JUMPDEST PUSH1 0x0 DUP1 PUSH1 0x0 DUP1 PUSH1 0x0 DUP1 PUSH1 0x0 DUP1 PUSH2 0x100 DUP10 DUP12 SUB SLT ISZERO PUSH2 0x3C57 JUMPI PUSH2 0x3C56 PUSH2 0x36DF JUMP JUMPDEST JUMPDEST PUSH1 0x0 PUSH2 0x3C65 DUP12 DUP3 DUP13 ADD PUSH2 0x38C0 JUMP JUMPDEST SWAP9 POP POP PUSH1 0x20 PUSH2 0x3C76 DUP12 DUP3 DUP13 ADD PUSH2 0x38C0 JUMP JUMPDEST SWAP8 POP POP PUSH1 0x40 PUSH2 0x3C87 DUP12 DUP3 DUP13 ADD PUSH2 0x370A JUMP JUMPDEST SWAP7 POP POP PUSH1 0x60 PUSH2 0x3C98 DUP12 DUP3 DUP13 ADD PUSH2 0x370A JUMP JUMPDEST SWAP6 POP POP PUSH1 0x80 PUSH2 0x3CA9 DUP12 DUP3 DUP13 ADD PUSH2 0x370A JUMP JUMPDEST SWAP5 POP POP PUSH1 0xA0 PUSH2 0x3CBA DUP12 DUP3 DUP13 ADD PUSH2 0x370A JUMP JUMPDEST SWAP4 POP POP PUSH1 0xC0 PUSH2 0x3CCB DUP12 DUP3 DUP13 ADD PUSH2 0x38C0 JUMP JUMPDEST SWAP3 POP POP PUSH1 0xE0 PUSH2 0x3CDC DUP12 DUP3 DUP13 ADD PUSH2 0x370A JUMP JUMPDEST SWAP2 POP POP SWAP3 SWAP6 SWAP9 POP SWAP3 SWAP6 SWAP9 SWAP1 SWAP4 SWAP7 POP JUMP JUMPDEST PUSH1 0x0 PUSH1 0x60 DUP3 ADD SWAP1 POP PUSH2 0x3D01 PUSH1 0x0 DUP4 ADD DUP7 PUSH2 0x3772 JUMP JUMPDEST PUSH2 0x3D0E PUSH1 0x20 DUP4 ADD DUP6 PUSH2 0x3772 JUMP JUMPDEST PUSH2 0x3D1B PUSH1 0x40 DUP4 ADD DUP5 PUSH2 0x3772 JUMP JUMPDEST SWAP5 SWAP4 POP POP POP POP JUMP JUMPDEST PUSH32 0x496E73756666696369656E7420696E7075740000000000000000000000000000 PUSH1 0x0 DUP3 ADD MSTORE POP JUMP JUMPDEST PUSH1 0x0 PUSH2 0x3D59 PUSH1 0x12 DUP4 PUSH2 0x37A7 JUMP JUMPDEST SWAP2 POP PUSH2 0x3D64 DUP3 PUSH2 0x3D23 JUMP JUMPDEST PUSH1 0x20 DUP3 ADD SWAP1 POP SWAP2 SWAP1 POP JUMP JUMPDEST PUSH1 0x0 PUSH1 0x20 DUP3 ADD SWAP1 POP DUP2 DUP2 SUB PUSH1 0x0 DUP4 ADD MSTORE PUSH2 0x3D88 DUP2 PUSH2 0x3D4C JUMP JUMPDEST SWAP1 POP SWAP2 SWAP1 POP JUMP JUMPDEST PUSH32 0x496E73756666696369656E742072657365727665730000000000000000000000 PUSH1 0x0 DUP3 ADD MSTORE POP JUMP JUMPDEST PUSH1 0x0 PUSH2 0x3DC5 PUSH1 0x15 DUP4 PUSH2 0x37A7 JUMP JUMPDEST SWAP2 POP PUSH2 0x3DD0 DUP3 PUSH2 0x3D8F JUMP JUMPDEST PUSH1 0x20 DUP3 ADD SWAP1 POP SWAP2 SWAP1 POP JUMP JUMPDEST PUSH1 0x0 PUSH1 0x20 DUP3 ADD SWAP1 POP DUP2 DUP2 SUB PUSH1 0x0 DUP4 ADD MSTORE PUSH2 0x3DF4 DUP2 PUSH2 0x3DB8 JUMP JUMPDEST SWAP1 POP SWAP2 SWAP1 POP JUMP JUMPDEST PUSH32 0x4E487B7100000000000000000000000000000000000000000000000000000000 PUSH1 0x0 MSTORE PUSH1 0x11 PUSH1 0x4 MSTORE PUSH1 0x24 PUSH1 0x0 REVERT JUMPDEST PUSH1 0x0 PUSH2 0x3E35 DUP3 PUSH2 0x36E9 JUMP JUMPDEST SWAP2 POP PUSH2 0x3E40 DUP4 PUSH2 0x36E9 JUMP JUMPDEST SWAP3 POP DUP3 DUP3 ADD SWAP1 POP DUP1 DUP3 GT ISZERO PUSH2 0x3E58 JUMPI PUSH2 0x3E57 PUSH2 0x3DFB JUMP JUMPDEST JUMPDEST SWAP3 SWAP2 POP POP JUMP JUMPDEST PUSH1 0x0 PUSH2 0x3E69 DUP3 PUSH2 0x36E9 JUMP JUMPDEST SWAP2 POP PUSH2 0x3E74 DUP4 PUSH2 0x36E9 JUMP JUMPDEST SWAP3 POP DUP3 DUP3 MUL PUSH2 0x3E82 DUP2 PUSH2 0x36E9 JUMP JUMPDEST SWAP2 POP DUP3 DUP3 DIV DUP5 EQ DUP4 ISZERO OR PUSH2 0x3E99 JUMPI PUSH2 0x3E98 PUSH2 0x3DFB JUMP JUMPDEST JUMPDEST POP SWAP3 SWAP2 POP POP JUMP JUMPDEST PUSH32 0x4E487B7100000000000000000000000000000000000000000000000000000000 PUSH1 0x0 MSTORE PUSH1 0x12 PUSH1 0x4 MSTORE PUSH1 0x24 PUSH1 0x0 REVERT JUMPDEST PUSH1 0x0 PUSH2 0x3EDA DUP3 PUSH2 0x36E9 JUMP JUMPDEST SWAP2 POP PUSH2 0x3EE5 DUP4 PUSH2 0x36E9 JUMP JUMPDEST SWAP3 POP DUP3 PUSH2 0x3EF5 JUMPI PUSH2 0x3EF4 PUSH2 0x3EA0 JUMP JUMPDEST JUMPDEST DUP3 DUP3 DIV SWAP1 POP SWAP3 SWAP2 POP POP JUMP JUMPDEST PUSH32 0x4E487B7100000000000000000000000000000000000000000000000000000000 PUSH1 0x0 MSTORE PUSH1 0x22 PUSH1 0x4 MSTORE PUSH1 0x24 PUSH1 0x0 REVERT JUMPDEST PUSH1 0x0 PUSH1 0x2 DUP3 DIV SWAP1 POP PUSH1 0x1 DUP3 AND DUP1 PUSH2 0x3F47 JUMPI PUSH1 0x7F DUP3 AND SWAP2 POP JUMPDEST PUSH1 0x20 DUP3 LT DUP2 SUB PUSH2 0x3F5A JUMPI PUSH2 0x3F59 PUSH2 0x3F00 JUMP JUMPDEST JUMPDEST POP SWAP2 SWAP1 POP JUMP JUMPDEST PUSH32 0x4578706972656400000000000000000000000000000000000000000000000000 PUSH1 0x0 DUP3 ADD MSTORE POP JUMP JUMPDEST PUSH1 0x0 PUSH2 0x3F96 PUSH1 0x7 DUP4 PUSH2 0x37A7 JUMP JUMPDEST SWAP2 POP PUSH2 0x3FA1 DUP3 PUSH2 0x3F60 JUMP JUMPDEST PUSH1 0x20 DUP3 ADD SWAP1 POP SWAP2 SWAP1 POP JUMP JUMPDEST PUSH1 0x0 PUSH1 0x20 DUP3 ADD SWAP1 POP DUP2 DUP2 SUB PUSH1 0x0 DUP4 ADD MSTORE PUSH2 0x3FC5 DUP2 PUSH2 0x3F89 JUMP JUMPDEST SWAP1 POP SWAP2 SWAP1 POP JUMP JUMPDEST PUSH32 0x496E76616C696420706174680000000000000000000000000000000000000000 PUSH1 0x0 DUP3 ADD MSTORE POP JUMP JUMPDEST PUSH1 0x0 PUSH2 0x4002 PUSH1 0xC DUP4 PUSH2 0x37A7 JUMP JUMPDEST SWAP2 POP PUSH2 0x400D DUP3 PUSH2 0x3FCC JUMP JUMPDEST PUSH1 0x20 DUP3 ADD SWAP1 POP SWAP2 SWAP1 POP JUMP JUMPDEST PUSH1 0x0 PUSH1 0x20 DUP3 ADD SWAP1 POP DUP2 DUP2 SUB PUSH1 0x0 DUP4 ADD MSTORE PUSH2 0x4031 DUP2 PUSH2 0x3FF5 JUMP JUMPDEST SWAP1 POP SWAP2 SWAP1 POP JUMP JUMPDEST PUSH32 0x496E76616C696420726563697069656E74000000000000000000000000000000 PUSH1 0x0 DUP3 ADD MSTORE POP JUMP JUMPDEST PUSH1 0x0 PUSH2 0x406E PUSH1 0x11 DUP4 PUSH2 0x37A7 JUMP JUMPDEST SWAP2 POP PUSH2 0x4079 DUP3 PUSH2 0x4038 JUMP JUMPDEST PUSH1 0x20 DUP3 ADD SWAP1 POP SWAP2 SWAP1 POP JUMP JUMPDEST PUSH1 0x0 PUSH1 0x20 DUP3 ADD SWAP1 POP DUP2 DUP2 SUB PUSH1 0x0 DUP4 ADD MSTORE PUSH2 0x409D DUP2 PUSH2 0x4061 JUMP JUMPDEST SWAP1 POP SWAP2 SWAP1 POP JUMP JUMPDEST PUSH32 0x4E487B7100000000000000000000000000000000000000000000000000000000 PUSH1 0x0 MSTORE PUSH1 0x32 PUSH1 0x4 MSTORE PUSH1 0x24 PUSH1 0x0 REVERT JUMPDEST PUSH32 0x496E76616C696420706169720000000000000000000000000000000000000000 PUSH1 0x0 DUP3 ADD MSTORE POP JUMP JUMPDEST PUSH1 0x0 PUSH2 0x4109 PUSH1 0xC DUP4 PUSH2 0x37A7 JUMP JUMPDEST SWAP2 POP PUSH2 0x4114 DUP3 PUSH2 0x40D3 JUMP JUMPDEST PUSH1 0x20 DUP3 ADD SWAP1 POP SWAP2 SWAP1 POP JUMP JUMPDEST PUSH1 0x0 PUSH1 0x20 DUP3 ADD SWAP1 POP DUP2 DUP2 SUB PUSH1 0x0 DUP4 ADD MSTORE PUSH2 0x4138 DUP2 PUSH2 0x40FC JUMP JUMPDEST SWAP1 POP SWAP2 SWAP1 POP JUMP JUMPDEST PUSH32 0x496E73756666696369656E74206F757470757400000000000000000000000000 PUSH1 0x0 DUP3 ADD MSTORE POP JUMP JUMPDEST PUSH1 0x0 PUSH2 0x4175 PUSH1 0x13 DUP4 PUSH2 0x37A7 JUMP JUMPDEST SWAP2 POP PUSH2 0x4180 DUP3 PUSH2 0x413F JUMP JUMPDEST PUSH1 0x20 DUP3 ADD SWAP1 POP SWAP2 SWAP1 POP JUMP JUMPDEST PUSH1 0x0 PUSH1 0x20 DUP3 ADD SWAP1 POP DUP2 DUP2 SUB PUSH1 0x0 DUP4 ADD MSTORE PUSH2 0x41A4 DUP2 PUSH2 0x4168 JUMP JUMPDEST SWAP1 POP SWAP2 SWAP1 POP JUMP JUMPDEST PUSH1 0x0 PUSH1 0x60 DUP3 ADD SWAP1 POP PUSH2 0x41C0 PUSH1 0x0 DUP4 ADD DUP7 PUSH2 0x394B JUMP JUMPDEST PUSH2 0x41CD PUSH1 0x20 DUP4 ADD DUP6 PUSH2 0x394B JUMP JUMPDEST PUSH2 0x41DA PUSH1 0x40 DUP4 ADD DUP5 PUSH2 0x3772 JUMP JUMPDEST SWAP5 SWAP4 POP POP POP POP JUMP JUMPDEST PUSH2 0x41EB DUP2 PUSH2 0x3915 JUMP JUMPDEST DUP2 EQ PUSH2 0x41F6 JUMPI PUSH1 0x0 DUP1 REVERT JUMPDEST POP JUMP JUMPDEST PUSH1 0x0 DUP2 MLOAD SWAP1 POP PUSH2 0x4208 DUP2 PUSH2 0x41E2 JUMP JUMPDEST SWAP3 SWAP2 POP POP JUMP JUMPDEST PUSH1 0x0 PUSH1 0x20 DUP3 DUP5 SUB SLT ISZERO PUSH2 0x4224 JUMPI PUSH2 0x4223 PUSH2 0x36DF JUMP JUMPDEST JUMPDEST PUSH1 0x0 PUSH2 0x4232 DUP5 DUP3 DUP6 ADD PUSH2 0x41F9 JUMP JUMPDEST SWAP2 POP POP SWAP3 SWAP2 POP POP JUMP JUMPDEST PUSH32 0x496E707574207472616E73666572206661696C00000000000000000000000000 PUSH1 0x0 DUP3 ADD MSTORE POP JUMP JUMPDEST PUSH1 0x0 PUSH2 0x4271 PUSH1 0x13 DUP4 PUSH2 0x37A7 JUMP JUMPDEST SWAP2 POP PUSH2 0x427C DUP3 PUSH2 0x423B JUMP JUMPDEST PUSH1 0x20 DUP3 ADD SWAP1 POP SWAP2 SWAP1 POP JUMP JUMPDEST PUSH1 0x0 PUSH1 0x20 DUP3 ADD SWAP1 POP DUP2 DUP2 SUB PUSH1 0x0 DUP4 ADD MSTORE PUSH2 0x42A0 DUP2 PUSH2 0x4264 JUMP JUMPDEST SWAP1 POP SWAP2 SWAP1 POP JUMP JUMPDEST PUSH1 0x0 PUSH1 0x40 DUP3 ADD SWAP1 POP PUSH2 0x42BC PUSH1 0x0 DUP4 ADD DUP6 PUSH2 0x394B JUMP JUMPDEST PUSH2 0x42C9 PUSH1 0x20 DUP4 ADD DUP5 PUSH2 0x3772 JUMP JUMPDEST SWAP4 SWAP3 POP POP POP JUMP JUMPDEST PUSH32 0x4F7574707574207472616E73666572206661696C000000000000000000000000 PUSH1 0x0 DUP3 ADD MSTORE POP JUMP JUMPDEST PUSH1 0x0 PUSH2 0x4306 PUSH1 0x14 DUP4 PUSH2 0x37A7 JUMP JUMPDEST SWAP2 POP PUSH2 0x4311 DUP3 PUSH2 0x42D0 JUMP JUMPDEST PUSH1 0x20 DUP3 ADD SWAP1 POP SWAP2 SWAP1 POP JUMP JUMPDEST PUSH1 0x0 PUSH1 0x20 DUP3 ADD SWAP1 POP DUP2 DUP2 SUB PUSH1 0x0 DUP4 ADD MSTORE PUSH2 0x4335 DUP2 PUSH2 0x42F9 JUMP JUMPDEST SWAP1 POP SWAP2 SWAP1 POP JUMP JUMPDEST PUSH1 0x0 PUSH2 0x4347 DUP3 PUSH2 0x36E9 JUMP JUMPDEST SWAP2 POP PUSH2 0x4352 DUP4 PUSH2 0x36E9 JUMP JUMPDEST SWAP3 POP DUP3 DUP3 SUB SWAP1 POP DUP2 DUP2 GT ISZERO PUSH2 0x436A JUMPI PUSH2 0x4369 PUSH2 0x3DFB JUMP JUMPDEST JUMPDEST SWAP3 SWAP2 POP POP JUMP JUMPDEST PUSH32 0x5A65726F206C6971756964697479000000000000000000000000000000000000 PUSH1 0x0 DUP3 ADD MSTORE POP JUMP JUMPDEST PUSH1 0x0 PUSH2 0x43A6 PUSH1 0xE DUP4 PUSH2 0x37A7 JUMP JUMPDEST SWAP2 POP PUSH2 0x43B1 DUP3 PUSH2 0x4370 JUMP JUMPDEST PUSH1 0x20 DUP3 ADD SWAP1 POP SWAP2 SWAP1 POP JUMP JUMPDEST PUSH1 0x0 PUSH1 0x20 DUP3 ADD SWAP1 POP DUP2 DUP2 SUB PUSH1 0x0 DUP4 ADD MSTORE PUSH2 0x43D5 DUP2 PUSH2 0x4399 JUMP JUMPDEST SWAP1 POP SWAP2 SWAP1 POP JUMP JUMPDEST PUSH32 0x496E73756666696369656E742062616C616E6365000000000000000000000000 PUSH1 0x0 DUP3 ADD MSTORE POP JUMP JUMPDEST PUSH1 0x0 PUSH2 0x4412 PUSH1 0x14 DUP4 PUSH2 0x37A7 JUMP JUMPDEST SWAP2 POP PUSH2 0x441D DUP3 PUSH2 0x43DC JUMP JUMPDEST PUSH1 0x20 DUP3 ADD SWAP1 POP SWAP2 SWAP1 POP JUMP JUMPDEST PUSH1 0x0 PUSH1 0x20 DUP3 ADD SWAP1 POP DUP2 DUP2 SUB PUSH1 0x0 DUP4 ADD MSTORE PUSH2 0x4441 DUP2 PUSH2 0x4405 JUMP JUMPDEST SWAP1 POP SWAP2 SWAP1 POP JUMP JUMPDEST PUSH32 0x496E73756666696369656E742041000000000000000000000000000000000000 PUSH1 0x0 DUP3 ADD MSTORE POP JUMP JUMPDEST PUSH1 0x0 PUSH2 0x447E PUSH1 0xE DUP4 PUSH2 0x37A7 JUMP JUMPDEST SWAP2 POP PUSH2 0x4489 DUP3 PUSH2 0x4448 JUMP JUMPDEST PUSH1 0x20 DUP3 ADD SWAP1 POP SWAP2 SWAP1 POP JUMP JUMPDEST PUSH1 0x0 PUSH1 0x20 DUP3 ADD SWAP1 POP DUP2 DUP2 SUB PUSH1 0x0 DUP4 ADD MSTORE PUSH2 0x44AD DUP2 PUSH2 0x4471 JUMP JUMPDEST SWAP1 POP SWAP2 SWAP1 POP JUMP JUMPDEST PUSH32 0x496E73756666696369656E742042000000000000000000000000000000000000 PUSH1 0x0 DUP3 ADD MSTORE POP JUMP JUMPDEST PUSH1 0x0 PUSH2 0x44EA PUSH1 0xE DUP4 PUSH2 0x37A7 JUMP JUMPDEST SWAP2 POP PUSH2 0x44F5 DUP3 PUSH2 0x44B4 JUMP JUMPDEST PUSH1 0x20 DUP3 ADD SWAP1 POP SWAP2 SWAP1 POP JUMP JUMPDEST PUSH1 0x0 PUSH1 0x20 DUP3 ADD SWAP1 POP DUP2 DUP2 SUB PUSH1 0x0 DUP4 ADD MSTORE PUSH2 0x4519 DUP2 PUSH2 0x44DD JUMP JUMPDEST SWAP1 POP SWAP2 SWAP1 POP JUMP JUMPDEST PUSH32 0x5472616E736665722041206661696C0000000000000000000000000000000000 PUSH1 0x0 DUP3 ADD MSTORE POP JUMP JUMPDEST PUSH1 0x0 PUSH2 0x4556 PUSH1 0xF DUP4 PUSH2 0x37A7 JUMP JUMPDEST SWAP2 POP PUSH2 0x4561 DUP3 PUSH2 0x4520 JUMP JUMPDEST PUSH1 0x20 DUP3 ADD SWAP1 POP SWAP2 SWAP1 POP JUMP JUMPDEST PUSH1 0x0 PUSH1 0x20 DUP3 ADD SWAP1 POP DUP2 DUP2 SUB PUSH1 0x0 DUP4 ADD MSTORE PUSH2 0x4585 DUP2 PUSH2 0x4549 JUMP JUMPDEST SWAP1 POP SWAP2 SWAP1 POP JUMP JUMPDEST PUSH32 0x5472616E736665722042206661696C0000000000000000000000000000000000 PUSH1 0x0 DUP3 ADD MSTORE POP JUMP JUMPDEST PUSH1 0x0 PUSH2 0x45C2 PUSH1 0xF DUP4 PUSH2 0x37A7 JUMP JUMPDEST SWAP2 POP PUSH2 0x45CD DUP3 PUSH2 0x458C JUMP JUMPDEST PUSH1 0x20 DUP3 ADD SWAP1 POP SWAP2 SWAP1 POP JUMP JUMPDEST PUSH1 0x0 PUSH1 0x20 DUP3 ADD SWAP1 POP DUP2 DUP2 SUB PUSH1 0x0 DUP4 ADD MSTORE PUSH2 0x45F1 DUP2 PUSH2 0x45B5 JUMP JUMPDEST SWAP1 POP SWAP2 SWAP1 POP JUMP JUMPDEST PUSH32 0x496E73756666696369656E74206C697175696469747900000000000000000000 PUSH1 0x0 DUP3 ADD MSTORE POP JUMP JUMPDEST PUSH1 0x0 PUSH2 0x462E PUSH1 0x16 DUP4 PUSH2 0x37A7 JUMP JUMPDEST SWAP2 POP PUSH2 0x4639 DUP3 PUSH2 0x45F8 JUMP JUMPDEST PUSH1 0x20 DUP3 ADD SWAP1 POP SWAP2 SWAP1 POP JUMP JUMPDEST PUSH1 0x0 PUSH1 0x20 DUP3 ADD SWAP1 POP DUP2 DUP2 SUB PUSH1 0x0 DUP4 ADD MSTORE PUSH2 0x465D DUP2 PUSH2 0x4621 JUMP JUMPDEST SWAP1 POP SWAP2 SWAP1 POP JUMP JUMPDEST PUSH1 0x0 PUSH1 0x60 DUP3 ADD SWAP1 POP PUSH2 0x4679 PUSH1 0x0 DUP4 ADD DUP7 PUSH2 0x394B JUMP JUMPDEST PUSH2 0x4686 PUSH1 0x20 DUP4 ADD DUP6 PUSH2 0x3772 JUMP JUMPDEST PUSH2 0x4693 PUSH1 0x40 DUP4 ADD DUP5 PUSH2 0x3772 JUMP JUMPDEST SWAP5 SWAP4 POP POP POP POP JUMP INVALID LOG2 PUSH5 0x6970667358 0x22 SLT KECCAK256 0xE9 0xCF CALL 0xC8 0xCE ADDMOD RETURNDATACOPY TLOAD SLT GT DUP6 XOR 0xCA PUSH29 0x7306568299706EDC54F7C160E8142248DA7064736F6C634300081C0033 "},"methodIdentifiers":{"addLiquidity(address,address,uint256,uint256,uint256,uint256,address,uint256)":"e8e33700","allowance(address,address)":"dd62ed3e","approve(address,uint256)":"095ea7b3","balanceOf(address)":"70a08231","decimals()":"313ce567","getAmountOut(uint256,uint256,uint256)":"054d50d4","getLiquidityShares(address)":"c8c0526e","getPrice(address,address)":"ac41865a","getReserves()":"0902f1ac","getSupportedTokens()":"d3c7c2c7","getTotalLiquidity()":"35c7e925","name()":"06fdde03","removeLiquidity(address,address,uint256,uint256,uint256,address,uint256)":"baa2abde","reserveA()":"dc5fa6c5","reserveB()":"19e36f3b","swapExactTokensForTokens(uint256,uint256,address[],address,uint256)":"38ed1739","symbol()":"95d89b41","tokenA()":"0fc63d10","tokenB()":"5f64b55b","totalSupply()":"18160ddd","transfer(address,uint256)":"a9059cbb","transferFrom(address,address,uint256)":"23b872dd"}}}}}